{
  "_format": "hh-sol-artifact-1",
  "contractName": "ERC721Mintable",
  "sourceName": "contracts/ERC721Mintable.sol",
  "abi": [
    {
      "inputs": [
        {
          "internalType": "string",
          "name": "_name",
          "type": "string"
        },
        {
          "internalType": "string",
          "name": "_symbol",
          "type": "string"
        },
        {
          "internalType": "address",
          "name": "_signer",
          "type": "address"
        }
      ],
      "stateMutability": "nonpayable",
      "type": "constructor"
    },
    {
      "anonymous": false,
      "inputs": [
        {
          "indexed": true,
          "internalType": "address",
          "name": "owner",
          "type": "address"
        },
        {
          "indexed": true,
          "internalType": "address",
          "name": "approved",
          "type": "address"
        },
        {
          "indexed": true,
          "internalType": "uint256",
          "name": "tokenId",
          "type": "uint256"
        }
      ],
      "name": "Approval",
      "type": "event"
    },
    {
      "anonymous": false,
      "inputs": [
        {
          "indexed": true,
          "internalType": "address",
          "name": "owner",
          "type": "address"
        },
        {
          "indexed": true,
          "internalType": "address",
          "name": "operator",
          "type": "address"
        },
        {
          "indexed": false,
          "internalType": "bool",
          "name": "approved",
          "type": "bool"
        }
      ],
      "name": "ApprovalForAll",
      "type": "event"
    },
    {
      "anonymous": false,
      "inputs": [
        {
          "indexed": true,
          "internalType": "address",
          "name": "previousOwner",
          "type": "address"
        },
        {
          "indexed": true,
          "internalType": "address",
          "name": "newOwner",
          "type": "address"
        }
      ],
      "name": "OwnershipTransferred",
      "type": "event"
    },
    {
      "anonymous": false,
      "inputs": [
        {
          "indexed": false,
          "internalType": "address",
          "name": "sender",
          "type": "address"
        },
        {
          "indexed": false,
          "internalType": "uint256",
          "name": "ID",
          "type": "uint256"
        }
      ],
      "name": "SafeMintSigner",
      "type": "event"
    },
    {
      "anonymous": false,
      "inputs": [
        {
          "indexed": true,
          "internalType": "address",
          "name": "from",
          "type": "address"
        },
        {
          "indexed": true,
          "internalType": "address",
          "name": "to",
          "type": "address"
        },
        {
          "indexed": true,
          "internalType": "uint256",
          "name": "tokenId",
          "type": "uint256"
        }
      ],
      "name": "Transfer",
      "type": "event"
    },
    {
      "inputs": [
        {
          "internalType": "address",
          "name": "to",
          "type": "address"
        },
        {
          "internalType": "uint256",
          "name": "tokenId",
          "type": "uint256"
        }
      ],
      "name": "approve",
      "outputs": [],
      "stateMutability": "nonpayable",
      "type": "function"
    },
    {
      "inputs": [
        {
          "internalType": "address",
          "name": "owner",
          "type": "address"
        }
      ],
      "name": "balanceOf",
      "outputs": [
        {
          "internalType": "uint256",
          "name": "",
          "type": "uint256"
        }
      ],
      "stateMutability": "view",
      "type": "function"
    },
    {
      "inputs": [
        {
          "internalType": "uint256",
          "name": "tokenId",
          "type": "uint256"
        }
      ],
      "name": "getApproved",
      "outputs": [
        {
          "internalType": "address",
          "name": "",
          "type": "address"
        }
      ],
      "stateMutability": "view",
      "type": "function"
    },
    {
      "inputs": [
        {
          "internalType": "address",
          "name": "owner",
          "type": "address"
        },
        {
          "internalType": "address",
          "name": "operator",
          "type": "address"
        }
      ],
      "name": "isApprovedForAll",
      "outputs": [
        {
          "internalType": "bool",
          "name": "",
          "type": "bool"
        }
      ],
      "stateMutability": "view",
      "type": "function"
    },
    {
      "inputs": [],
      "name": "name",
      "outputs": [
        {
          "internalType": "string",
          "name": "",
          "type": "string"
        }
      ],
      "stateMutability": "view",
      "type": "function"
    },
    {
      "inputs": [],
      "name": "owner",
      "outputs": [
        {
          "internalType": "address",
          "name": "",
          "type": "address"
        }
      ],
      "stateMutability": "view",
      "type": "function"
    },
    {
      "inputs": [
        {
          "internalType": "address",
          "name": "",
          "type": "address"
        },
        {
          "internalType": "string",
          "name": "",
          "type": "string"
        }
      ],
      "name": "ownerHaveURI",
      "outputs": [
        {
          "internalType": "bool",
          "name": "",
          "type": "bool"
        }
      ],
      "stateMutability": "view",
      "type": "function"
    },
    {
      "inputs": [
        {
          "internalType": "uint256",
          "name": "tokenId",
          "type": "uint256"
        }
      ],
      "name": "ownerOf",
      "outputs": [
        {
          "internalType": "address",
          "name": "",
          "type": "address"
        }
      ],
      "stateMutability": "view",
      "type": "function"
    },
    {
      "inputs": [],
      "name": "renounceOwnership",
      "outputs": [],
      "stateMutability": "nonpayable",
      "type": "function"
    },
    {
      "inputs": [
        {
          "internalType": "address",
          "name": "to",
          "type": "address"
        },
        {
          "internalType": "string",
          "name": "uri",
          "type": "string"
        }
      ],
      "name": "safeMint",
      "outputs": [],
      "stateMutability": "nonpayable",
      "type": "function"
    },
    {
      "inputs": [
        {
          "internalType": "bytes32",
          "name": "r",
          "type": "bytes32"
        },
        {
          "internalType": "uint8",
          "name": "v",
          "type": "uint8"
        },
        {
          "internalType": "bytes32",
          "name": "s",
          "type": "bytes32"
        },
        {
          "internalType": "string",
          "name": "uri",
          "type": "string"
        }
      ],
      "name": "safeMintSigner",
      "outputs": [],
      "stateMutability": "nonpayable",
      "type": "function"
    },
    {
      "inputs": [
        {
          "internalType": "address",
          "name": "from",
          "type": "address"
        },
        {
          "internalType": "address",
          "name": "to",
          "type": "address"
        },
        {
          "internalType": "uint256",
          "name": "tokenId",
          "type": "uint256"
        }
      ],
      "name": "safeTransferFrom",
      "outputs": [],
      "stateMutability": "nonpayable",
      "type": "function"
    },
    {
      "inputs": [
        {
          "internalType": "address",
          "name": "from",
          "type": "address"
        },
        {
          "internalType": "address",
          "name": "to",
          "type": "address"
        },
        {
          "internalType": "uint256",
          "name": "tokenId",
          "type": "uint256"
        },
        {
          "internalType": "bytes",
          "name": "data",
          "type": "bytes"
        }
      ],
      "name": "safeTransferFrom",
      "outputs": [],
      "stateMutability": "nonpayable",
      "type": "function"
    },
    {
      "inputs": [
        {
          "internalType": "address",
          "name": "operator",
          "type": "address"
        },
        {
          "internalType": "bool",
          "name": "approved",
          "type": "bool"
        }
      ],
      "name": "setApprovalForAll",
      "outputs": [],
      "stateMutability": "nonpayable",
      "type": "function"
    },
    {
      "inputs": [
        {
          "internalType": "bytes4",
          "name": "interfaceId",
          "type": "bytes4"
        }
      ],
      "name": "supportsInterface",
      "outputs": [
        {
          "internalType": "bool",
          "name": "",
          "type": "bool"
        }
      ],
      "stateMutability": "view",
      "type": "function"
    },
    {
      "inputs": [],
      "name": "symbol",
      "outputs": [
        {
          "internalType": "string",
          "name": "",
          "type": "string"
        }
      ],
      "stateMutability": "view",
      "type": "function"
    },
    {
      "inputs": [
        {
          "internalType": "uint256",
          "name": "tokenId",
          "type": "uint256"
        }
      ],
      "name": "tokenURI",
      "outputs": [
        {
          "internalType": "string",
          "name": "",
          "type": "string"
        }
      ],
      "stateMutability": "view",
      "type": "function"
    },
    {
      "inputs": [
        {
          "internalType": "address",
          "name": "from",
          "type": "address"
        },
        {
          "internalType": "address",
          "name": "to",
          "type": "address"
        },
        {
          "internalType": "uint256",
          "name": "tokenId",
          "type": "uint256"
        }
      ],
      "name": "transferFrom",
      "outputs": [],
      "stateMutability": "nonpayable",
      "type": "function"
    },
    {
      "inputs": [
        {
          "internalType": "address",
          "name": "newOwner",
          "type": "address"
        }
      ],
      "name": "transferOwnership",
      "outputs": [],
      "stateMutability": "nonpayable",
      "type": "function"
    }
  ],
  "bytecode": "0x60a06040523480156200001157600080fd5b506040516200384938038062003849833981810160405281019062000037919062000382565b828281600090816200004a919062000667565b5080600190816200005c919062000667565b5050506200007f62000073620000bc60201b60201c565b620000c460201b60201c565b8073ffffffffffffffffffffffffffffffffffffffff1660808173ffffffffffffffffffffffffffffffffffffffff16815250505050506200074e565b600033905090565b6000600660009054906101000a900473ffffffffffffffffffffffffffffffffffffffff16905081600660006101000a81548173ffffffffffffffffffffffffffffffffffffffff021916908373ffffffffffffffffffffffffffffffffffffffff1602179055508173ffffffffffffffffffffffffffffffffffffffff168173ffffffffffffffffffffffffffffffffffffffff167f8be0079c531659141344cd1fd0a4f28419497f9722a3daafe3b4186f6b6457e060405160405180910390a35050565b6000604051905090565b600080fd5b600080fd5b600080fd5b600080fd5b6000601f19601f8301169050919050565b7f4e487b7100000000000000000000000000000000000000000000000000000000600052604160045260246000fd5b620001f382620001a8565b810181811067ffffffffffffffff82111715620002155762000214620001b9565b5b80604052505050565b60006200022a6200018a565b9050620002388282620001e8565b919050565b600067ffffffffffffffff8211156200025b576200025a620001b9565b5b6200026682620001a8565b9050602081019050919050565b60005b838110156200029357808201518184015260208101905062000276565b60008484015250505050565b6000620002b6620002b0846200023d565b6200021e565b905082815260208101848484011115620002d557620002d4620001a3565b5b620002e284828562000273565b509392505050565b600082601f8301126200030257620003016200019e565b5b8151620003148482602086016200029f565b91505092915050565b600073ffffffffffffffffffffffffffffffffffffffff82169050919050565b60006200034a826200031d565b9050919050565b6200035c816200033d565b81146200036857600080fd5b50565b6000815190506200037c8162000351565b92915050565b6000806000606084860312156200039e576200039d62000194565b5b600084015167ffffffffffffffff811115620003bf57620003be62000199565b5b620003cd86828701620002ea565b935050602084015167ffffffffffffffff811115620003f157620003f062000199565b5b620003ff86828701620002ea565b925050604062000412868287016200036b565b9150509250925092565b600081519050919050565b7f4e487b7100000000000000000000000000000000000000000000000000000000600052602260045260246000fd5b600060028204905060018216806200046f57607f821691505b60208210810362000485576200048462000427565b5b50919050565b60008190508160005260206000209050919050565b60006020601f8301049050919050565b600082821b905092915050565b600060088302620004ef7fffffffffffffffffffffffffffffffffffffffffffffffffffffffffffffffff82620004b0565b620004fb8683620004b0565b95508019841693508086168417925050509392505050565b6000819050919050565b6000819050919050565b600062000548620005426200053c8462000513565b6200051d565b62000513565b9050919050565b6000819050919050565b620005648362000527565b6200057c62000573826200054f565b848454620004bd565b825550505050565b600090565b6200059362000584565b620005a081848462000559565b505050565b5b81811015620005c857620005bc60008262000589565b600181019050620005a6565b5050565b601f8211156200061757620005e1816200048b565b620005ec84620004a0565b81016020851015620005fc578190505b620006146200060b85620004a0565b830182620005a5565b50505b505050565b600082821c905092915050565b60006200063c600019846008026200061c565b1980831691505092915050565b600062000657838362000629565b9150826002028217905092915050565b62000672826200041c565b67ffffffffffffffff8111156200068e576200068d620001b9565b5b6200069a825462000456565b620006a7828285620005cc565b600060209050601f831160018114620006df5760008415620006ca578287015190505b620006d6858262000649565b86555062000746565b601f198416620006ef866200048b565b60005b828110156200071957848901518255600182019150602085019450602081019050620006f2565b8683101562000739578489015162000735601f89168262000629565b8355505b6001600288020188555050505b505050505050565b6080516130df6200076a600039600061150e01526130df6000f3fe608060405234801561001057600080fd5b50600436106101215760003560e01c8063715018a6116100ad578063b88d4fde11610071578063b88d4fde14610306578063c87b56dd14610322578063d204c45e14610352578063e985e9c51461036e578063f2fde38b1461039e57610121565b8063715018a6146102885780638da5cb5b1461029257806395d89b41146102b0578063a149f6dc146102ce578063a22cb465146102ea57610121565b806323b872dd116100f457806323b872dd146101c057806342842e0e146101dc5780636352211e146101f85780636f8335eb1461022857806370a082311461025857610121565b806301ffc9a71461012657806306fdde0314610156578063081812fc14610174578063095ea7b3146101a4575b600080fd5b610140600480360381019061013b9190611c34565b6103ba565b60405161014d9190611c7c565b60405180910390f35b61015e61049c565b60405161016b9190611d27565b60405180910390f35b61018e60048036038101906101899190611d7f565b61052e565b60405161019b9190611ded565b60405180910390f35b6101be60048036038101906101b99190611e34565b610574565b005b6101da60048036038101906101d59190611e74565b61068b565b005b6101f660048036038101906101f19190611e74565b6106eb565b005b610212600480360381019061020d9190611d7f565b61070b565b60405161021f9190611ded565b60405180910390f35b610242600480360381019061023d9190611ffc565b610791565b60405161024f9190611c7c565b60405180910390f35b610272600480360381019061026d9190612058565b6107d6565b60405161027f9190612094565b60405180910390f35b61029061088d565b005b61029a6108a1565b6040516102a79190611ded565b60405180910390f35b6102b86108cb565b6040516102c59190611d27565b60405180910390f35b6102e860048036038101906102e3919061211e565b61095d565b005b61030460048036038101906102ff91906121cd565b610b48565b005b610320600480360381019061031b91906122ae565b610b5e565b005b61033c60048036038101906103379190611d7f565b610bc0565b6040516103499190611d27565b60405180910390f35b61036c60048036038101906103679190611ffc565b610c65565b005b61038860048036038101906103839190612331565b610cb5565b6040516103959190611c7c565b60405180910390f35b6103b860048036038101906103b39190612058565b610d49565b005b60007f80ac58cd000000000000000000000000000000000000000000000000000000007bffffffffffffffffffffffffffffffffffffffffffffffffffffffff1916827bffffffffffffffffffffffffffffffffffffffffffffffffffffffff1916148061048557507f5b5e139f000000000000000000000000000000000000000000000000000000007bffffffffffffffffffffffffffffffffffffffffffffffffffffffff1916827bffffffffffffffffffffffffffffffffffffffffffffffffffffffff1916145b80610495575061049482610dcc565b5b9050919050565b6060600080546104ab906123a0565b80601f01602080910402602001604051908101604052809291908181526020018280546104d7906123a0565b80156105245780601f106104f957610100808354040283529160200191610524565b820191906000526020600020905b81548152906001019060200180831161050757829003601f168201915b5050505050905090565b600061053982610e36565b6004600083815260200190815260200160002060009054906101000a900473ffffffffffffffffffffffffffffffffffffffff169050919050565b600061057f8261070b565b90508073ffffffffffffffffffffffffffffffffffffffff168373ffffffffffffffffffffffffffffffffffffffff16036105ef576040517f08c379a00000000000000000000000000000000000000000000000000000000081526004016105e690612443565b60405180910390fd5b8073ffffffffffffffffffffffffffffffffffffffff1661060e610e81565b73ffffffffffffffffffffffffffffffffffffffff16148061063d575061063c81610637610e81565b610cb5565b5b61067c576040517f08c379a0000000000000000000000000000000000000000000000000000000008152600401610673906124d5565b60405180910390fd5b6106868383610e89565b505050565b61069c610696610e81565b82610f42565b6106db576040517f08c379a00000000000000000000000000000000000000000000000000000000081526004016106d290612567565b60405180910390fd5b6106e6838383610fd7565b505050565b61070683838360405180602001604052806000815250610b5e565b505050565b600080610717836112d0565b9050600073ffffffffffffffffffffffffffffffffffffffff168173ffffffffffffffffffffffffffffffffffffffff1603610788576040517f08c379a000000000000000000000000000000000000000000000000000000000815260040161077f906125d3565b60405180910390fd5b80915050919050565b6009602052816000526040600020818051602081018201805184825260208301602085012081835280955050505050506000915091509054906101000a900460ff1681565b60008073ffffffffffffffffffffffffffffffffffffffff168273ffffffffffffffffffffffffffffffffffffffff1603610846576040517f08c379a000000000000000000000000000000000000000000000000000000000815260040161083d90612665565b60405180910390fd5b600360008373ffffffffffffffffffffffffffffffffffffffff1673ffffffffffffffffffffffffffffffffffffffff168152602001908152602001600020549050919050565b61089561130d565b61089f600061138b565b565b6000600660009054906101000a900473ffffffffffffffffffffffffffffffffffffffff16905090565b6060600180546108da906123a0565b80601f0160208091040260200160405190810160405280929190818152602001828054610906906123a0565b80156109535780601f1061092857610100808354040283529160200191610953565b820191906000526020600020905b81548152906001019060200180831161093657829003601f168201915b5050505050905090565b61096984848484611451565b6109a8576040517f08c379a000000000000000000000000000000000000000000000000000000000815260040161099f906126d1565b60405180910390fd5b600960003373ffffffffffffffffffffffffffffffffffffffff1673ffffffffffffffffffffffffffffffffffffffff168152602001908152602001600020816040516109f5919061272d565b908152602001604051809103902060009054906101000a900460ff1615610a51576040517f08c379a0000000000000000000000000000000000000000000000000000000008152600401610a4890612790565b60405180910390fd5b6000610a5d600761154f565b9050610a69600761155d565b610a733382611573565b81600860008381526020019081526020016000209081610a93919061295c565b506001600960003373ffffffffffffffffffffffffffffffffffffffff1673ffffffffffffffffffffffffffffffffffffffff16815260200190815260200160002083604051610ae3919061272d565b908152602001604051809103902060006101000a81548160ff0219169083151502179055507fbdfca8f7d6c94408e5403a9ee9a2e1a7dcd9090f5bac87da6e65494d80383bfa3382604051610b39929190612a2e565b60405180910390a15050505050565b610b5a610b53610e81565b8383611591565b5050565b610b6f610b69610e81565b83610f42565b610bae576040517f08c379a0000000000000000000000000000000000000000000000000000000008152600401610ba590612567565b60405180910390fd5b610bba848484846116fd565b50505050565b6060600860008381526020019081526020016000208054610be0906123a0565b80601f0160208091040260200160405190810160405280929190818152602001828054610c0c906123a0565b8015610c595780601f10610c2e57610100808354040283529160200191610c59565b820191906000526020600020905b815481529060010190602001808311610c3c57829003601f168201915b50505050509050919050565b610c6d61130d565b6000610c79600761154f565b9050610c85600761155d565b610c8f8382611573565b81600860008381526020019081526020016000209081610caf919061295c565b50505050565b6000600560008473ffffffffffffffffffffffffffffffffffffffff1673ffffffffffffffffffffffffffffffffffffffff16815260200190815260200160002060008373ffffffffffffffffffffffffffffffffffffffff1673ffffffffffffffffffffffffffffffffffffffff16815260200190815260200160002060009054906101000a900460ff16905092915050565b610d5161130d565b600073ffffffffffffffffffffffffffffffffffffffff168173ffffffffffffffffffffffffffffffffffffffff1603610dc0576040517f08c379a0000000000000000000000000000000000000000000000000000000008152600401610db790612ac9565b60405180910390fd5b610dc98161138b565b50565b60007f01ffc9a7000000000000000000000000000000000000000000000000000000007bffffffffffffffffffffffffffffffffffffffffffffffffffffffff1916827bffffffffffffffffffffffffffffffffffffffffffffffffffffffff1916149050919050565b610e3f81611759565b610e7e576040517f08c379a0000000000000000000000000000000000000000000000000000000008152600401610e75906125d3565b60405180910390fd5b50565b600033905090565b816004600083815260200190815260200160002060006101000a81548173ffffffffffffffffffffffffffffffffffffffff021916908373ffffffffffffffffffffffffffffffffffffffff160217905550808273ffffffffffffffffffffffffffffffffffffffff16610efc8361070b565b73ffffffffffffffffffffffffffffffffffffffff167f8c5be1e5ebec7d5bd14f71427d1e84f3dd0314c0f7b2291e5b200ac8c7c3b92560405160405180910390a45050565b600080610f4e8361070b565b90508073ffffffffffffffffffffffffffffffffffffffff168473ffffffffffffffffffffffffffffffffffffffff161480610f905750610f8f8185610cb5565b5b80610fce57508373ffffffffffffffffffffffffffffffffffffffff16610fb68461052e565b73ffffffffffffffffffffffffffffffffffffffff16145b91505092915050565b8273ffffffffffffffffffffffffffffffffffffffff16610ff78261070b565b73ffffffffffffffffffffffffffffffffffffffff161461104d576040517f08c379a000000000000000000000000000000000000000000000000000000000815260040161104490612b5b565b60405180910390fd5b600073ffffffffffffffffffffffffffffffffffffffff168273ffffffffffffffffffffffffffffffffffffffff16036110bc576040517f08c379a00000000000000000000000000000000000000000000000000000000081526004016110b390612bed565b60405180910390fd5b6110c9838383600161179a565b8273ffffffffffffffffffffffffffffffffffffffff166110e98261070b565b73ffffffffffffffffffffffffffffffffffffffff161461113f576040517f08c379a000000000000000000000000000000000000000000000000000000000815260040161113690612b5b565b60405180910390fd5b6004600082815260200190815260200160002060006101000a81549073ffffffffffffffffffffffffffffffffffffffff02191690556001600360008573ffffffffffffffffffffffffffffffffffffffff1673ffffffffffffffffffffffffffffffffffffffff168152602001908152602001600020600082825403925050819055506001600360008473ffffffffffffffffffffffffffffffffffffffff1673ffffffffffffffffffffffffffffffffffffffff16815260200190815260200160002060008282540192505081905550816002600083815260200190815260200160002060006101000a81548173ffffffffffffffffffffffffffffffffffffffff021916908373ffffffffffffffffffffffffffffffffffffffff160217905550808273ffffffffffffffffffffffffffffffffffffffff168473ffffffffffffffffffffffffffffffffffffffff167fddf252ad1be2c89b69c2b068fc378daa952ba7f163c4a11628f55a4df523b3ef60405160405180910390a46112cb83838360016117a0565b505050565b60006002600083815260200190815260200160002060009054906101000a900473ffffffffffffffffffffffffffffffffffffffff169050919050565b611315610e81565b73ffffffffffffffffffffffffffffffffffffffff166113336108a1565b73ffffffffffffffffffffffffffffffffffffffff1614611389576040517f08c379a000000000000000000000000000000000000000000000000000000000815260040161138090612c59565b60405180910390fd5b565b6000600660009054906101000a900473ffffffffffffffffffffffffffffffffffffffff16905081600660006101000a81548173ffffffffffffffffffffffffffffffffffffffff021916908373ffffffffffffffffffffffffffffffffffffffff1602179055508173ffffffffffffffffffffffffffffffffffffffff168173ffffffffffffffffffffffffffffffffffffffff167f8be0079c531659141344cd1fd0a4f28419497f9722a3daafe3b4186f6b6457e060405160405180910390a35050565b60008082333060405160200161146993929190612cc1565b6040516020818303038152906040528051906020012090506001816040516020016114949190612d67565b60405160208183030381529060405280519060200120868887604051600081526020016040526040516114ca9493929190612dab565b6020604051602081039080840390855afa1580156114ec573d6000803e3d6000fd5b5050506020604051035173ffffffffffffffffffffffffffffffffffffffff167f000000000000000000000000000000000000000000000000000000000000000073ffffffffffffffffffffffffffffffffffffffff1614915050949350505050565b600081600001549050919050565b6001816000016000828254019250508190555050565b61158d8282604051806020016040528060008152506117a6565b5050565b8173ffffffffffffffffffffffffffffffffffffffff168373ffffffffffffffffffffffffffffffffffffffff16036115ff576040517f08c379a00000000000000000000000000000000000000000000000000000000081526004016115f690612e3c565b60405180910390fd5b80600560008573ffffffffffffffffffffffffffffffffffffffff1673ffffffffffffffffffffffffffffffffffffffff16815260200190815260200160002060008473ffffffffffffffffffffffffffffffffffffffff1673ffffffffffffffffffffffffffffffffffffffff16815260200190815260200160002060006101000a81548160ff0219169083151502179055508173ffffffffffffffffffffffffffffffffffffffff168373ffffffffffffffffffffffffffffffffffffffff167f17307eab39ab6107e8899845ad3d59bd9653f200f220920489ca2b5937696c31836040516116f09190611c7c565b60405180910390a3505050565b611708848484610fd7565b61171484848484611801565b611753576040517f08c379a000000000000000000000000000000000000000000000000000000000815260040161174a90612ece565b60405180910390fd5b50505050565b60008073ffffffffffffffffffffffffffffffffffffffff1661177b836112d0565b73ffffffffffffffffffffffffffffffffffffffff1614159050919050565b50505050565b50505050565b6117b08383611988565b6117bd6000848484611801565b6117fc576040517f08c379a00000000000000000000000000000000000000000000000000000000081526004016117f390612ece565b60405180910390fd5b505050565b60006118228473ffffffffffffffffffffffffffffffffffffffff16611ba5565b1561197b578373ffffffffffffffffffffffffffffffffffffffff1663150b7a0261184b610e81565b8786866040518563ffffffff1660e01b815260040161186d9493929190612f43565b6020604051808303816000875af19250505080156118a957506040513d601f19601f820116820180604052508101906118a69190612fa4565b60015b61192b573d80600081146118d9576040519150601f19603f3d011682016040523d82523d6000602084013e6118de565b606091505b506000815103611923576040517f08c379a000000000000000000000000000000000000000000000000000000000815260040161191a90612ece565b60405180910390fd5b805181602001fd5b63150b7a0260e01b7bffffffffffffffffffffffffffffffffffffffffffffffffffffffff1916817bffffffffffffffffffffffffffffffffffffffffffffffffffffffff191614915050611980565b600190505b949350505050565b600073ffffffffffffffffffffffffffffffffffffffff168273ffffffffffffffffffffffffffffffffffffffff16036119f7576040517f08c379a00000000000000000000000000000000000000000000000000000000081526004016119ee9061301d565b60405180910390fd5b611a0081611759565b15611a40576040517f08c379a0000000000000000000000000000000000000000000000000000000008152600401611a3790613089565b60405180910390fd5b611a4e60008383600161179a565b611a5781611759565b15611a97576040517f08c379a0000000000000000000000000000000000000000000000000000000008152600401611a8e90613089565b60405180910390fd5b6001600360008473ffffffffffffffffffffffffffffffffffffffff1673ffffffffffffffffffffffffffffffffffffffff16815260200190815260200160002060008282540192505081905550816002600083815260200190815260200160002060006101000a81548173ffffffffffffffffffffffffffffffffffffffff021916908373ffffffffffffffffffffffffffffffffffffffff160217905550808273ffffffffffffffffffffffffffffffffffffffff16600073ffffffffffffffffffffffffffffffffffffffff167fddf252ad1be2c89b69c2b068fc378daa952ba7f163c4a11628f55a4df523b3ef60405160405180910390a4611ba16000838360016117a0565b5050565b6000808273ffffffffffffffffffffffffffffffffffffffff163b119050919050565b6000604051905090565b600080fd5b600080fd5b60007fffffffff0000000000000000000000000000000000000000000000000000000082169050919050565b611c1181611bdc565b8114611c1c57600080fd5b50565b600081359050611c2e81611c08565b92915050565b600060208284031215611c4a57611c49611bd2565b5b6000611c5884828501611c1f565b91505092915050565b60008115159050919050565b611c7681611c61565b82525050565b6000602082019050611c916000830184611c6d565b92915050565b600081519050919050565b600082825260208201905092915050565b60005b83811015611cd1578082015181840152602081019050611cb6565b60008484015250505050565b6000601f19601f8301169050919050565b6000611cf982611c97565b611d038185611ca2565b9350611d13818560208601611cb3565b611d1c81611cdd565b840191505092915050565b60006020820190508181036000830152611d418184611cee565b905092915050565b6000819050919050565b611d5c81611d49565b8114611d6757600080fd5b50565b600081359050611d7981611d53565b92915050565b600060208284031215611d9557611d94611bd2565b5b6000611da384828501611d6a565b91505092915050565b600073ffffffffffffffffffffffffffffffffffffffff82169050919050565b6000611dd782611dac565b9050919050565b611de781611dcc565b82525050565b6000602082019050611e026000830184611dde565b92915050565b611e1181611dcc565b8114611e1c57600080fd5b50565b600081359050611e2e81611e08565b92915050565b60008060408385031215611e4b57611e4a611bd2565b5b6000611e5985828601611e1f565b9250506020611e6a85828601611d6a565b9150509250929050565b600080600060608486031215611e8d57611e8c611bd2565b5b6000611e9b86828701611e1f565b9350506020611eac86828701611e1f565b9250506040611ebd86828701611d6a565b9150509250925092565b600080fd5b600080fd5b7f4e487b7100000000000000000000000000000000000000000000000000000000600052604160045260246000fd5b611f0982611cdd565b810181811067ffffffffffffffff82111715611f2857611f27611ed1565b5b80604052505050565b6000611f3b611bc8565b9050611f478282611f00565b919050565b600067ffffffffffffffff821115611f6757611f66611ed1565b5b611f7082611cdd565b9050602081019050919050565b82818337600083830152505050565b6000611f9f611f9a84611f4c565b611f31565b905082815260208101848484011115611fbb57611fba611ecc565b5b611fc6848285611f7d565b509392505050565b600082601f830112611fe357611fe2611ec7565b5b8135611ff3848260208601611f8c565b91505092915050565b6000806040838503121561201357612012611bd2565b5b600061202185828601611e1f565b925050602083013567ffffffffffffffff81111561204257612041611bd7565b5b61204e85828601611fce565b9150509250929050565b60006020828403121561206e5761206d611bd2565b5b600061207c84828501611e1f565b91505092915050565b61208e81611d49565b82525050565b60006020820190506120a96000830184612085565b92915050565b6000819050919050565b6120c2816120af565b81146120cd57600080fd5b50565b6000813590506120df816120b9565b92915050565b600060ff82169050919050565b6120fb816120e5565b811461210657600080fd5b50565b600081359050612118816120f2565b92915050565b6000806000806080858703121561213857612137611bd2565b5b6000612146878288016120d0565b945050602061215787828801612109565b9350506040612168878288016120d0565b925050606085013567ffffffffffffffff81111561218957612188611bd7565b5b61219587828801611fce565b91505092959194509250565b6121aa81611c61565b81146121b557600080fd5b50565b6000813590506121c7816121a1565b92915050565b600080604083850312156121e4576121e3611bd2565b5b60006121f285828601611e1f565b9250506020612203858286016121b8565b9150509250929050565b600067ffffffffffffffff82111561222857612227611ed1565b5b61223182611cdd565b9050602081019050919050565b600061225161224c8461220d565b611f31565b90508281526020810184848401111561226d5761226c611ecc565b5b612278848285611f7d565b509392505050565b600082601f83011261229557612294611ec7565b5b81356122a584826020860161223e565b91505092915050565b600080600080608085870312156122c8576122c7611bd2565b5b60006122d687828801611e1f565b94505060206122e787828801611e1f565b93505060406122f887828801611d6a565b925050606085013567ffffffffffffffff81111561231957612318611bd7565b5b61232587828801612280565b91505092959194509250565b6000806040838503121561234857612347611bd2565b5b600061235685828601611e1f565b925050602061236785828601611e1f565b9150509250929050565b7f4e487b7100000000000000000000000000000000000000000000000000000000600052602260045260246000fd5b600060028204905060018216806123b857607f821691505b6020821081036123cb576123ca612371565b5b50919050565b7f4552433732313a20617070726f76616c20746f2063757272656e74206f776e6560008201527f7200000000000000000000000000000000000000000000000000000000000000602082015250565b600061242d602183611ca2565b9150612438826123d1565b604082019050919050565b6000602082019050818103600083015261245c81612420565b9050919050565b7f4552433732313a20617070726f76652063616c6c6572206973206e6f7420746f60008201527f6b656e206f776e6572206f7220617070726f76656420666f7220616c6c000000602082015250565b60006124bf603d83611ca2565b91506124ca82612463565b604082019050919050565b600060208201905081810360008301526124ee816124b2565b9050919050565b7f4552433732313a2063616c6c6572206973206e6f7420746f6b656e206f776e6560008201527f72206f7220617070726f76656400000000000000000000000000000000000000602082015250565b6000612551602d83611ca2565b915061255c826124f5565b604082019050919050565b6000602082019050818103600083015261258081612544565b9050919050565b7f4552433732313a20696e76616c696420746f6b656e2049440000000000000000600082015250565b60006125bd601883611ca2565b91506125c882612587565b602082019050919050565b600060208201905081810360008301526125ec816125b0565b9050919050565b7f4552433732313a2061646472657373207a65726f206973206e6f74206120766160008201527f6c6964206f776e65720000000000000000000000000000000000000000000000602082015250565b600061264f602983611ca2565b915061265a826125f3565b604082019050919050565b6000602082019050818103600083015261267e81612642565b9050919050565b7f4552433732314d696e7461626c653a2057726f6e67207369676e617475726500600082015250565b60006126bb601f83611ca2565b91506126c682612685565b602082019050919050565b600060208201905081810360008301526126ea816126ae565b9050919050565b600081905092915050565b600061270782611c97565b61271181856126f1565b9350612721818560208601611cb3565b80840191505092915050565b600061273982846126fc565b915081905092915050565b7f4552433732314d696e7461626c653a20416c7265616479206861766500000000600082015250565b600061277a601c83611ca2565b915061278582612744565b602082019050919050565b600060208201905081810360008301526127a98161276d565b9050919050565b60008190508160005260206000209050919050565b60006020601f8301049050919050565b600082821b905092915050565b6000600883026128127fffffffffffffffffffffffffffffffffffffffffffffffffffffffffffffffff826127d5565b61281c86836127d5565b95508019841693508086168417925050509392505050565b6000819050919050565b600061285961285461284f84611d49565b612834565b611d49565b9050919050565b6000819050919050565b6128738361283e565b61288761287f82612860565b8484546127e2565b825550505050565b600090565b61289c61288f565b6128a781848461286a565b505050565b5b818110156128cb576128c0600082612894565b6001810190506128ad565b5050565b601f821115612910576128e1816127b0565b6128ea846127c5565b810160208510156128f9578190505b61290d612905856127c5565b8301826128ac565b50505b505050565b600082821c905092915050565b600061293360001984600802612915565b1980831691505092915050565b600061294c8383612922565b9150826002028217905092915050565b61296582611c97565b67ffffffffffffffff81111561297e5761297d611ed1565b5b61298882546123a0565b6129938282856128cf565b600060209050601f8311600181146129c657600084156129b4578287015190505b6129be8582612940565b865550612a26565b601f1984166129d4866127b0565b60005b828110156129fc578489015182556001820191506020850194506020810190506129d7565b86831015612a195784890151612a15601f891682612922565b8355505b6001600288020188555050505b505050505050565b6000604082019050612a436000830185611dde565b612a506020830184612085565b9392505050565b7f4f776e61626c653a206e6577206f776e657220697320746865207a65726f206160008201527f6464726573730000000000000000000000000000000000000000000000000000602082015250565b6000612ab3602683611ca2565b9150612abe82612a57565b604082019050919050565b60006020820190508181036000830152612ae281612aa6565b9050919050565b7f4552433732313a207472616e736665722066726f6d20696e636f72726563742060008201527f6f776e6572000000000000000000000000000000000000000000000000000000602082015250565b6000612b45602583611ca2565b9150612b5082612ae9565b604082019050919050565b60006020820190508181036000830152612b7481612b38565b9050919050565b7f4552433732313a207472616e7366657220746f20746865207a65726f2061646460008201527f7265737300000000000000000000000000000000000000000000000000000000602082015250565b6000612bd7602483611ca2565b9150612be282612b7b565b604082019050919050565b60006020820190508181036000830152612c0681612bca565b9050919050565b7f4f776e61626c653a2063616c6c6572206973206e6f7420746865206f776e6572600082015250565b6000612c43602083611ca2565b9150612c4e82612c0d565b602082019050919050565b60006020820190508181036000830152612c7281612c36565b9050919050565b60008160601b9050919050565b6000612c9182612c79565b9050919050565b6000612ca382612c86565b9050919050565b612cbb612cb682611dcc565b612c98565b82525050565b6000612ccd82866126fc565b9150612cd98285612caa565b601482019150612ce98284612caa565b601482019150819050949350505050565b7f19457468657265756d205369676e6564204d6573736167653a0a333200000000600082015250565b6000612d30601c836126f1565b9150612d3b82612cfa565b601c82019050919050565b6000819050919050565b612d61612d5c826120af565b612d46565b82525050565b6000612d7282612d23565b9150612d7e8284612d50565b60208201915081905092915050565b612d96816120af565b82525050565b612da5816120e5565b82525050565b6000608082019050612dc06000830187612d8d565b612dcd6020830186612d9c565b612dda6040830185612d8d565b612de76060830184612d8d565b95945050505050565b7f4552433732313a20617070726f766520746f2063616c6c657200000000000000600082015250565b6000612e26601983611ca2565b9150612e3182612df0565b602082019050919050565b60006020820190508181036000830152612e5581612e19565b9050919050565b7f4552433732313a207472616e7366657220746f206e6f6e20455243373231526560008201527f63656976657220696d706c656d656e7465720000000000000000000000000000602082015250565b6000612eb8603283611ca2565b9150612ec382612e5c565b604082019050919050565b60006020820190508181036000830152612ee781612eab565b9050919050565b600081519050919050565b600082825260208201905092915050565b6000612f1582612eee565b612f1f8185612ef9565b9350612f2f818560208601611cb3565b612f3881611cdd565b840191505092915050565b6000608082019050612f586000830187611dde565b612f656020830186611dde565b612f726040830185612085565b8181036060830152612f848184612f0a565b905095945050505050565b600081519050612f9e81611c08565b92915050565b600060208284031215612fba57612fb9611bd2565b5b6000612fc884828501612f8f565b91505092915050565b7f4552433732313a206d696e7420746f20746865207a65726f2061646472657373600082015250565b6000613007602083611ca2565b915061301282612fd1565b602082019050919050565b6000602082019050818103600083015261303681612ffa565b9050919050565b7f4552433732313a20746f6b656e20616c7265616479206d696e74656400000000600082015250565b6000613073601c83611ca2565b915061307e8261303d565b602082019050919050565b600060208201905081810360008301526130a281613066565b905091905056fea2646970667358221220dc9a3f03d2e2fb8a014b1ca30fb9e31e228e6418f00d1dbddbba3b0d87bd142464736f6c63430008110033",
  "linkReferences": {},
  "deployedLinkReferences": {}
}