{
  "_format": "hh-sol-artifact-1",
  "contractName": "ERC721TokenRoyalty",
  "sourceName": "contracts/ERC721TokenRoyalty.sol",
  "abi": [
    {
      "inputs": [
        {
          "internalType": "string",
          "name": "_name",
          "type": "string"
        },
        {
          "internalType": "string",
          "name": "_symbol",
          "type": "string"
        },
        {
          "internalType": "address",
          "name": "_signer",
          "type": "address"
        },
        {
          "internalType": "uint96",
          "name": "fee",
          "type": "uint96"
        }
      ],
      "stateMutability": "nonpayable",
      "type": "constructor"
    },
    {
      "anonymous": false,
      "inputs": [
        {
          "indexed": true,
          "internalType": "address",
          "name": "owner",
          "type": "address"
        },
        {
          "indexed": true,
          "internalType": "address",
          "name": "approved",
          "type": "address"
        },
        {
          "indexed": true,
          "internalType": "uint256",
          "name": "tokenId",
          "type": "uint256"
        }
      ],
      "name": "Approval",
      "type": "event"
    },
    {
      "anonymous": false,
      "inputs": [
        {
          "indexed": true,
          "internalType": "address",
          "name": "owner",
          "type": "address"
        },
        {
          "indexed": true,
          "internalType": "address",
          "name": "operator",
          "type": "address"
        },
        {
          "indexed": false,
          "internalType": "bool",
          "name": "approved",
          "type": "bool"
        }
      ],
      "name": "ApprovalForAll",
      "type": "event"
    },
    {
      "anonymous": false,
      "inputs": [
        {
          "indexed": true,
          "internalType": "address",
          "name": "previousOwner",
          "type": "address"
        },
        {
          "indexed": true,
          "internalType": "address",
          "name": "newOwner",
          "type": "address"
        }
      ],
      "name": "OwnershipTransferred",
      "type": "event"
    },
    {
      "anonymous": false,
      "inputs": [
        {
          "indexed": false,
          "internalType": "address",
          "name": "sender",
          "type": "address"
        },
        {
          "indexed": false,
          "internalType": "uint256",
          "name": "ID",
          "type": "uint256"
        }
      ],
      "name": "SafeMintSigner",
      "type": "event"
    },
    {
      "anonymous": false,
      "inputs": [
        {
          "indexed": true,
          "internalType": "address",
          "name": "from",
          "type": "address"
        },
        {
          "indexed": true,
          "internalType": "address",
          "name": "to",
          "type": "address"
        },
        {
          "indexed": true,
          "internalType": "uint256",
          "name": "tokenId",
          "type": "uint256"
        }
      ],
      "name": "Transfer",
      "type": "event"
    },
    {
      "inputs": [
        {
          "internalType": "address",
          "name": "to",
          "type": "address"
        },
        {
          "internalType": "uint256",
          "name": "tokenId",
          "type": "uint256"
        }
      ],
      "name": "approve",
      "outputs": [],
      "stateMutability": "nonpayable",
      "type": "function"
    },
    {
      "inputs": [
        {
          "internalType": "address",
          "name": "owner",
          "type": "address"
        }
      ],
      "name": "balanceOf",
      "outputs": [
        {
          "internalType": "uint256",
          "name": "",
          "type": "uint256"
        }
      ],
      "stateMutability": "view",
      "type": "function"
    },
    {
      "inputs": [
        {
          "internalType": "uint256",
          "name": "tokenId",
          "type": "uint256"
        }
      ],
      "name": "getApproved",
      "outputs": [
        {
          "internalType": "address",
          "name": "",
          "type": "address"
        }
      ],
      "stateMutability": "view",
      "type": "function"
    },
    {
      "inputs": [
        {
          "internalType": "address",
          "name": "owner",
          "type": "address"
        },
        {
          "internalType": "address",
          "name": "operator",
          "type": "address"
        }
      ],
      "name": "isApprovedForAll",
      "outputs": [
        {
          "internalType": "bool",
          "name": "",
          "type": "bool"
        }
      ],
      "stateMutability": "view",
      "type": "function"
    },
    {
      "inputs": [],
      "name": "name",
      "outputs": [
        {
          "internalType": "string",
          "name": "",
          "type": "string"
        }
      ],
      "stateMutability": "view",
      "type": "function"
    },
    {
      "inputs": [],
      "name": "owner",
      "outputs": [
        {
          "internalType": "address",
          "name": "",
          "type": "address"
        }
      ],
      "stateMutability": "view",
      "type": "function"
    },
    {
      "inputs": [
        {
          "internalType": "address",
          "name": "",
          "type": "address"
        },
        {
          "internalType": "string",
          "name": "",
          "type": "string"
        }
      ],
      "name": "ownerHaveURI",
      "outputs": [
        {
          "internalType": "bool",
          "name": "",
          "type": "bool"
        }
      ],
      "stateMutability": "view",
      "type": "function"
    },
    {
      "inputs": [
        {
          "internalType": "uint256",
          "name": "tokenId",
          "type": "uint256"
        }
      ],
      "name": "ownerOf",
      "outputs": [
        {
          "internalType": "address",
          "name": "",
          "type": "address"
        }
      ],
      "stateMutability": "view",
      "type": "function"
    },
    {
      "inputs": [],
      "name": "renounceOwnership",
      "outputs": [],
      "stateMutability": "nonpayable",
      "type": "function"
    },
    {
      "inputs": [
        {
          "internalType": "uint256",
          "name": "_tokenId",
          "type": "uint256"
        },
        {
          "internalType": "uint256",
          "name": "_salePrice",
          "type": "uint256"
        }
      ],
      "name": "royaltyInfo",
      "outputs": [
        {
          "internalType": "address",
          "name": "",
          "type": "address"
        },
        {
          "internalType": "uint256",
          "name": "",
          "type": "uint256"
        }
      ],
      "stateMutability": "view",
      "type": "function"
    },
    {
      "inputs": [
        {
          "internalType": "address",
          "name": "to",
          "type": "address"
        },
        {
          "internalType": "string",
          "name": "uri",
          "type": "string"
        }
      ],
      "name": "safeMint",
      "outputs": [],
      "stateMutability": "nonpayable",
      "type": "function"
    },
    {
      "inputs": [
        {
          "internalType": "bytes32",
          "name": "r",
          "type": "bytes32"
        },
        {
          "internalType": "uint8",
          "name": "v",
          "type": "uint8"
        },
        {
          "internalType": "bytes32",
          "name": "s",
          "type": "bytes32"
        },
        {
          "internalType": "string",
          "name": "uri",
          "type": "string"
        }
      ],
      "name": "safeMintSigner",
      "outputs": [],
      "stateMutability": "nonpayable",
      "type": "function"
    },
    {
      "inputs": [
        {
          "internalType": "address",
          "name": "from",
          "type": "address"
        },
        {
          "internalType": "address",
          "name": "to",
          "type": "address"
        },
        {
          "internalType": "uint256",
          "name": "tokenId",
          "type": "uint256"
        }
      ],
      "name": "safeTransferFrom",
      "outputs": [],
      "stateMutability": "nonpayable",
      "type": "function"
    },
    {
      "inputs": [
        {
          "internalType": "address",
          "name": "from",
          "type": "address"
        },
        {
          "internalType": "address",
          "name": "to",
          "type": "address"
        },
        {
          "internalType": "uint256",
          "name": "tokenId",
          "type": "uint256"
        },
        {
          "internalType": "bytes",
          "name": "data",
          "type": "bytes"
        }
      ],
      "name": "safeTransferFrom",
      "outputs": [],
      "stateMutability": "nonpayable",
      "type": "function"
    },
    {
      "inputs": [
        {
          "internalType": "address",
          "name": "operator",
          "type": "address"
        },
        {
          "internalType": "bool",
          "name": "approved",
          "type": "bool"
        }
      ],
      "name": "setApprovalForAll",
      "outputs": [],
      "stateMutability": "nonpayable",
      "type": "function"
    },
    {
      "inputs": [
        {
          "internalType": "bytes4",
          "name": "interfaceId",
          "type": "bytes4"
        }
      ],
      "name": "supportsInterface",
      "outputs": [
        {
          "internalType": "bool",
          "name": "",
          "type": "bool"
        }
      ],
      "stateMutability": "view",
      "type": "function"
    },
    {
      "inputs": [],
      "name": "symbol",
      "outputs": [
        {
          "internalType": "string",
          "name": "",
          "type": "string"
        }
      ],
      "stateMutability": "view",
      "type": "function"
    },
    {
      "inputs": [
        {
          "internalType": "uint256",
          "name": "tokenId",
          "type": "uint256"
        }
      ],
      "name": "tokenURI",
      "outputs": [
        {
          "internalType": "string",
          "name": "",
          "type": "string"
        }
      ],
      "stateMutability": "view",
      "type": "function"
    },
    {
      "inputs": [
        {
          "internalType": "address",
          "name": "from",
          "type": "address"
        },
        {
          "internalType": "address",
          "name": "to",
          "type": "address"
        },
        {
          "internalType": "uint256",
          "name": "tokenId",
          "type": "uint256"
        }
      ],
      "name": "transferFrom",
      "outputs": [],
      "stateMutability": "nonpayable",
      "type": "function"
    },
    {
      "inputs": [
        {
          "internalType": "address",
          "name": "newOwner",
          "type": "address"
        }
      ],
      "name": "transferOwnership",
      "outputs": [],
      "stateMutability": "nonpayable",
      "type": "function"
    }
  ],
  "bytecode": "0x60c06040523480156200001157600080fd5b5060405162003fa638038062003fa68339818101604052810190620000379190620003f0565b838381600290816200004a9190620006eb565b5080600390816200005c9190620006eb565b5050506200007f62000073620000e160201b60201c565b620000e960201b60201c565b8173ffffffffffffffffffffffffffffffffffffffff1660808173ffffffffffffffffffffffffffffffffffffffff1681525050806bffffffffffffffffffffffff1660a0816bffffffffffffffffffffffff168152505050505050620007d2565b600033905090565b6000600860009054906101000a900473ffffffffffffffffffffffffffffffffffffffff16905081600860006101000a81548173ffffffffffffffffffffffffffffffffffffffff021916908373ffffffffffffffffffffffffffffffffffffffff1602179055508173ffffffffffffffffffffffffffffffffffffffff168173ffffffffffffffffffffffffffffffffffffffff167f8be0079c531659141344cd1fd0a4f28419497f9722a3daafe3b4186f6b6457e060405160405180910390a35050565b6000604051905090565b600080fd5b600080fd5b600080fd5b600080fd5b6000601f19601f8301169050919050565b7f4e487b7100000000000000000000000000000000000000000000000000000000600052604160045260246000fd5b6200021882620001cd565b810181811067ffffffffffffffff821117156200023a5762000239620001de565b5b80604052505050565b60006200024f620001af565b90506200025d82826200020d565b919050565b600067ffffffffffffffff82111562000280576200027f620001de565b5b6200028b82620001cd565b9050602081019050919050565b60005b83811015620002b85780820151818401526020810190506200029b565b60008484015250505050565b6000620002db620002d58462000262565b62000243565b905082815260208101848484011115620002fa57620002f9620001c8565b5b6200030784828562000298565b509392505050565b600082601f830112620003275762000326620001c3565b5b815162000339848260208601620002c4565b91505092915050565b600073ffffffffffffffffffffffffffffffffffffffff82169050919050565b60006200036f8262000342565b9050919050565b620003818162000362565b81146200038d57600080fd5b50565b600081519050620003a18162000376565b92915050565b60006bffffffffffffffffffffffff82169050919050565b620003ca81620003a7565b8114620003d657600080fd5b50565b600081519050620003ea81620003bf565b92915050565b600080600080608085870312156200040d576200040c620001b9565b5b600085015167ffffffffffffffff8111156200042e576200042d620001be565b5b6200043c878288016200030f565b945050602085015167ffffffffffffffff81111562000460576200045f620001be565b5b6200046e878288016200030f565b9350506040620004818782880162000390565b92505060606200049487828801620003d9565b91505092959194509250565b600081519050919050565b7f4e487b7100000000000000000000000000000000000000000000000000000000600052602260045260246000fd5b60006002820490506001821680620004f357607f821691505b602082108103620005095762000508620004ab565b5b50919050565b60008190508160005260206000209050919050565b60006020601f8301049050919050565b600082821b905092915050565b600060088302620005737fffffffffffffffffffffffffffffffffffffffffffffffffffffffffffffffff8262000534565b6200057f868362000534565b95508019841693508086168417925050509392505050565b6000819050919050565b6000819050919050565b6000620005cc620005c6620005c08462000597565b620005a1565b62000597565b9050919050565b6000819050919050565b620005e883620005ab565b62000600620005f782620005d3565b84845462000541565b825550505050565b600090565b6200061762000608565b62000624818484620005dd565b505050565b5b818110156200064c57620006406000826200060d565b6001810190506200062a565b5050565b601f8211156200069b5762000665816200050f565b620006708462000524565b8101602085101562000680578190505b620006986200068f8562000524565b83018262000629565b50505b505050565b600082821c905092915050565b6000620006c060001984600802620006a0565b1980831691505092915050565b6000620006db8383620006ad565b9150826002028217905092915050565b620006f682620004a0565b67ffffffffffffffff811115620007125762000711620001de565b5b6200071e8254620004da565b6200072b82828562000650565b600060209050601f8311600181146200076357600084156200074e578287015190505b6200075a8582620006cd565b865550620007ca565b601f19841662000773866200050f565b60005b828110156200079d5784890151825560018201915060208501945060208101905062000776565b86831015620007bd5784890151620007b9601f891682620006ad565b8355505b6001600288020188555050505b505050505050565b60805160a0516137a7620007ff60003960008181610c650152610e380152600061173c01526137a76000f3fe608060405234801561001057600080fd5b506004361061012c5760003560e01c8063715018a6116100ad578063b88d4fde11610071578063b88d4fde14610342578063c87b56dd1461035e578063d204c45e1461038e578063e985e9c5146103aa578063f2fde38b146103da5761012c565b8063715018a6146102c45780638da5cb5b146102ce57806395d89b41146102ec578063a149f6dc1461030a578063a22cb465146103265761012c565b80632a55205a116100f45780632a55205a146101e757806342842e0e146102185780636352211e146102345780636f8335eb1461026457806370a08231146102945761012c565b806301ffc9a71461013157806306fdde0314610161578063081812fc1461017f578063095ea7b3146101af57806323b872dd146101cb575b600080fd5b61014b600480360381019061014691906120ed565b6103f6565b6040516101589190612135565b60405180910390f35b610169610408565b60405161017691906121e0565b60405180910390f35b61019960048036038101906101949190612238565b61049a565b6040516101a691906122a6565b60405180910390f35b6101c960048036038101906101c491906122ed565b6104e0565b005b6101e560048036038101906101e0919061232d565b6105f7565b005b61020160048036038101906101fc9190612380565b610657565b60405161020f9291906123cf565b60405180910390f35b610232600480360381019061022d919061232d565b610841565b005b61024e60048036038101906102499190612238565b610861565b60405161025b91906122a6565b60405180910390f35b61027e6004803603810190610279919061252d565b6108e7565b60405161028b9190612135565b60405180910390f35b6102ae60048036038101906102a99190612589565b61092c565b6040516102bb91906125b6565b60405180910390f35b6102cc6109e3565b005b6102d66109f7565b6040516102e391906122a6565b60405180910390f35b6102f4610a21565b60405161030191906121e0565b60405180910390f35b610324600480360381019061031f9190612640565b610ab3565b005b610340600480360381019061033b91906126ef565b610cc9565b005b61035c600480360381019061035791906127d0565b610cdf565b005b61037860048036038101906103739190612238565b610d41565b60405161038591906121e0565b60405180910390f35b6103a860048036038101906103a3919061252d565b610de6565b005b6103c460048036038101906103bf9190612853565b610e61565b6040516103d19190612135565b60405180910390f35b6103f460048036038101906103ef9190612589565b610ef5565b005b600061040182610f78565b9050919050565b606060028054610417906128c2565b80601f0160208091040260200160405190810160405280929190818152602001828054610443906128c2565b80156104905780601f1061046557610100808354040283529160200191610490565b820191906000526020600020905b81548152906001019060200180831161047357829003601f168201915b5050505050905090565b60006104a58261105a565b6006600083815260200190815260200160002060009054906101000a900473ffffffffffffffffffffffffffffffffffffffff169050919050565b60006104eb82610861565b90508073ffffffffffffffffffffffffffffffffffffffff168373ffffffffffffffffffffffffffffffffffffffff160361055b576040517f08c379a000000000000000000000000000000000000000000000000000000000815260040161055290612965565b60405180910390fd5b8073ffffffffffffffffffffffffffffffffffffffff1661057a6110a5565b73ffffffffffffffffffffffffffffffffffffffff1614806105a957506105a8816105a36110a5565b610e61565b5b6105e8576040517f08c379a00000000000000000000000000000000000000000000000000000000081526004016105df906129f7565b60405180910390fd5b6105f283836110ad565b505050565b6106086106026110a5565b82611166565b610647576040517f08c379a000000000000000000000000000000000000000000000000000000000815260040161063e90612a89565b60405180910390fd5b6106528383836111fb565b505050565b6000806000600160008681526020019081526020016000206040518060400160405290816000820160009054906101000a900473ffffffffffffffffffffffffffffffffffffffff1673ffffffffffffffffffffffffffffffffffffffff1673ffffffffffffffffffffffffffffffffffffffff1681526020016000820160149054906101000a90046bffffffffffffffffffffffff166bffffffffffffffffffffffff166bffffffffffffffffffffffff16815250509050600073ffffffffffffffffffffffffffffffffffffffff16816000015173ffffffffffffffffffffffffffffffffffffffff16036107ec5760006040518060400160405290816000820160009054906101000a900473ffffffffffffffffffffffffffffffffffffffff1673ffffffffffffffffffffffffffffffffffffffff1673ffffffffffffffffffffffffffffffffffffffff1681526020016000820160149054906101000a90046bffffffffffffffffffffffff166bffffffffffffffffffffffff166bffffffffffffffffffffffff168152505090505b60006107f66114f4565b6bffffffffffffffffffffffff1682602001516bffffffffffffffffffffffff16866108229190612ad8565b61082c9190612b49565b90508160000151819350935050509250929050565b61085c83838360405180602001604052806000815250610cdf565b505050565b60008061086d836114fe565b9050600073ffffffffffffffffffffffffffffffffffffffff168173ffffffffffffffffffffffffffffffffffffffff16036108de576040517f08c379a00000000000000000000000000000000000000000000000000000000081526004016108d590612bc6565b60405180910390fd5b80915050919050565b600b602052816000526040600020818051602081018201805184825260208301602085012081835280955050505050506000915091509054906101000a900460ff1681565b60008073ffffffffffffffffffffffffffffffffffffffff168273ffffffffffffffffffffffffffffffffffffffff160361099c576040517f08c379a000000000000000000000000000000000000000000000000000000000815260040161099390612c58565b60405180910390fd5b600560008373ffffffffffffffffffffffffffffffffffffffff1673ffffffffffffffffffffffffffffffffffffffff168152602001908152602001600020549050919050565b6109eb61153b565b6109f560006115b9565b565b6000600860009054906101000a900473ffffffffffffffffffffffffffffffffffffffff16905090565b606060038054610a30906128c2565b80601f0160208091040260200160405190810160405280929190818152602001828054610a5c906128c2565b8015610aa95780601f10610a7e57610100808354040283529160200191610aa9565b820191906000526020600020905b815481529060010190602001808311610a8c57829003601f168201915b5050505050905090565b610abf8484848461167f565b610afe576040517f08c379a0000000000000000000000000000000000000000000000000000000008152600401610af590612cc4565b60405180910390fd5b600b60003373ffffffffffffffffffffffffffffffffffffffff1673ffffffffffffffffffffffffffffffffffffffff16815260200190815260200160002081604051610b4b9190612d20565b908152602001604051809103902060009054906101000a900460ff1615610ba7576040517f08c379a0000000000000000000000000000000000000000000000000000000008152600401610b9e90612d83565b60405180910390fd5b6000610bb3600961177d565b9050610bbf600961178b565b610bc933826117a1565b81600a60008381526020019081526020016000209081610be99190612f4f565b506001600b60003373ffffffffffffffffffffffffffffffffffffffff1673ffffffffffffffffffffffffffffffffffffffff16815260200190815260200160002083604051610c399190612d20565b908152602001604051809103902060006101000a81548160ff021916908315150217905550610c8981337f00000000000000000000000000000000000000000000000000000000000000006117bf565b7fbdfca8f7d6c94408e5403a9ee9a2e1a7dcd9090f5bac87da6e65494d80383bfa3382604051610cba9291906123cf565b60405180910390a15050505050565b610cdb610cd46110a5565b8383611966565b5050565b610cf0610cea6110a5565b83611166565b610d2f576040517f08c379a0000000000000000000000000000000000000000000000000000000008152600401610d2690612a89565b60405180910390fd5b610d3b84848484611ad2565b50505050565b6060600a60008381526020019081526020016000208054610d61906128c2565b80601f0160208091040260200160405190810160405280929190818152602001828054610d8d906128c2565b8015610dda5780601f10610daf57610100808354040283529160200191610dda565b820191906000526020600020905b815481529060010190602001808311610dbd57829003601f168201915b50505050509050919050565b610dee61153b565b6000610dfa600961177d565b9050610e06600961178b565b610e1083826117a1565b81600a60008381526020019081526020016000209081610e309190612f4f565b50610e5c81847f00000000000000000000000000000000000000000000000000000000000000006117bf565b505050565b6000600760008473ffffffffffffffffffffffffffffffffffffffff1673ffffffffffffffffffffffffffffffffffffffff16815260200190815260200160002060008373ffffffffffffffffffffffffffffffffffffffff1673ffffffffffffffffffffffffffffffffffffffff16815260200190815260200160002060009054906101000a900460ff16905092915050565b610efd61153b565b600073ffffffffffffffffffffffffffffffffffffffff168173ffffffffffffffffffffffffffffffffffffffff1603610f6c576040517f08c379a0000000000000000000000000000000000000000000000000000000008152600401610f6390613093565b60405180910390fd5b610f75816115b9565b50565b60007f80ac58cd000000000000000000000000000000000000000000000000000000007bffffffffffffffffffffffffffffffffffffffffffffffffffffffff1916827bffffffffffffffffffffffffffffffffffffffffffffffffffffffff1916148061104357507f5b5e139f000000000000000000000000000000000000000000000000000000007bffffffffffffffffffffffffffffffffffffffffffffffffffffffff1916827bffffffffffffffffffffffffffffffffffffffffffffffffffffffff1916145b80611053575061105282611b2e565b5b9050919050565b61106381611ba8565b6110a2576040517f08c379a000000000000000000000000000000000000000000000000000000000815260040161109990612bc6565b60405180910390fd5b50565b600033905090565b816006600083815260200190815260200160002060006101000a81548173ffffffffffffffffffffffffffffffffffffffff021916908373ffffffffffffffffffffffffffffffffffffffff160217905550808273ffffffffffffffffffffffffffffffffffffffff1661112083610861565b73ffffffffffffffffffffffffffffffffffffffff167f8c5be1e5ebec7d5bd14f71427d1e84f3dd0314c0f7b2291e5b200ac8c7c3b92560405160405180910390a45050565b60008061117283610861565b90508073ffffffffffffffffffffffffffffffffffffffff168473ffffffffffffffffffffffffffffffffffffffff1614806111b457506111b38185610e61565b5b806111f257508373ffffffffffffffffffffffffffffffffffffffff166111da8461049a565b73ffffffffffffffffffffffffffffffffffffffff16145b91505092915050565b8273ffffffffffffffffffffffffffffffffffffffff1661121b82610861565b73ffffffffffffffffffffffffffffffffffffffff1614611271576040517f08c379a000000000000000000000000000000000000000000000000000000000815260040161126890613125565b60405180910390fd5b600073ffffffffffffffffffffffffffffffffffffffff168273ffffffffffffffffffffffffffffffffffffffff16036112e0576040517f08c379a00000000000000000000000000000000000000000000000000000000081526004016112d7906131b7565b60405180910390fd5b6112ed8383836001611be9565b8273ffffffffffffffffffffffffffffffffffffffff1661130d82610861565b73ffffffffffffffffffffffffffffffffffffffff1614611363576040517f08c379a000000000000000000000000000000000000000000000000000000000815260040161135a90613125565b60405180910390fd5b6006600082815260200190815260200160002060006101000a81549073ffffffffffffffffffffffffffffffffffffffff02191690556001600560008573ffffffffffffffffffffffffffffffffffffffff1673ffffffffffffffffffffffffffffffffffffffff168152602001908152602001600020600082825403925050819055506001600560008473ffffffffffffffffffffffffffffffffffffffff1673ffffffffffffffffffffffffffffffffffffffff16815260200190815260200160002060008282540192505081905550816004600083815260200190815260200160002060006101000a81548173ffffffffffffffffffffffffffffffffffffffff021916908373ffffffffffffffffffffffffffffffffffffffff160217905550808273ffffffffffffffffffffffffffffffffffffffff168473ffffffffffffffffffffffffffffffffffffffff167fddf252ad1be2c89b69c2b068fc378daa952ba7f163c4a11628f55a4df523b3ef60405160405180910390a46114ef8383836001611bef565b505050565b6000612710905090565b60006004600083815260200190815260200160002060009054906101000a900473ffffffffffffffffffffffffffffffffffffffff169050919050565b6115436110a5565b73ffffffffffffffffffffffffffffffffffffffff166115616109f7565b73ffffffffffffffffffffffffffffffffffffffff16146115b7576040517f08c379a00000000000000000000000000000000000000000000000000000000081526004016115ae90613223565b60405180910390fd5b565b6000600860009054906101000a900473ffffffffffffffffffffffffffffffffffffffff16905081600860006101000a81548173ffffffffffffffffffffffffffffffffffffffff021916908373ffffffffffffffffffffffffffffffffffffffff1602179055508173ffffffffffffffffffffffffffffffffffffffff168173ffffffffffffffffffffffffffffffffffffffff167f8be0079c531659141344cd1fd0a4f28419497f9722a3daafe3b4186f6b6457e060405160405180910390a35050565b6000808233306040516020016116979392919061328b565b6040516020818303038152906040528051906020012090506001816040516020016116c29190613331565b60405160208183030381529060405280519060200120868887604051600081526020016040526040516116f89493929190613375565b6020604051602081039080840390855afa15801561171a573d6000803e3d6000fd5b5050506020604051035173ffffffffffffffffffffffffffffffffffffffff167f000000000000000000000000000000000000000000000000000000000000000073ffffffffffffffffffffffffffffffffffffffff1614915050949350505050565b600081600001549050919050565b6001816000016000828254019250508190555050565b6117bb828260405180602001604052806000815250611bf5565b5050565b6117c76114f4565b6bffffffffffffffffffffffff16816bffffffffffffffffffffffff161115611825576040517f08c379a000000000000000000000000000000000000000000000000000000000815260040161181c9061342c565b60405180910390fd5b600073ffffffffffffffffffffffffffffffffffffffff168273ffffffffffffffffffffffffffffffffffffffff1603611894576040517f08c379a000000000000000000000000000000000000000000000000000000000815260040161188b90613498565b60405180910390fd5b60405180604001604052808373ffffffffffffffffffffffffffffffffffffffff168152602001826bffffffffffffffffffffffff168152506001600085815260200190815260200160002060008201518160000160006101000a81548173ffffffffffffffffffffffffffffffffffffffff021916908373ffffffffffffffffffffffffffffffffffffffff16021790555060208201518160000160146101000a8154816bffffffffffffffffffffffff02191690836bffffffffffffffffffffffff160217905550905050505050565b8173ffffffffffffffffffffffffffffffffffffffff168373ffffffffffffffffffffffffffffffffffffffff16036119d4576040517f08c379a00000000000000000000000000000000000000000000000000000000081526004016119cb90613504565b60405180910390fd5b80600760008573ffffffffffffffffffffffffffffffffffffffff1673ffffffffffffffffffffffffffffffffffffffff16815260200190815260200160002060008473ffffffffffffffffffffffffffffffffffffffff1673ffffffffffffffffffffffffffffffffffffffff16815260200190815260200160002060006101000a81548160ff0219169083151502179055508173ffffffffffffffffffffffffffffffffffffffff168373ffffffffffffffffffffffffffffffffffffffff167f17307eab39ab6107e8899845ad3d59bd9653f200f220920489ca2b5937696c3183604051611ac59190612135565b60405180910390a3505050565b611add8484846111fb565b611ae984848484611c50565b611b28576040517f08c379a0000000000000000000000000000000000000000000000000000000008152600401611b1f90613596565b60405180910390fd5b50505050565b60007f2a55205a000000000000000000000000000000000000000000000000000000007bffffffffffffffffffffffffffffffffffffffffffffffffffffffff1916827bffffffffffffffffffffffffffffffffffffffffffffffffffffffff19161480611ba15750611ba082611dd7565b5b9050919050565b60008073ffffffffffffffffffffffffffffffffffffffff16611bca836114fe565b73ffffffffffffffffffffffffffffffffffffffff1614159050919050565b50505050565b50505050565b611bff8383611e41565b611c0c6000848484611c50565b611c4b576040517f08c379a0000000000000000000000000000000000000000000000000000000008152600401611c4290613596565b60405180910390fd5b505050565b6000611c718473ffffffffffffffffffffffffffffffffffffffff1661205e565b15611dca578373ffffffffffffffffffffffffffffffffffffffff1663150b7a02611c9a6110a5565b8786866040518563ffffffff1660e01b8152600401611cbc949392919061360b565b6020604051808303816000875af1925050508015611cf857506040513d601f19601f82011682018060405250810190611cf5919061366c565b60015b611d7a573d8060008114611d28576040519150601f19603f3d011682016040523d82523d6000602084013e611d2d565b606091505b506000815103611d72576040517f08c379a0000000000000000000000000000000000000000000000000000000008152600401611d6990613596565b60405180910390fd5b805181602001fd5b63150b7a0260e01b7bffffffffffffffffffffffffffffffffffffffffffffffffffffffff1916817bffffffffffffffffffffffffffffffffffffffffffffffffffffffff191614915050611dcf565b600190505b949350505050565b60007f01ffc9a7000000000000000000000000000000000000000000000000000000007bffffffffffffffffffffffffffffffffffffffffffffffffffffffff1916827bffffffffffffffffffffffffffffffffffffffffffffffffffffffff1916149050919050565b600073ffffffffffffffffffffffffffffffffffffffff168273ffffffffffffffffffffffffffffffffffffffff1603611eb0576040517f08c379a0000000000000000000000000000000000000000000000000000000008152600401611ea7906136e5565b60405180910390fd5b611eb981611ba8565b15611ef9576040517f08c379a0000000000000000000000000000000000000000000000000000000008152600401611ef090613751565b60405180910390fd5b611f07600083836001611be9565b611f1081611ba8565b15611f50576040517f08c379a0000000000000000000000000000000000000000000000000000000008152600401611f4790613751565b60405180910390fd5b6001600560008473ffffffffffffffffffffffffffffffffffffffff1673ffffffffffffffffffffffffffffffffffffffff16815260200190815260200160002060008282540192505081905550816004600083815260200190815260200160002060006101000a81548173ffffffffffffffffffffffffffffffffffffffff021916908373ffffffffffffffffffffffffffffffffffffffff160217905550808273ffffffffffffffffffffffffffffffffffffffff16600073ffffffffffffffffffffffffffffffffffffffff167fddf252ad1be2c89b69c2b068fc378daa952ba7f163c4a11628f55a4df523b3ef60405160405180910390a461205a600083836001611bef565b5050565b6000808273ffffffffffffffffffffffffffffffffffffffff163b119050919050565b6000604051905090565b600080fd5b600080fd5b60007fffffffff0000000000000000000000000000000000000000000000000000000082169050919050565b6120ca81612095565b81146120d557600080fd5b50565b6000813590506120e7816120c1565b92915050565b6000602082840312156121035761210261208b565b5b6000612111848285016120d8565b91505092915050565b60008115159050919050565b61212f8161211a565b82525050565b600060208201905061214a6000830184612126565b92915050565b600081519050919050565b600082825260208201905092915050565b60005b8381101561218a57808201518184015260208101905061216f565b60008484015250505050565b6000601f19601f8301169050919050565b60006121b282612150565b6121bc818561215b565b93506121cc81856020860161216c565b6121d581612196565b840191505092915050565b600060208201905081810360008301526121fa81846121a7565b905092915050565b6000819050919050565b61221581612202565b811461222057600080fd5b50565b6000813590506122328161220c565b92915050565b60006020828403121561224e5761224d61208b565b5b600061225c84828501612223565b91505092915050565b600073ffffffffffffffffffffffffffffffffffffffff82169050919050565b600061229082612265565b9050919050565b6122a081612285565b82525050565b60006020820190506122bb6000830184612297565b92915050565b6122ca81612285565b81146122d557600080fd5b50565b6000813590506122e7816122c1565b92915050565b600080604083850312156123045761230361208b565b5b6000612312858286016122d8565b925050602061232385828601612223565b9150509250929050565b6000806000606084860312156123465761234561208b565b5b6000612354868287016122d8565b9350506020612365868287016122d8565b925050604061237686828701612223565b9150509250925092565b600080604083850312156123975761239661208b565b5b60006123a585828601612223565b92505060206123b685828601612223565b9150509250929050565b6123c981612202565b82525050565b60006040820190506123e46000830185612297565b6123f160208301846123c0565b9392505050565b600080fd5b600080fd5b7f4e487b7100000000000000000000000000000000000000000000000000000000600052604160045260246000fd5b61243a82612196565b810181811067ffffffffffffffff8211171561245957612458612402565b5b80604052505050565b600061246c612081565b90506124788282612431565b919050565b600067ffffffffffffffff82111561249857612497612402565b5b6124a182612196565b9050602081019050919050565b82818337600083830152505050565b60006124d06124cb8461247d565b612462565b9050828152602081018484840111156124ec576124eb6123fd565b5b6124f78482856124ae565b509392505050565b600082601f830112612514576125136123f8565b5b81356125248482602086016124bd565b91505092915050565b600080604083850312156125445761254361208b565b5b6000612552858286016122d8565b925050602083013567ffffffffffffffff81111561257357612572612090565b5b61257f858286016124ff565b9150509250929050565b60006020828403121561259f5761259e61208b565b5b60006125ad848285016122d8565b91505092915050565b60006020820190506125cb60008301846123c0565b92915050565b6000819050919050565b6125e4816125d1565b81146125ef57600080fd5b50565b600081359050612601816125db565b92915050565b600060ff82169050919050565b61261d81612607565b811461262857600080fd5b50565b60008135905061263a81612614565b92915050565b6000806000806080858703121561265a5761265961208b565b5b6000612668878288016125f2565b94505060206126798782880161262b565b935050604061268a878288016125f2565b925050606085013567ffffffffffffffff8111156126ab576126aa612090565b5b6126b7878288016124ff565b91505092959194509250565b6126cc8161211a565b81146126d757600080fd5b50565b6000813590506126e9816126c3565b92915050565b600080604083850312156127065761270561208b565b5b6000612714858286016122d8565b9250506020612725858286016126da565b9150509250929050565b600067ffffffffffffffff82111561274a57612749612402565b5b61275382612196565b9050602081019050919050565b600061277361276e8461272f565b612462565b90508281526020810184848401111561278f5761278e6123fd565b5b61279a8482856124ae565b509392505050565b600082601f8301126127b7576127b66123f8565b5b81356127c7848260208601612760565b91505092915050565b600080600080608085870312156127ea576127e961208b565b5b60006127f8878288016122d8565b9450506020612809878288016122d8565b935050604061281a87828801612223565b925050606085013567ffffffffffffffff81111561283b5761283a612090565b5b612847878288016127a2565b91505092959194509250565b6000806040838503121561286a5761286961208b565b5b6000612878858286016122d8565b9250506020612889858286016122d8565b9150509250929050565b7f4e487b7100000000000000000000000000000000000000000000000000000000600052602260045260246000fd5b600060028204905060018216806128da57607f821691505b6020821081036128ed576128ec612893565b5b50919050565b7f4552433732313a20617070726f76616c20746f2063757272656e74206f776e6560008201527f7200000000000000000000000000000000000000000000000000000000000000602082015250565b600061294f60218361215b565b915061295a826128f3565b604082019050919050565b6000602082019050818103600083015261297e81612942565b9050919050565b7f4552433732313a20617070726f76652063616c6c6572206973206e6f7420746f60008201527f6b656e206f776e6572206f7220617070726f76656420666f7220616c6c000000602082015250565b60006129e1603d8361215b565b91506129ec82612985565b604082019050919050565b60006020820190508181036000830152612a10816129d4565b9050919050565b7f4552433732313a2063616c6c6572206973206e6f7420746f6b656e206f776e6560008201527f72206f7220617070726f76656400000000000000000000000000000000000000602082015250565b6000612a73602d8361215b565b9150612a7e82612a17565b604082019050919050565b60006020820190508181036000830152612aa281612a66565b9050919050565b7f4e487b7100000000000000000000000000000000000000000000000000000000600052601160045260246000fd5b6000612ae382612202565b9150612aee83612202565b9250828202612afc81612202565b91508282048414831517612b1357612b12612aa9565b5b5092915050565b7f4e487b7100000000000000000000000000000000000000000000000000000000600052601260045260246000fd5b6000612b5482612202565b9150612b5f83612202565b925082612b6f57612b6e612b1a565b5b828204905092915050565b7f4552433732313a20696e76616c696420746f6b656e2049440000000000000000600082015250565b6000612bb060188361215b565b9150612bbb82612b7a565b602082019050919050565b60006020820190508181036000830152612bdf81612ba3565b9050919050565b7f4552433732313a2061646472657373207a65726f206973206e6f74206120766160008201527f6c6964206f776e65720000000000000000000000000000000000000000000000602082015250565b6000612c4260298361215b565b9150612c4d82612be6565b604082019050919050565b60006020820190508181036000830152612c7181612c35565b9050919050565b7f4552433732314d696e7461626c653a2057726f6e67207369676e617475726500600082015250565b6000612cae601f8361215b565b9150612cb982612c78565b602082019050919050565b60006020820190508181036000830152612cdd81612ca1565b9050919050565b600081905092915050565b6000612cfa82612150565b612d048185612ce4565b9350612d1481856020860161216c565b80840191505092915050565b6000612d2c8284612cef565b915081905092915050565b7f4552433732314d696e7461626c653a20416c7265616479206861766500000000600082015250565b6000612d6d601c8361215b565b9150612d7882612d37565b602082019050919050565b60006020820190508181036000830152612d9c81612d60565b9050919050565b60008190508160005260206000209050919050565b60006020601f8301049050919050565b600082821b905092915050565b600060088302612e057fffffffffffffffffffffffffffffffffffffffffffffffffffffffffffffffff82612dc8565b612e0f8683612dc8565b95508019841693508086168417925050509392505050565b6000819050919050565b6000612e4c612e47612e4284612202565b612e27565b612202565b9050919050565b6000819050919050565b612e6683612e31565b612e7a612e7282612e53565b848454612dd5565b825550505050565b600090565b612e8f612e82565b612e9a818484612e5d565b505050565b5b81811015612ebe57612eb3600082612e87565b600181019050612ea0565b5050565b601f821115612f0357612ed481612da3565b612edd84612db8565b81016020851015612eec578190505b612f00612ef885612db8565b830182612e9f565b50505b505050565b600082821c905092915050565b6000612f2660001984600802612f08565b1980831691505092915050565b6000612f3f8383612f15565b9150826002028217905092915050565b612f5882612150565b67ffffffffffffffff811115612f7157612f70612402565b5b612f7b82546128c2565b612f86828285612ec2565b600060209050601f831160018114612fb95760008415612fa7578287015190505b612fb18582612f33565b865550613019565b601f198416612fc786612da3565b60005b82811015612fef57848901518255600182019150602085019450602081019050612fca565b8683101561300c5784890151613008601f891682612f15565b8355505b6001600288020188555050505b505050505050565b7f4f776e61626c653a206e6577206f776e657220697320746865207a65726f206160008201527f6464726573730000000000000000000000000000000000000000000000000000602082015250565b600061307d60268361215b565b915061308882613021565b604082019050919050565b600060208201905081810360008301526130ac81613070565b9050919050565b7f4552433732313a207472616e736665722066726f6d20696e636f72726563742060008201527f6f776e6572000000000000000000000000000000000000000000000000000000602082015250565b600061310f60258361215b565b915061311a826130b3565b604082019050919050565b6000602082019050818103600083015261313e81613102565b9050919050565b7f4552433732313a207472616e7366657220746f20746865207a65726f2061646460008201527f7265737300000000000000000000000000000000000000000000000000000000602082015250565b60006131a160248361215b565b91506131ac82613145565b604082019050919050565b600060208201905081810360008301526131d081613194565b9050919050565b7f4f776e61626c653a2063616c6c6572206973206e6f7420746865206f776e6572600082015250565b600061320d60208361215b565b9150613218826131d7565b602082019050919050565b6000602082019050818103600083015261323c81613200565b9050919050565b60008160601b9050919050565b600061325b82613243565b9050919050565b600061326d82613250565b9050919050565b61328561328082612285565b613262565b82525050565b60006132978286612cef565b91506132a38285613274565b6014820191506132b38284613274565b601482019150819050949350505050565b7f19457468657265756d205369676e6564204d6573736167653a0a333200000000600082015250565b60006132fa601c83612ce4565b9150613305826132c4565b601c82019050919050565b6000819050919050565b61332b613326826125d1565b613310565b82525050565b600061333c826132ed565b9150613348828461331a565b60208201915081905092915050565b613360816125d1565b82525050565b61336f81612607565b82525050565b600060808201905061338a6000830187613357565b6133976020830186613366565b6133a46040830185613357565b6133b16060830184613357565b95945050505050565b7f455243323938313a20726f79616c7479206665652077696c6c2065786365656460008201527f2073616c65507269636500000000000000000000000000000000000000000000602082015250565b6000613416602a8361215b565b9150613421826133ba565b604082019050919050565b6000602082019050818103600083015261344581613409565b9050919050565b7f455243323938313a20496e76616c696420706172616d65746572730000000000600082015250565b6000613482601b8361215b565b915061348d8261344c565b602082019050919050565b600060208201905081810360008301526134b181613475565b9050919050565b7f4552433732313a20617070726f766520746f2063616c6c657200000000000000600082015250565b60006134ee60198361215b565b91506134f9826134b8565b602082019050919050565b6000602082019050818103600083015261351d816134e1565b9050919050565b7f4552433732313a207472616e7366657220746f206e6f6e20455243373231526560008201527f63656976657220696d706c656d656e7465720000000000000000000000000000602082015250565b600061358060328361215b565b915061358b82613524565b604082019050919050565b600060208201905081810360008301526135af81613573565b9050919050565b600081519050919050565b600082825260208201905092915050565b60006135dd826135b6565b6135e781856135c1565b93506135f781856020860161216c565b61360081612196565b840191505092915050565b60006080820190506136206000830187612297565b61362d6020830186612297565b61363a60408301856123c0565b818103606083015261364c81846135d2565b905095945050505050565b600081519050613666816120c1565b92915050565b6000602082840312156136825761368161208b565b5b600061369084828501613657565b91505092915050565b7f4552433732313a206d696e7420746f20746865207a65726f2061646472657373600082015250565b60006136cf60208361215b565b91506136da82613699565b602082019050919050565b600060208201905081810360008301526136fe816136c2565b9050919050565b7f4552433732313a20746f6b656e20616c7265616479206d696e74656400000000600082015250565b600061373b601c8361215b565b915061374682613705565b602082019050919050565b6000602082019050818103600083015261376a8161372e565b905091905056fea2646970667358221220451309bde37eb69b141050e249bb3a6980a2f20a85bdd4fc69888ca4dbaf7c8b64736f6c63430008110033",
  "linkReferences": {},
  "deployedLinkReferences": {}
}