{
  "_format": "hh-sol-artifact-1",
  "contractName": "ERC721DefaultRoyalty",
  "sourceName": "contracts/ERC721DefaultRoyalty.sol",
  "abi": [
    {
      "inputs": [
        {
          "internalType": "string",
          "name": "_name",
          "type": "string"
        },
        {
          "internalType": "string",
          "name": "_symbol",
          "type": "string"
        },
        {
          "internalType": "address",
          "name": "_signer",
          "type": "address"
        },
        {
          "internalType": "address",
          "name": "royaltyFeeCollector",
          "type": "address"
        },
        {
          "internalType": "uint96",
          "name": "fee",
          "type": "uint96"
        }
      ],
      "stateMutability": "nonpayable",
      "type": "constructor"
    },
    {
      "anonymous": false,
      "inputs": [
        {
          "indexed": true,
          "internalType": "address",
          "name": "owner",
          "type": "address"
        },
        {
          "indexed": true,
          "internalType": "address",
          "name": "approved",
          "type": "address"
        },
        {
          "indexed": true,
          "internalType": "uint256",
          "name": "tokenId",
          "type": "uint256"
        }
      ],
      "name": "Approval",
      "type": "event"
    },
    {
      "anonymous": false,
      "inputs": [
        {
          "indexed": true,
          "internalType": "address",
          "name": "owner",
          "type": "address"
        },
        {
          "indexed": true,
          "internalType": "address",
          "name": "operator",
          "type": "address"
        },
        {
          "indexed": false,
          "internalType": "bool",
          "name": "approved",
          "type": "bool"
        }
      ],
      "name": "ApprovalForAll",
      "type": "event"
    },
    {
      "anonymous": false,
      "inputs": [
        {
          "indexed": true,
          "internalType": "address",
          "name": "previousOwner",
          "type": "address"
        },
        {
          "indexed": true,
          "internalType": "address",
          "name": "newOwner",
          "type": "address"
        }
      ],
      "name": "OwnershipTransferred",
      "type": "event"
    },
    {
      "anonymous": false,
      "inputs": [
        {
          "indexed": false,
          "internalType": "address",
          "name": "sender",
          "type": "address"
        },
        {
          "indexed": false,
          "internalType": "uint256",
          "name": "ID",
          "type": "uint256"
        }
      ],
      "name": "SafeMintSigner",
      "type": "event"
    },
    {
      "anonymous": false,
      "inputs": [
        {
          "indexed": true,
          "internalType": "address",
          "name": "from",
          "type": "address"
        },
        {
          "indexed": true,
          "internalType": "address",
          "name": "to",
          "type": "address"
        },
        {
          "indexed": true,
          "internalType": "uint256",
          "name": "tokenId",
          "type": "uint256"
        }
      ],
      "name": "Transfer",
      "type": "event"
    },
    {
      "inputs": [
        {
          "internalType": "address",
          "name": "to",
          "type": "address"
        },
        {
          "internalType": "uint256",
          "name": "tokenId",
          "type": "uint256"
        }
      ],
      "name": "approve",
      "outputs": [],
      "stateMutability": "nonpayable",
      "type": "function"
    },
    {
      "inputs": [
        {
          "internalType": "address",
          "name": "owner",
          "type": "address"
        }
      ],
      "name": "balanceOf",
      "outputs": [
        {
          "internalType": "uint256",
          "name": "",
          "type": "uint256"
        }
      ],
      "stateMutability": "view",
      "type": "function"
    },
    {
      "inputs": [
        {
          "internalType": "uint256",
          "name": "tokenId",
          "type": "uint256"
        }
      ],
      "name": "getApproved",
      "outputs": [
        {
          "internalType": "address",
          "name": "",
          "type": "address"
        }
      ],
      "stateMutability": "view",
      "type": "function"
    },
    {
      "inputs": [
        {
          "internalType": "address",
          "name": "owner",
          "type": "address"
        },
        {
          "internalType": "address",
          "name": "operator",
          "type": "address"
        }
      ],
      "name": "isApprovedForAll",
      "outputs": [
        {
          "internalType": "bool",
          "name": "",
          "type": "bool"
        }
      ],
      "stateMutability": "view",
      "type": "function"
    },
    {
      "inputs": [],
      "name": "name",
      "outputs": [
        {
          "internalType": "string",
          "name": "",
          "type": "string"
        }
      ],
      "stateMutability": "view",
      "type": "function"
    },
    {
      "inputs": [],
      "name": "owner",
      "outputs": [
        {
          "internalType": "address",
          "name": "",
          "type": "address"
        }
      ],
      "stateMutability": "view",
      "type": "function"
    },
    {
      "inputs": [
        {
          "internalType": "address",
          "name": "",
          "type": "address"
        },
        {
          "internalType": "string",
          "name": "",
          "type": "string"
        }
      ],
      "name": "ownerHaveURI",
      "outputs": [
        {
          "internalType": "bool",
          "name": "",
          "type": "bool"
        }
      ],
      "stateMutability": "view",
      "type": "function"
    },
    {
      "inputs": [
        {
          "internalType": "uint256",
          "name": "tokenId",
          "type": "uint256"
        }
      ],
      "name": "ownerOf",
      "outputs": [
        {
          "internalType": "address",
          "name": "",
          "type": "address"
        }
      ],
      "stateMutability": "view",
      "type": "function"
    },
    {
      "inputs": [],
      "name": "renounceOwnership",
      "outputs": [],
      "stateMutability": "nonpayable",
      "type": "function"
    },
    {
      "inputs": [
        {
          "internalType": "uint256",
          "name": "_tokenId",
          "type": "uint256"
        },
        {
          "internalType": "uint256",
          "name": "_salePrice",
          "type": "uint256"
        }
      ],
      "name": "royaltyInfo",
      "outputs": [
        {
          "internalType": "address",
          "name": "",
          "type": "address"
        },
        {
          "internalType": "uint256",
          "name": "",
          "type": "uint256"
        }
      ],
      "stateMutability": "view",
      "type": "function"
    },
    {
      "inputs": [
        {
          "internalType": "address",
          "name": "to",
          "type": "address"
        },
        {
          "internalType": "string",
          "name": "uri",
          "type": "string"
        }
      ],
      "name": "safeMint",
      "outputs": [],
      "stateMutability": "nonpayable",
      "type": "function"
    },
    {
      "inputs": [
        {
          "internalType": "bytes32",
          "name": "r",
          "type": "bytes32"
        },
        {
          "internalType": "uint8",
          "name": "v",
          "type": "uint8"
        },
        {
          "internalType": "bytes32",
          "name": "s",
          "type": "bytes32"
        },
        {
          "internalType": "string",
          "name": "uri",
          "type": "string"
        }
      ],
      "name": "safeMintSigner",
      "outputs": [],
      "stateMutability": "nonpayable",
      "type": "function"
    },
    {
      "inputs": [
        {
          "internalType": "address",
          "name": "from",
          "type": "address"
        },
        {
          "internalType": "address",
          "name": "to",
          "type": "address"
        },
        {
          "internalType": "uint256",
          "name": "tokenId",
          "type": "uint256"
        }
      ],
      "name": "safeTransferFrom",
      "outputs": [],
      "stateMutability": "nonpayable",
      "type": "function"
    },
    {
      "inputs": [
        {
          "internalType": "address",
          "name": "from",
          "type": "address"
        },
        {
          "internalType": "address",
          "name": "to",
          "type": "address"
        },
        {
          "internalType": "uint256",
          "name": "tokenId",
          "type": "uint256"
        },
        {
          "internalType": "bytes",
          "name": "data",
          "type": "bytes"
        }
      ],
      "name": "safeTransferFrom",
      "outputs": [],
      "stateMutability": "nonpayable",
      "type": "function"
    },
    {
      "inputs": [
        {
          "internalType": "address",
          "name": "operator",
          "type": "address"
        },
        {
          "internalType": "bool",
          "name": "approved",
          "type": "bool"
        }
      ],
      "name": "setApprovalForAll",
      "outputs": [],
      "stateMutability": "nonpayable",
      "type": "function"
    },
    {
      "inputs": [
        {
          "internalType": "bytes4",
          "name": "interfaceId",
          "type": "bytes4"
        }
      ],
      "name": "supportsInterface",
      "outputs": [
        {
          "internalType": "bool",
          "name": "",
          "type": "bool"
        }
      ],
      "stateMutability": "view",
      "type": "function"
    },
    {
      "inputs": [],
      "name": "symbol",
      "outputs": [
        {
          "internalType": "string",
          "name": "",
          "type": "string"
        }
      ],
      "stateMutability": "view",
      "type": "function"
    },
    {
      "inputs": [
        {
          "internalType": "uint256",
          "name": "tokenId",
          "type": "uint256"
        }
      ],
      "name": "tokenURI",
      "outputs": [
        {
          "internalType": "string",
          "name": "",
          "type": "string"
        }
      ],
      "stateMutability": "view",
      "type": "function"
    },
    {
      "inputs": [
        {
          "internalType": "address",
          "name": "from",
          "type": "address"
        },
        {
          "internalType": "address",
          "name": "to",
          "type": "address"
        },
        {
          "internalType": "uint256",
          "name": "tokenId",
          "type": "uint256"
        }
      ],
      "name": "transferFrom",
      "outputs": [],
      "stateMutability": "nonpayable",
      "type": "function"
    },
    {
      "inputs": [
        {
          "internalType": "address",
          "name": "newOwner",
          "type": "address"
        }
      ],
      "name": "transferOwnership",
      "outputs": [],
      "stateMutability": "nonpayable",
      "type": "function"
    }
  ],
  "bytecode": "0x60a06040523480156200001157600080fd5b5060405162003f6638038062003f6683398181016040528101906200003791906200058b565b848481600290816200004a91906200089c565b5080600390816200005c91906200089c565b5050506200007f62000073620000d060201b60201c565b620000d860201b60201c565b8273ffffffffffffffffffffffffffffffffffffffff1660808173ffffffffffffffffffffffffffffffffffffffff1681525050620000c582826200019e60201b60201c565b505050505062000a9e565b600033905090565b6000600860009054906101000a900473ffffffffffffffffffffffffffffffffffffffff16905081600860006101000a81548173ffffffffffffffffffffffffffffffffffffffff021916908373ffffffffffffffffffffffffffffffffffffffff1602179055508173ffffffffffffffffffffffffffffffffffffffff168173ffffffffffffffffffffffffffffffffffffffff167f8be0079c531659141344cd1fd0a4f28419497f9722a3daafe3b4186f6b6457e060405160405180910390a35050565b620001ae6200034060201b60201c565b6bffffffffffffffffffffffff16816bffffffffffffffffffffffff1611156200020f576040517f08c379a0000000000000000000000000000000000000000000000000000000008152600401620002069062000a0a565b60405180910390fd5b600073ffffffffffffffffffffffffffffffffffffffff168273ffffffffffffffffffffffffffffffffffffffff160362000281576040517f08c379a0000000000000000000000000000000000000000000000000000000008152600401620002789062000a7c565b60405180910390fd5b60405180604001604052808373ffffffffffffffffffffffffffffffffffffffff168152602001826bffffffffffffffffffffffff168152506000808201518160000160006101000a81548173ffffffffffffffffffffffffffffffffffffffff021916908373ffffffffffffffffffffffffffffffffffffffff16021790555060208201518160000160146101000a8154816bffffffffffffffffffffffff02191690836bffffffffffffffffffffffff1602179055509050505050565b6000612710905090565b6000604051905090565b600080fd5b600080fd5b600080fd5b600080fd5b6000601f19601f8301169050919050565b7f4e487b7100000000000000000000000000000000000000000000000000000000600052604160045260246000fd5b620003b38262000368565b810181811067ffffffffffffffff82111715620003d557620003d462000379565b5b80604052505050565b6000620003ea6200034a565b9050620003f88282620003a8565b919050565b600067ffffffffffffffff8211156200041b576200041a62000379565b5b620004268262000368565b9050602081019050919050565b60005b838110156200045357808201518184015260208101905062000436565b60008484015250505050565b6000620004766200047084620003fd565b620003de565b90508281526020810184848401111562000495576200049462000363565b5b620004a284828562000433565b509392505050565b600082601f830112620004c257620004c16200035e565b5b8151620004d48482602086016200045f565b91505092915050565b600073ffffffffffffffffffffffffffffffffffffffff82169050919050565b60006200050a82620004dd565b9050919050565b6200051c81620004fd565b81146200052857600080fd5b50565b6000815190506200053c8162000511565b92915050565b60006bffffffffffffffffffffffff82169050919050565b620005658162000542565b81146200057157600080fd5b50565b60008151905062000585816200055a565b92915050565b600080600080600060a08688031215620005aa57620005a962000354565b5b600086015167ffffffffffffffff811115620005cb57620005ca62000359565b5b620005d988828901620004aa565b955050602086015167ffffffffffffffff811115620005fd57620005fc62000359565b5b6200060b88828901620004aa565b94505060406200061e888289016200052b565b935050606062000631888289016200052b565b9250506080620006448882890162000574565b9150509295509295909350565b600081519050919050565b7f4e487b7100000000000000000000000000000000000000000000000000000000600052602260045260246000fd5b60006002820490506001821680620006a457607f821691505b602082108103620006ba57620006b96200065c565b5b50919050565b60008190508160005260206000209050919050565b60006020601f8301049050919050565b600082821b905092915050565b600060088302620007247fffffffffffffffffffffffffffffffffffffffffffffffffffffffffffffffff82620006e5565b620007308683620006e5565b95508019841693508086168417925050509392505050565b6000819050919050565b6000819050919050565b60006200077d62000777620007718462000748565b62000752565b62000748565b9050919050565b6000819050919050565b62000799836200075c565b620007b1620007a88262000784565b848454620006f2565b825550505050565b600090565b620007c8620007b9565b620007d58184846200078e565b505050565b5b81811015620007fd57620007f1600082620007be565b600181019050620007db565b5050565b601f8211156200084c576200081681620006c0565b6200082184620006d5565b8101602085101562000831578190505b620008496200084085620006d5565b830182620007da565b50505b505050565b600082821c905092915050565b6000620008716000198460080262000851565b1980831691505092915050565b60006200088c83836200085e565b9150826002028217905092915050565b620008a78262000651565b67ffffffffffffffff811115620008c357620008c262000379565b5b620008cf82546200068b565b620008dc82828562000801565b600060209050601f831160018114620009145760008415620008ff578287015190505b6200090b85826200087e565b8655506200097b565b601f1984166200092486620006c0565b60005b828110156200094e5784890151825560018201915060208501945060208101905062000927565b868310156200096e57848901516200096a601f8916826200085e565b8355505b6001600288020188555050505b505050505050565b600082825260208201905092915050565b7f455243323938313a20726f79616c7479206665652077696c6c2065786365656460008201527f2073616c65507269636500000000000000000000000000000000000000000000602082015250565b6000620009f2602a8362000983565b9150620009ff8262000994565b604082019050919050565b6000602082019050818103600083015262000a2581620009e3565b9050919050565b7f455243323938313a20696e76616c696420726563656976657200000000000000600082015250565b600062000a6460198362000983565b915062000a718262000a2c565b602082019050919050565b6000602082019050818103600083015262000a978162000a55565b9050919050565b6080516134ac62000aba60003960006116e601526134ac6000f3fe608060405234801561001057600080fd5b506004361061012c5760003560e01c8063715018a6116100ad578063b88d4fde11610071578063b88d4fde14610342578063c87b56dd1461035e578063d204c45e1461038e578063e985e9c5146103aa578063f2fde38b146103da5761012c565b8063715018a6146102c45780638da5cb5b146102ce57806395d89b41146102ec578063a149f6dc1461030a578063a22cb465146103265761012c565b80632a55205a116100f45780632a55205a146101e757806342842e0e146102185780636352211e146102345780636f8335eb1461026457806370a08231146102945761012c565b806301ffc9a71461013157806306fdde0314610161578063081812fc1461017f578063095ea7b3146101af57806323b872dd146101cb575b600080fd5b61014b60048036038101906101469190611ef0565b6103f6565b6040516101589190611f38565b60405180910390f35b610169610408565b6040516101769190611fe3565b60405180910390f35b6101996004803603810190610194919061203b565b61049a565b6040516101a691906120a9565b60405180910390f35b6101c960048036038101906101c491906120f0565b6104e0565b005b6101e560048036038101906101e09190612130565b6105f7565b005b61020160048036038101906101fc9190612183565b610657565b60405161020f9291906121d2565b60405180910390f35b610232600480360381019061022d9190612130565b610841565b005b61024e6004803603810190610249919061203b565b610861565b60405161025b91906120a9565b60405180910390f35b61027e60048036038101906102799190612330565b6108e7565b60405161028b9190611f38565b60405180910390f35b6102ae60048036038101906102a9919061238c565b61092c565b6040516102bb91906123b9565b60405180910390f35b6102cc6109e3565b005b6102d66109f7565b6040516102e391906120a9565b60405180910390f35b6102f4610a21565b6040516103019190611fe3565b60405180910390f35b610324600480360381019061031f9190612443565b610ab3565b005b610340600480360381019061033b91906124f2565b610c9e565b005b61035c600480360381019061035791906125d3565b610cb4565b005b6103786004803603810190610373919061203b565b610d16565b6040516103859190611fe3565b60405180910390f35b6103a860048036038101906103a39190612330565b610dbb565b005b6103c460048036038101906103bf9190612656565b610e0b565b6040516103d19190611f38565b60405180910390f35b6103f460048036038101906103ef919061238c565b610e9f565b005b600061040182610f22565b9050919050565b606060028054610417906126c5565b80601f0160208091040260200160405190810160405280929190818152602001828054610443906126c5565b80156104905780601f1061046557610100808354040283529160200191610490565b820191906000526020600020905b81548152906001019060200180831161047357829003601f168201915b5050505050905090565b60006104a582611004565b6006600083815260200190815260200160002060009054906101000a900473ffffffffffffffffffffffffffffffffffffffff169050919050565b60006104eb82610861565b90508073ffffffffffffffffffffffffffffffffffffffff168373ffffffffffffffffffffffffffffffffffffffff160361055b576040517f08c379a000000000000000000000000000000000000000000000000000000000815260040161055290612768565b60405180910390fd5b8073ffffffffffffffffffffffffffffffffffffffff1661057a61104f565b73ffffffffffffffffffffffffffffffffffffffff1614806105a957506105a8816105a361104f565b610e0b565b5b6105e8576040517f08c379a00000000000000000000000000000000000000000000000000000000081526004016105df906127fa565b60405180910390fd5b6105f28383611057565b505050565b61060861060261104f565b82611110565b610647576040517f08c379a000000000000000000000000000000000000000000000000000000000815260040161063e9061288c565b60405180910390fd5b6106528383836111a5565b505050565b6000806000600160008681526020019081526020016000206040518060400160405290816000820160009054906101000a900473ffffffffffffffffffffffffffffffffffffffff1673ffffffffffffffffffffffffffffffffffffffff1673ffffffffffffffffffffffffffffffffffffffff1681526020016000820160149054906101000a90046bffffffffffffffffffffffff166bffffffffffffffffffffffff166bffffffffffffffffffffffff16815250509050600073ffffffffffffffffffffffffffffffffffffffff16816000015173ffffffffffffffffffffffffffffffffffffffff16036107ec5760006040518060400160405290816000820160009054906101000a900473ffffffffffffffffffffffffffffffffffffffff1673ffffffffffffffffffffffffffffffffffffffff1673ffffffffffffffffffffffffffffffffffffffff1681526020016000820160149054906101000a90046bffffffffffffffffffffffff166bffffffffffffffffffffffff166bffffffffffffffffffffffff168152505090505b60006107f661149e565b6bffffffffffffffffffffffff1682602001516bffffffffffffffffffffffff168661082291906128db565b61082c919061294c565b90508160000151819350935050509250929050565b61085c83838360405180602001604052806000815250610cb4565b505050565b60008061086d836114a8565b9050600073ffffffffffffffffffffffffffffffffffffffff168173ffffffffffffffffffffffffffffffffffffffff16036108de576040517f08c379a00000000000000000000000000000000000000000000000000000000081526004016108d5906129c9565b60405180910390fd5b80915050919050565b600b602052816000526040600020818051602081018201805184825260208301602085012081835280955050505050506000915091509054906101000a900460ff1681565b60008073ffffffffffffffffffffffffffffffffffffffff168273ffffffffffffffffffffffffffffffffffffffff160361099c576040517f08c379a000000000000000000000000000000000000000000000000000000000815260040161099390612a5b565b60405180910390fd5b600560008373ffffffffffffffffffffffffffffffffffffffff1673ffffffffffffffffffffffffffffffffffffffff168152602001908152602001600020549050919050565b6109eb6114e5565b6109f56000611563565b565b6000600860009054906101000a900473ffffffffffffffffffffffffffffffffffffffff16905090565b606060038054610a30906126c5565b80601f0160208091040260200160405190810160405280929190818152602001828054610a5c906126c5565b8015610aa95780601f10610a7e57610100808354040283529160200191610aa9565b820191906000526020600020905b815481529060010190602001808311610a8c57829003601f168201915b5050505050905090565b610abf84848484611629565b610afe576040517f08c379a0000000000000000000000000000000000000000000000000000000008152600401610af590612ac7565b60405180910390fd5b600b60003373ffffffffffffffffffffffffffffffffffffffff1673ffffffffffffffffffffffffffffffffffffffff16815260200190815260200160002081604051610b4b9190612b23565b908152602001604051809103902060009054906101000a900460ff1615610ba7576040517f08c379a0000000000000000000000000000000000000000000000000000000008152600401610b9e90612b86565b60405180910390fd5b6000610bb36009611727565b9050610bbf6009611735565b610bc9338261174b565b81600a60008381526020019081526020016000209081610be99190612d52565b506001600b60003373ffffffffffffffffffffffffffffffffffffffff1673ffffffffffffffffffffffffffffffffffffffff16815260200190815260200160002083604051610c399190612b23565b908152602001604051809103902060006101000a81548160ff0219169083151502179055507fbdfca8f7d6c94408e5403a9ee9a2e1a7dcd9090f5bac87da6e65494d80383bfa3382604051610c8f9291906121d2565b60405180910390a15050505050565b610cb0610ca961104f565b8383611769565b5050565b610cc5610cbf61104f565b83611110565b610d04576040517f08c379a0000000000000000000000000000000000000000000000000000000008152600401610cfb9061288c565b60405180910390fd5b610d10848484846118d5565b50505050565b6060600a60008381526020019081526020016000208054610d36906126c5565b80601f0160208091040260200160405190810160405280929190818152602001828054610d62906126c5565b8015610daf5780601f10610d8457610100808354040283529160200191610daf565b820191906000526020600020905b815481529060010190602001808311610d9257829003601f168201915b50505050509050919050565b610dc36114e5565b6000610dcf6009611727565b9050610ddb6009611735565b610de5838261174b565b81600a60008381526020019081526020016000209081610e059190612d52565b50505050565b6000600760008473ffffffffffffffffffffffffffffffffffffffff1673ffffffffffffffffffffffffffffffffffffffff16815260200190815260200160002060008373ffffffffffffffffffffffffffffffffffffffff1673ffffffffffffffffffffffffffffffffffffffff16815260200190815260200160002060009054906101000a900460ff16905092915050565b610ea76114e5565b600073ffffffffffffffffffffffffffffffffffffffff168173ffffffffffffffffffffffffffffffffffffffff1603610f16576040517f08c379a0000000000000000000000000000000000000000000000000000000008152600401610f0d90612e96565b60405180910390fd5b610f1f81611563565b50565b60007f80ac58cd000000000000000000000000000000000000000000000000000000007bffffffffffffffffffffffffffffffffffffffffffffffffffffffff1916827bffffffffffffffffffffffffffffffffffffffffffffffffffffffff19161480610fed57507f5b5e139f000000000000000000000000000000000000000000000000000000007bffffffffffffffffffffffffffffffffffffffffffffffffffffffff1916827bffffffffffffffffffffffffffffffffffffffffffffffffffffffff1916145b80610ffd5750610ffc82611931565b5b9050919050565b61100d816119ab565b61104c576040517f08c379a0000000000000000000000000000000000000000000000000000000008152600401611043906129c9565b60405180910390fd5b50565b600033905090565b816006600083815260200190815260200160002060006101000a81548173ffffffffffffffffffffffffffffffffffffffff021916908373ffffffffffffffffffffffffffffffffffffffff160217905550808273ffffffffffffffffffffffffffffffffffffffff166110ca83610861565b73ffffffffffffffffffffffffffffffffffffffff167f8c5be1e5ebec7d5bd14f71427d1e84f3dd0314c0f7b2291e5b200ac8c7c3b92560405160405180910390a45050565b60008061111c83610861565b90508073ffffffffffffffffffffffffffffffffffffffff168473ffffffffffffffffffffffffffffffffffffffff16148061115e575061115d8185610e0b565b5b8061119c57508373ffffffffffffffffffffffffffffffffffffffff166111848461049a565b73ffffffffffffffffffffffffffffffffffffffff16145b91505092915050565b8273ffffffffffffffffffffffffffffffffffffffff166111c582610861565b73ffffffffffffffffffffffffffffffffffffffff161461121b576040517f08c379a000000000000000000000000000000000000000000000000000000000815260040161121290612f28565b60405180910390fd5b600073ffffffffffffffffffffffffffffffffffffffff168273ffffffffffffffffffffffffffffffffffffffff160361128a576040517f08c379a000000000000000000000000000000000000000000000000000000000815260040161128190612fba565b60405180910390fd5b61129783838360016119ec565b8273ffffffffffffffffffffffffffffffffffffffff166112b782610861565b73ffffffffffffffffffffffffffffffffffffffff161461130d576040517f08c379a000000000000000000000000000000000000000000000000000000000815260040161130490612f28565b60405180910390fd5b6006600082815260200190815260200160002060006101000a81549073ffffffffffffffffffffffffffffffffffffffff02191690556001600560008573ffffffffffffffffffffffffffffffffffffffff1673ffffffffffffffffffffffffffffffffffffffff168152602001908152602001600020600082825403925050819055506001600560008473ffffffffffffffffffffffffffffffffffffffff1673ffffffffffffffffffffffffffffffffffffffff16815260200190815260200160002060008282540192505081905550816004600083815260200190815260200160002060006101000a81548173ffffffffffffffffffffffffffffffffffffffff021916908373ffffffffffffffffffffffffffffffffffffffff160217905550808273ffffffffffffffffffffffffffffffffffffffff168473ffffffffffffffffffffffffffffffffffffffff167fddf252ad1be2c89b69c2b068fc378daa952ba7f163c4a11628f55a4df523b3ef60405160405180910390a461149983838360016119f2565b505050565b6000612710905090565b60006004600083815260200190815260200160002060009054906101000a900473ffffffffffffffffffffffffffffffffffffffff169050919050565b6114ed61104f565b73ffffffffffffffffffffffffffffffffffffffff1661150b6109f7565b73ffffffffffffffffffffffffffffffffffffffff1614611561576040517f08c379a000000000000000000000000000000000000000000000000000000000815260040161155890613026565b60405180910390fd5b565b6000600860009054906101000a900473ffffffffffffffffffffffffffffffffffffffff16905081600860006101000a81548173ffffffffffffffffffffffffffffffffffffffff021916908373ffffffffffffffffffffffffffffffffffffffff1602179055508173ffffffffffffffffffffffffffffffffffffffff168173ffffffffffffffffffffffffffffffffffffffff167f8be0079c531659141344cd1fd0a4f28419497f9722a3daafe3b4186f6b6457e060405160405180910390a35050565b6000808233306040516020016116419392919061308e565b60405160208183030381529060405280519060200120905060018160405160200161166c9190613134565b60405160208183030381529060405280519060200120868887604051600081526020016040526040516116a29493929190613178565b6020604051602081039080840390855afa1580156116c4573d6000803e3d6000fd5b5050506020604051035173ffffffffffffffffffffffffffffffffffffffff167f000000000000000000000000000000000000000000000000000000000000000073ffffffffffffffffffffffffffffffffffffffff1614915050949350505050565b600081600001549050919050565b6001816000016000828254019250508190555050565b6117658282604051806020016040528060008152506119f8565b5050565b8173ffffffffffffffffffffffffffffffffffffffff168373ffffffffffffffffffffffffffffffffffffffff16036117d7576040517f08c379a00000000000000000000000000000000000000000000000000000000081526004016117ce90613209565b60405180910390fd5b80600760008573ffffffffffffffffffffffffffffffffffffffff1673ffffffffffffffffffffffffffffffffffffffff16815260200190815260200160002060008473ffffffffffffffffffffffffffffffffffffffff1673ffffffffffffffffffffffffffffffffffffffff16815260200190815260200160002060006101000a81548160ff0219169083151502179055508173ffffffffffffffffffffffffffffffffffffffff168373ffffffffffffffffffffffffffffffffffffffff167f17307eab39ab6107e8899845ad3d59bd9653f200f220920489ca2b5937696c31836040516118c89190611f38565b60405180910390a3505050565b6118e08484846111a5565b6118ec84848484611a53565b61192b576040517f08c379a00000000000000000000000000000000000000000000000000000000081526004016119229061329b565b60405180910390fd5b50505050565b60007f2a55205a000000000000000000000000000000000000000000000000000000007bffffffffffffffffffffffffffffffffffffffffffffffffffffffff1916827bffffffffffffffffffffffffffffffffffffffffffffffffffffffff191614806119a457506119a382611bda565b5b9050919050565b60008073ffffffffffffffffffffffffffffffffffffffff166119cd836114a8565b73ffffffffffffffffffffffffffffffffffffffff1614159050919050565b50505050565b50505050565b611a028383611c44565b611a0f6000848484611a53565b611a4e576040517f08c379a0000000000000000000000000000000000000000000000000000000008152600401611a459061329b565b60405180910390fd5b505050565b6000611a748473ffffffffffffffffffffffffffffffffffffffff16611e61565b15611bcd578373ffffffffffffffffffffffffffffffffffffffff1663150b7a02611a9d61104f565b8786866040518563ffffffff1660e01b8152600401611abf9493929190613310565b6020604051808303816000875af1925050508015611afb57506040513d601f19601f82011682018060405250810190611af89190613371565b60015b611b7d573d8060008114611b2b576040519150601f19603f3d011682016040523d82523d6000602084013e611b30565b606091505b506000815103611b75576040517f08c379a0000000000000000000000000000000000000000000000000000000008152600401611b6c9061329b565b60405180910390fd5b805181602001fd5b63150b7a0260e01b7bffffffffffffffffffffffffffffffffffffffffffffffffffffffff1916817bffffffffffffffffffffffffffffffffffffffffffffffffffffffff191614915050611bd2565b600190505b949350505050565b60007f01ffc9a7000000000000000000000000000000000000000000000000000000007bffffffffffffffffffffffffffffffffffffffffffffffffffffffff1916827bffffffffffffffffffffffffffffffffffffffffffffffffffffffff1916149050919050565b600073ffffffffffffffffffffffffffffffffffffffff168273ffffffffffffffffffffffffffffffffffffffff1603611cb3576040517f08c379a0000000000000000000000000000000000000000000000000000000008152600401611caa906133ea565b60405180910390fd5b611cbc816119ab565b15611cfc576040517f08c379a0000000000000000000000000000000000000000000000000000000008152600401611cf390613456565b60405180910390fd5b611d0a6000838360016119ec565b611d13816119ab565b15611d53576040517f08c379a0000000000000000000000000000000000000000000000000000000008152600401611d4a90613456565b60405180910390fd5b6001600560008473ffffffffffffffffffffffffffffffffffffffff1673ffffffffffffffffffffffffffffffffffffffff16815260200190815260200160002060008282540192505081905550816004600083815260200190815260200160002060006101000a81548173ffffffffffffffffffffffffffffffffffffffff021916908373ffffffffffffffffffffffffffffffffffffffff160217905550808273ffffffffffffffffffffffffffffffffffffffff16600073ffffffffffffffffffffffffffffffffffffffff167fddf252ad1be2c89b69c2b068fc378daa952ba7f163c4a11628f55a4df523b3ef60405160405180910390a4611e5d6000838360016119f2565b5050565b6000808273ffffffffffffffffffffffffffffffffffffffff163b119050919050565b6000604051905090565b600080fd5b600080fd5b60007fffffffff0000000000000000000000000000000000000000000000000000000082169050919050565b611ecd81611e98565b8114611ed857600080fd5b50565b600081359050611eea81611ec4565b92915050565b600060208284031215611f0657611f05611e8e565b5b6000611f1484828501611edb565b91505092915050565b60008115159050919050565b611f3281611f1d565b82525050565b6000602082019050611f4d6000830184611f29565b92915050565b600081519050919050565b600082825260208201905092915050565b60005b83811015611f8d578082015181840152602081019050611f72565b60008484015250505050565b6000601f19601f8301169050919050565b6000611fb582611f53565b611fbf8185611f5e565b9350611fcf818560208601611f6f565b611fd881611f99565b840191505092915050565b60006020820190508181036000830152611ffd8184611faa565b905092915050565b6000819050919050565b61201881612005565b811461202357600080fd5b50565b6000813590506120358161200f565b92915050565b60006020828403121561205157612050611e8e565b5b600061205f84828501612026565b91505092915050565b600073ffffffffffffffffffffffffffffffffffffffff82169050919050565b600061209382612068565b9050919050565b6120a381612088565b82525050565b60006020820190506120be600083018461209a565b92915050565b6120cd81612088565b81146120d857600080fd5b50565b6000813590506120ea816120c4565b92915050565b6000806040838503121561210757612106611e8e565b5b6000612115858286016120db565b925050602061212685828601612026565b9150509250929050565b60008060006060848603121561214957612148611e8e565b5b6000612157868287016120db565b9350506020612168868287016120db565b925050604061217986828701612026565b9150509250925092565b6000806040838503121561219a57612199611e8e565b5b60006121a885828601612026565b92505060206121b985828601612026565b9150509250929050565b6121cc81612005565b82525050565b60006040820190506121e7600083018561209a565b6121f460208301846121c3565b9392505050565b600080fd5b600080fd5b7f4e487b7100000000000000000000000000000000000000000000000000000000600052604160045260246000fd5b61223d82611f99565b810181811067ffffffffffffffff8211171561225c5761225b612205565b5b80604052505050565b600061226f611e84565b905061227b8282612234565b919050565b600067ffffffffffffffff82111561229b5761229a612205565b5b6122a482611f99565b9050602081019050919050565b82818337600083830152505050565b60006122d36122ce84612280565b612265565b9050828152602081018484840111156122ef576122ee612200565b5b6122fa8482856122b1565b509392505050565b600082601f830112612317576123166121fb565b5b81356123278482602086016122c0565b91505092915050565b6000806040838503121561234757612346611e8e565b5b6000612355858286016120db565b925050602083013567ffffffffffffffff81111561237657612375611e93565b5b61238285828601612302565b9150509250929050565b6000602082840312156123a2576123a1611e8e565b5b60006123b0848285016120db565b91505092915050565b60006020820190506123ce60008301846121c3565b92915050565b6000819050919050565b6123e7816123d4565b81146123f257600080fd5b50565b600081359050612404816123de565b92915050565b600060ff82169050919050565b6124208161240a565b811461242b57600080fd5b50565b60008135905061243d81612417565b92915050565b6000806000806080858703121561245d5761245c611e8e565b5b600061246b878288016123f5565b945050602061247c8782880161242e565b935050604061248d878288016123f5565b925050606085013567ffffffffffffffff8111156124ae576124ad611e93565b5b6124ba87828801612302565b91505092959194509250565b6124cf81611f1d565b81146124da57600080fd5b50565b6000813590506124ec816124c6565b92915050565b6000806040838503121561250957612508611e8e565b5b6000612517858286016120db565b9250506020612528858286016124dd565b9150509250929050565b600067ffffffffffffffff82111561254d5761254c612205565b5b61255682611f99565b9050602081019050919050565b600061257661257184612532565b612265565b90508281526020810184848401111561259257612591612200565b5b61259d8482856122b1565b509392505050565b600082601f8301126125ba576125b96121fb565b5b81356125ca848260208601612563565b91505092915050565b600080600080608085870312156125ed576125ec611e8e565b5b60006125fb878288016120db565b945050602061260c878288016120db565b935050604061261d87828801612026565b925050606085013567ffffffffffffffff81111561263e5761263d611e93565b5b61264a878288016125a5565b91505092959194509250565b6000806040838503121561266d5761266c611e8e565b5b600061267b858286016120db565b925050602061268c858286016120db565b9150509250929050565b7f4e487b7100000000000000000000000000000000000000000000000000000000600052602260045260246000fd5b600060028204905060018216806126dd57607f821691505b6020821081036126f0576126ef612696565b5b50919050565b7f4552433732313a20617070726f76616c20746f2063757272656e74206f776e6560008201527f7200000000000000000000000000000000000000000000000000000000000000602082015250565b6000612752602183611f5e565b915061275d826126f6565b604082019050919050565b6000602082019050818103600083015261278181612745565b9050919050565b7f4552433732313a20617070726f76652063616c6c6572206973206e6f7420746f60008201527f6b656e206f776e6572206f7220617070726f76656420666f7220616c6c000000602082015250565b60006127e4603d83611f5e565b91506127ef82612788565b604082019050919050565b60006020820190508181036000830152612813816127d7565b9050919050565b7f4552433732313a2063616c6c6572206973206e6f7420746f6b656e206f776e6560008201527f72206f7220617070726f76656400000000000000000000000000000000000000602082015250565b6000612876602d83611f5e565b91506128818261281a565b604082019050919050565b600060208201905081810360008301526128a581612869565b9050919050565b7f4e487b7100000000000000000000000000000000000000000000000000000000600052601160045260246000fd5b60006128e682612005565b91506128f183612005565b92508282026128ff81612005565b91508282048414831517612916576129156128ac565b5b5092915050565b7f4e487b7100000000000000000000000000000000000000000000000000000000600052601260045260246000fd5b600061295782612005565b915061296283612005565b9250826129725761297161291d565b5b828204905092915050565b7f4552433732313a20696e76616c696420746f6b656e2049440000000000000000600082015250565b60006129b3601883611f5e565b91506129be8261297d565b602082019050919050565b600060208201905081810360008301526129e2816129a6565b9050919050565b7f4552433732313a2061646472657373207a65726f206973206e6f74206120766160008201527f6c6964206f776e65720000000000000000000000000000000000000000000000602082015250565b6000612a45602983611f5e565b9150612a50826129e9565b604082019050919050565b60006020820190508181036000830152612a7481612a38565b9050919050565b7f4552433732314d696e7461626c653a2057726f6e67207369676e617475726500600082015250565b6000612ab1601f83611f5e565b9150612abc82612a7b565b602082019050919050565b60006020820190508181036000830152612ae081612aa4565b9050919050565b600081905092915050565b6000612afd82611f53565b612b078185612ae7565b9350612b17818560208601611f6f565b80840191505092915050565b6000612b2f8284612af2565b915081905092915050565b7f4552433732314d696e7461626c653a20416c7265616479206861766500000000600082015250565b6000612b70601c83611f5e565b9150612b7b82612b3a565b602082019050919050565b60006020820190508181036000830152612b9f81612b63565b9050919050565b60008190508160005260206000209050919050565b60006020601f8301049050919050565b600082821b905092915050565b600060088302612c087fffffffffffffffffffffffffffffffffffffffffffffffffffffffffffffffff82612bcb565b612c128683612bcb565b95508019841693508086168417925050509392505050565b6000819050919050565b6000612c4f612c4a612c4584612005565b612c2a565b612005565b9050919050565b6000819050919050565b612c6983612c34565b612c7d612c7582612c56565b848454612bd8565b825550505050565b600090565b612c92612c85565b612c9d818484612c60565b505050565b5b81811015612cc157612cb6600082612c8a565b600181019050612ca3565b5050565b601f821115612d0657612cd781612ba6565b612ce084612bbb565b81016020851015612cef578190505b612d03612cfb85612bbb565b830182612ca2565b50505b505050565b600082821c905092915050565b6000612d2960001984600802612d0b565b1980831691505092915050565b6000612d428383612d18565b9150826002028217905092915050565b612d5b82611f53565b67ffffffffffffffff811115612d7457612d73612205565b5b612d7e82546126c5565b612d89828285612cc5565b600060209050601f831160018114612dbc5760008415612daa578287015190505b612db48582612d36565b865550612e1c565b601f198416612dca86612ba6565b60005b82811015612df257848901518255600182019150602085019450602081019050612dcd565b86831015612e0f5784890151612e0b601f891682612d18565b8355505b6001600288020188555050505b505050505050565b7f4f776e61626c653a206e6577206f776e657220697320746865207a65726f206160008201527f6464726573730000000000000000000000000000000000000000000000000000602082015250565b6000612e80602683611f5e565b9150612e8b82612e24565b604082019050919050565b60006020820190508181036000830152612eaf81612e73565b9050919050565b7f4552433732313a207472616e736665722066726f6d20696e636f72726563742060008201527f6f776e6572000000000000000000000000000000000000000000000000000000602082015250565b6000612f12602583611f5e565b9150612f1d82612eb6565b604082019050919050565b60006020820190508181036000830152612f4181612f05565b9050919050565b7f4552433732313a207472616e7366657220746f20746865207a65726f2061646460008201527f7265737300000000000000000000000000000000000000000000000000000000602082015250565b6000612fa4602483611f5e565b9150612faf82612f48565b604082019050919050565b60006020820190508181036000830152612fd381612f97565b9050919050565b7f4f776e61626c653a2063616c6c6572206973206e6f7420746865206f776e6572600082015250565b6000613010602083611f5e565b915061301b82612fda565b602082019050919050565b6000602082019050818103600083015261303f81613003565b9050919050565b60008160601b9050919050565b600061305e82613046565b9050919050565b600061307082613053565b9050919050565b61308861308382612088565b613065565b82525050565b600061309a8286612af2565b91506130a68285613077565b6014820191506130b68284613077565b601482019150819050949350505050565b7f19457468657265756d205369676e6564204d6573736167653a0a333200000000600082015250565b60006130fd601c83612ae7565b9150613108826130c7565b601c82019050919050565b6000819050919050565b61312e613129826123d4565b613113565b82525050565b600061313f826130f0565b915061314b828461311d565b60208201915081905092915050565b613163816123d4565b82525050565b6131728161240a565b82525050565b600060808201905061318d600083018761315a565b61319a6020830186613169565b6131a7604083018561315a565b6131b4606083018461315a565b95945050505050565b7f4552433732313a20617070726f766520746f2063616c6c657200000000000000600082015250565b60006131f3601983611f5e565b91506131fe826131bd565b602082019050919050565b60006020820190508181036000830152613222816131e6565b9050919050565b7f4552433732313a207472616e7366657220746f206e6f6e20455243373231526560008201527f63656976657220696d706c656d656e7465720000000000000000000000000000602082015250565b6000613285603283611f5e565b915061329082613229565b604082019050919050565b600060208201905081810360008301526132b481613278565b9050919050565b600081519050919050565b600082825260208201905092915050565b60006132e2826132bb565b6132ec81856132c6565b93506132fc818560208601611f6f565b61330581611f99565b840191505092915050565b6000608082019050613325600083018761209a565b613332602083018661209a565b61333f60408301856121c3565b818103606083015261335181846132d7565b905095945050505050565b60008151905061336b81611ec4565b92915050565b60006020828403121561338757613386611e8e565b5b60006133958482850161335c565b91505092915050565b7f4552433732313a206d696e7420746f20746865207a65726f2061646472657373600082015250565b60006133d4602083611f5e565b91506133df8261339e565b602082019050919050565b60006020820190508181036000830152613403816133c7565b9050919050565b7f4552433732313a20746f6b656e20616c7265616479206d696e74656400000000600082015250565b6000613440601c83611f5e565b915061344b8261340a565b602082019050919050565b6000602082019050818103600083015261346f81613433565b905091905056fea2646970667358221220af38fce492700d417dbff1ec08de89681a53881f9f75103b0b85cca70e790a8464736f6c63430008110033",
  "linkReferences": {},
  "deployedLinkReferences": {}
}