{
  "_format": "hh-sol-artifact-1",
  "contractName": "ERC20Universal",
  "sourceName": "contracts/erc20/ERC20Universal.sol",
  "abi": [
    {
      "inputs": [
        {
          "internalType": "string",
          "name": "_name",
          "type": "string"
        },
        {
          "internalType": "string",
          "name": "_symbol",
          "type": "string"
        },
        {
          "internalType": "enum ERC20Universal.Type",
          "name": "_contractType",
          "type": "uint8"
        },
        {
          "internalType": "uint256",
          "name": "cap_",
          "type": "uint256"
        },
        {
          "internalType": "uint256",
          "name": "_initialSupply",
          "type": "uint256"
        },
        {
          "internalType": "bool",
          "name": "_isPausable",
          "type": "bool"
        },
        {
          "internalType": "bool",
          "name": "_isBurnable",
          "type": "bool"
        },
        {
          "internalType": "bool",
          "name": "_isBlacklist",
          "type": "bool"
        },
        {
          "internalType": "bool",
          "name": "_isRecoverable",
          "type": "bool"
        },
        {
          "internalType": "address",
          "name": "_fairProtocolManager",
          "type": "address"
        }
      ],
      "stateMutability": "nonpayable",
      "type": "constructor"
    },
    {
      "anonymous": false,
      "inputs": [
        {
          "indexed": true,
          "internalType": "address",
          "name": "owner",
          "type": "address"
        },
        {
          "indexed": true,
          "internalType": "address",
          "name": "spender",
          "type": "address"
        },
        {
          "indexed": false,
          "internalType": "uint256",
          "name": "value",
          "type": "uint256"
        }
      ],
      "name": "Approval",
      "type": "event"
    },
    {
      "anonymous": false,
      "inputs": [
        {
          "indexed": true,
          "internalType": "address",
          "name": "previousOwner",
          "type": "address"
        },
        {
          "indexed": true,
          "internalType": "address",
          "name": "newOwner",
          "type": "address"
        }
      ],
      "name": "OwnershipTransferred",
      "type": "event"
    },
    {
      "anonymous": false,
      "inputs": [
        {
          "indexed": false,
          "internalType": "address",
          "name": "account",
          "type": "address"
        }
      ],
      "name": "Paused",
      "type": "event"
    },
    {
      "anonymous": false,
      "inputs": [
        {
          "indexed": true,
          "internalType": "address",
          "name": "from",
          "type": "address"
        },
        {
          "indexed": true,
          "internalType": "address",
          "name": "to",
          "type": "address"
        },
        {
          "indexed": false,
          "internalType": "uint256",
          "name": "value",
          "type": "uint256"
        }
      ],
      "name": "Transfer",
      "type": "event"
    },
    {
      "anonymous": false,
      "inputs": [
        {
          "indexed": false,
          "internalType": "address",
          "name": "account",
          "type": "address"
        }
      ],
      "name": "Unpaused",
      "type": "event"
    },
    {
      "inputs": [
        {
          "internalType": "address",
          "name": "owner",
          "type": "address"
        },
        {
          "internalType": "address",
          "name": "spender",
          "type": "address"
        }
      ],
      "name": "allowance",
      "outputs": [
        {
          "internalType": "uint256",
          "name": "",
          "type": "uint256"
        }
      ],
      "stateMutability": "view",
      "type": "function"
    },
    {
      "inputs": [
        {
          "internalType": "address",
          "name": "spender",
          "type": "address"
        },
        {
          "internalType": "uint256",
          "name": "amount",
          "type": "uint256"
        }
      ],
      "name": "approve",
      "outputs": [
        {
          "internalType": "bool",
          "name": "",
          "type": "bool"
        }
      ],
      "stateMutability": "nonpayable",
      "type": "function"
    },
    {
      "inputs": [
        {
          "internalType": "address",
          "name": "account",
          "type": "address"
        }
      ],
      "name": "balanceOf",
      "outputs": [
        {
          "internalType": "uint256",
          "name": "",
          "type": "uint256"
        }
      ],
      "stateMutability": "view",
      "type": "function"
    },
    {
      "inputs": [
        {
          "internalType": "uint256",
          "name": "amount",
          "type": "uint256"
        }
      ],
      "name": "burn",
      "outputs": [],
      "stateMutability": "nonpayable",
      "type": "function"
    },
    {
      "inputs": [
        {
          "internalType": "address",
          "name": "account",
          "type": "address"
        },
        {
          "internalType": "uint256",
          "name": "amount",
          "type": "uint256"
        }
      ],
      "name": "burnFrom",
      "outputs": [],
      "stateMutability": "nonpayable",
      "type": "function"
    },
    {
      "inputs": [],
      "name": "cap",
      "outputs": [
        {
          "internalType": "uint256",
          "name": "",
          "type": "uint256"
        }
      ],
      "stateMutability": "view",
      "type": "function"
    },
    {
      "inputs": [],
      "name": "contractType",
      "outputs": [
        {
          "internalType": "enum ERC20Universal.Type",
          "name": "",
          "type": "uint8"
        }
      ],
      "stateMutability": "view",
      "type": "function"
    },
    {
      "inputs": [],
      "name": "decimals",
      "outputs": [
        {
          "internalType": "uint8",
          "name": "",
          "type": "uint8"
        }
      ],
      "stateMutability": "view",
      "type": "function"
    },
    {
      "inputs": [
        {
          "internalType": "address",
          "name": "spender",
          "type": "address"
        },
        {
          "internalType": "uint256",
          "name": "subtractedValue",
          "type": "uint256"
        }
      ],
      "name": "decreaseAllowance",
      "outputs": [
        {
          "internalType": "bool",
          "name": "",
          "type": "bool"
        }
      ],
      "stateMutability": "nonpayable",
      "type": "function"
    },
    {
      "inputs": [
        {
          "internalType": "address",
          "name": "spender",
          "type": "address"
        },
        {
          "internalType": "uint256",
          "name": "addedValue",
          "type": "uint256"
        }
      ],
      "name": "increaseAllowance",
      "outputs": [
        {
          "internalType": "bool",
          "name": "",
          "type": "bool"
        }
      ],
      "stateMutability": "nonpayable",
      "type": "function"
    },
    {
      "inputs": [
        {
          "internalType": "uint256",
          "name": "amount",
          "type": "uint256"
        }
      ],
      "name": "mint",
      "outputs": [],
      "stateMutability": "nonpayable",
      "type": "function"
    },
    {
      "inputs": [],
      "name": "name",
      "outputs": [
        {
          "internalType": "string",
          "name": "",
          "type": "string"
        }
      ],
      "stateMutability": "view",
      "type": "function"
    },
    {
      "inputs": [],
      "name": "owner",
      "outputs": [
        {
          "internalType": "address",
          "name": "",
          "type": "address"
        }
      ],
      "stateMutability": "view",
      "type": "function"
    },
    {
      "inputs": [],
      "name": "pause",
      "outputs": [],
      "stateMutability": "nonpayable",
      "type": "function"
    },
    {
      "inputs": [],
      "name": "paused",
      "outputs": [
        {
          "internalType": "bool",
          "name": "",
          "type": "bool"
        }
      ],
      "stateMutability": "view",
      "type": "function"
    },
    {
      "inputs": [
        {
          "internalType": "address",
          "name": "tokenAddress",
          "type": "address"
        },
        {
          "internalType": "uint256",
          "name": "tokenAmount",
          "type": "uint256"
        }
      ],
      "name": "recoverERC20",
      "outputs": [],
      "stateMutability": "nonpayable",
      "type": "function"
    },
    {
      "inputs": [],
      "name": "renounceOwnership",
      "outputs": [],
      "stateMutability": "nonpayable",
      "type": "function"
    },
    {
      "inputs": [],
      "name": "symbol",
      "outputs": [
        {
          "internalType": "string",
          "name": "",
          "type": "string"
        }
      ],
      "stateMutability": "view",
      "type": "function"
    },
    {
      "inputs": [],
      "name": "totalSupply",
      "outputs": [
        {
          "internalType": "uint256",
          "name": "",
          "type": "uint256"
        }
      ],
      "stateMutability": "view",
      "type": "function"
    },
    {
      "inputs": [
        {
          "internalType": "address",
          "name": "to",
          "type": "address"
        },
        {
          "internalType": "uint256",
          "name": "amount",
          "type": "uint256"
        }
      ],
      "name": "transfer",
      "outputs": [
        {
          "internalType": "bool",
          "name": "",
          "type": "bool"
        }
      ],
      "stateMutability": "nonpayable",
      "type": "function"
    },
    {
      "inputs": [
        {
          "internalType": "address",
          "name": "from",
          "type": "address"
        },
        {
          "internalType": "address",
          "name": "to",
          "type": "address"
        },
        {
          "internalType": "uint256",
          "name": "amount",
          "type": "uint256"
        }
      ],
      "name": "transferFrom",
      "outputs": [
        {
          "internalType": "bool",
          "name": "",
          "type": "bool"
        }
      ],
      "stateMutability": "nonpayable",
      "type": "function"
    },
    {
      "inputs": [
        {
          "internalType": "address",
          "name": "newOwner",
          "type": "address"
        }
      ],
      "name": "transferOwnership",
      "outputs": [],
      "stateMutability": "nonpayable",
      "type": "function"
    },
    {
      "inputs": [],
      "name": "unpause",
      "outputs": [],
      "stateMutability": "nonpayable",
      "type": "function"
    }
  ],
  "bytecode": "0x60806040523480156200001157600080fd5b5060405162003a9f38038062003a9f833981810160405281019062000037919062000ae7565b898981600390816200004a919062000e5c565b5080600490816200005c919062000e5c565b5050506200007f620000736200029960201b60201c565b620002a160201b60201c565b6000600560146101000a81548160ff02191690831515021790555060006002811115620000b157620000b062000f43565b5b886002811115620000c757620000c662000f43565b5b036200011b576000871162000113576040517f08c379a00000000000000000000000000000000000000000000000000000000081526004016200010a9062000fd3565b60405180910390fd5b866006819055505b80600760006101000a81548173ffffffffffffffffffffffffffffffffffffffff021916908373ffffffffffffffffffffffffffffffffffffffff16021790555087600560156101000a81548160ff0219169083600281111562000184576200018362000f43565b5b021790555084600560166101000a81548160ff02191690831515021790555083600560176101000a81548160ff02191690831515021790555082600560186101000a81548160ff02191690831515021790555081600560196101000a81548160ff0219169083151502179055506000861415806200022c57506001600281111562000214576200021362000f43565b5b8860028111156200022a576200022962000f43565b5b145b15620002895762000253620002466200036760201b60201c565b876200039160201b60201c565b62000287600760009054906101000a900473ffffffffffffffffffffffffffffffffffffffff1687620004fe60201b60201c565b505b50505050505050505050620012c7565b600033905090565b6000600560009054906101000a900473ffffffffffffffffffffffffffffffffffffffff16905081600560006101000a81548173ffffffffffffffffffffffffffffffffffffffff021916908373ffffffffffffffffffffffffffffffffffffffff1602179055508173ffffffffffffffffffffffffffffffffffffffff168173ffffffffffffffffffffffffffffffffffffffff167f8be0079c531659141344cd1fd0a4f28419497f9722a3daafe3b4186f6b6457e060405160405180910390a35050565b6000600560009054906101000a900473ffffffffffffffffffffffffffffffffffffffff16905090565b600073ffffffffffffffffffffffffffffffffffffffff168273ffffffffffffffffffffffffffffffffffffffff160362000403576040517f08c379a0000000000000000000000000000000000000000000000000000000008152600401620003fa9062001045565b60405180910390fd5b62000417600083836200054f60201b60201c565b80600260008282546200042b919062001096565b92505081905550806000808473ffffffffffffffffffffffffffffffffffffffff1673ffffffffffffffffffffffffffffffffffffffff168152602001908152602001600020600082825401925050819055508173ffffffffffffffffffffffffffffffffffffffff16600073ffffffffffffffffffffffffffffffffffffffff167fddf252ad1be2c89b69c2b068fc378daa952ba7f163c4a11628f55a4df523b3ef83604051620004de9190620010e2565b60405180910390a3620004fa60008383620005d660201b60201c565b5050565b600080620005116200029960201b60201c565b9050620005448185856200052c8589620005db60201b60201c565b62000538919062001096565b6200066260201b60201c565b600191505092915050565b620005678383836200083360201b62000cf91760201c565b600560169054906101000a900460ff1615620005d1576200058d6200083860201b60201c565b15620005d0576040517f08c379a0000000000000000000000000000000000000000000000000000000008152600401620005c79062001175565b60405180910390fd5b5b505050565b505050565b6000600160008473ffffffffffffffffffffffffffffffffffffffff1673ffffffffffffffffffffffffffffffffffffffff16815260200190815260200160002060008373ffffffffffffffffffffffffffffffffffffffff1673ffffffffffffffffffffffffffffffffffffffff16815260200190815260200160002054905092915050565b600073ffffffffffffffffffffffffffffffffffffffff168373ffffffffffffffffffffffffffffffffffffffff1603620006d4576040517f08c379a0000000000000000000000000000000000000000000000000000000008152600401620006cb906200120d565b60405180910390fd5b600073ffffffffffffffffffffffffffffffffffffffff168273ffffffffffffffffffffffffffffffffffffffff160362000746576040517f08c379a00000000000000000000000000000000000000000000000000000000081526004016200073d90620012a5565b60405180910390fd5b80600160008573ffffffffffffffffffffffffffffffffffffffff1673ffffffffffffffffffffffffffffffffffffffff16815260200190815260200160002060008473ffffffffffffffffffffffffffffffffffffffff1673ffffffffffffffffffffffffffffffffffffffff168152602001908152602001600020819055508173ffffffffffffffffffffffffffffffffffffffff168373ffffffffffffffffffffffffffffffffffffffff167f8c5be1e5ebec7d5bd14f71427d1e84f3dd0314c0f7b2291e5b200ac8c7c3b92583604051620008269190620010e2565b60405180910390a3505050565b505050565b6000600560149054906101000a900460ff16905090565b6000604051905090565b600080fd5b600080fd5b600080fd5b600080fd5b6000601f19601f8301169050919050565b7f4e487b7100000000000000000000000000000000000000000000000000000000600052604160045260246000fd5b620008b8826200086d565b810181811067ffffffffffffffff82111715620008da57620008d96200087e565b5b80604052505050565b6000620008ef6200084f565b9050620008fd8282620008ad565b919050565b600067ffffffffffffffff82111562000920576200091f6200087e565b5b6200092b826200086d565b9050602081019050919050565b60005b83811015620009585780820151818401526020810190506200093b565b60008484015250505050565b60006200097b620009758462000902565b620008e3565b9050828152602081018484840111156200099a576200099962000868565b5b620009a784828562000938565b509392505050565b600082601f830112620009c757620009c662000863565b5b8151620009d984826020860162000964565b91505092915050565b60038110620009f057600080fd5b50565b60008151905062000a0481620009e2565b92915050565b6000819050919050565b62000a1f8162000a0a565b811462000a2b57600080fd5b50565b60008151905062000a3f8162000a14565b92915050565b60008115159050919050565b62000a5c8162000a45565b811462000a6857600080fd5b50565b60008151905062000a7c8162000a51565b92915050565b600073ffffffffffffffffffffffffffffffffffffffff82169050919050565b600062000aaf8262000a82565b9050919050565b62000ac18162000aa2565b811462000acd57600080fd5b50565b60008151905062000ae18162000ab6565b92915050565b6000806000806000806000806000806101408b8d03121562000b0e5762000b0d62000859565b5b60008b015167ffffffffffffffff81111562000b2f5762000b2e6200085e565b5b62000b3d8d828e01620009af565b9a505060208b015167ffffffffffffffff81111562000b615762000b606200085e565b5b62000b6f8d828e01620009af565b995050604062000b828d828e01620009f3565b985050606062000b958d828e0162000a2e565b975050608062000ba88d828e0162000a2e565b96505060a062000bbb8d828e0162000a6b565b95505060c062000bce8d828e0162000a6b565b94505060e062000be18d828e0162000a6b565b93505061010062000bf58d828e0162000a6b565b92505061012062000c098d828e0162000ad0565b9150509295989b9194979a5092959850565b600081519050919050565b7f4e487b7100000000000000000000000000000000000000000000000000000000600052602260045260246000fd5b6000600282049050600182168062000c6e57607f821691505b60208210810362000c845762000c8362000c26565b5b50919050565b60008190508160005260206000209050919050565b60006020601f8301049050919050565b600082821b905092915050565b60006008830262000cee7fffffffffffffffffffffffffffffffffffffffffffffffffffffffffffffffff8262000caf565b62000cfa868362000caf565b95508019841693508086168417925050509392505050565b6000819050919050565b600062000d3d62000d3762000d318462000a0a565b62000d12565b62000a0a565b9050919050565b6000819050919050565b62000d598362000d1c565b62000d7162000d688262000d44565b84845462000cbc565b825550505050565b600090565b62000d8862000d79565b62000d9581848462000d4e565b505050565b5b8181101562000dbd5762000db160008262000d7e565b60018101905062000d9b565b5050565b601f82111562000e0c5762000dd68162000c8a565b62000de18462000c9f565b8101602085101562000df1578190505b62000e0962000e008562000c9f565b83018262000d9a565b50505b505050565b600082821c905092915050565b600062000e316000198460080262000e11565b1980831691505092915050565b600062000e4c838362000e1e565b9150826002028217905092915050565b62000e678262000c1b565b67ffffffffffffffff81111562000e835762000e826200087e565b5b62000e8f825462000c55565b62000e9c82828562000dc1565b600060209050601f83116001811462000ed4576000841562000ebf578287015190505b62000ecb858262000e3e565b86555062000f3b565b601f19841662000ee48662000c8a565b60005b8281101562000f0e5784890151825560018201915060208501945060208101905062000ee7565b8683101562000f2e578489015162000f2a601f89168262000e1e565b8355505b6001600288020188555050505b505050505050565b7f4e487b7100000000000000000000000000000000000000000000000000000000600052602160045260246000fd5b600082825260208201905092915050565b7f45524332303a2043617020697320300000000000000000000000000000000000600082015250565b600062000fbb600f8362000f72565b915062000fc88262000f83565b602082019050919050565b6000602082019050818103600083015262000fee8162000fac565b9050919050565b7f45524332303a206d696e7420746f20746865207a65726f206164647265737300600082015250565b60006200102d601f8362000f72565b91506200103a8262000ff5565b602082019050919050565b6000602082019050818103600083015262001060816200101e565b9050919050565b7f4e487b7100000000000000000000000000000000000000000000000000000000600052601160045260246000fd5b6000620010a38262000a0a565b9150620010b08362000a0a565b9250828201905080821115620010cb57620010ca62001067565b5b92915050565b620010dc8162000a0a565b82525050565b6000602082019050620010f96000830184620010d1565b92915050565b7f45524332303a20546f6b656e207472616e73666572207768696c65207061757360008201527f6564000000000000000000000000000000000000000000000000000000000000602082015250565b60006200115d60228362000f72565b91506200116a82620010ff565b604082019050919050565b6000602082019050818103600083015262001190816200114e565b9050919050565b7f45524332303a20617070726f76652066726f6d20746865207a65726f2061646460008201527f7265737300000000000000000000000000000000000000000000000000000000602082015250565b6000620011f560248362000f72565b9150620012028262001197565b604082019050919050565b600060208201905081810360008301526200122881620011e6565b9050919050565b7f45524332303a20617070726f766520746f20746865207a65726f20616464726560008201527f7373000000000000000000000000000000000000000000000000000000000000602082015250565b60006200128d60228362000f72565b91506200129a826200122f565b604082019050919050565b60006020820190508181036000830152620012c0816200127e565b9050919050565b6127c880620012d76000396000f3fe608060405234801561001057600080fd5b506004361061014d5760003560e01c8063715018a6116100c3578063a0712d681161007c578063a0712d6814610356578063a457c2d714610372578063a9059cbb146103a2578063cb2ef6f7146103d2578063dd62ed3e146103f0578063f2fde38b146104205761014d565b8063715018a6146102ce57806379cc6790146102d85780638456cb59146102f45780638980f11f146102fe5780638da5cb5b1461031a57806395d89b41146103385761014d565b8063355274ea11610115578063355274ea1461020c578063395093511461022a5780633f4ba83a1461025a57806342966c68146102645780635c975abb1461028057806370a082311461029e5761014d565b806306fdde0314610152578063095ea7b31461017057806318160ddd146101a057806323b872dd146101be578063313ce567146101ee575b600080fd5b61015a61043c565b6040516101679190611894565b60405180910390f35b61018a6004803603810190610185919061194f565b6104ce565b60405161019791906119aa565b60405180910390f35b6101a86104f1565b6040516101b591906119d4565b60405180910390f35b6101d860048036038101906101d391906119ef565b6104fb565b6040516101e591906119aa565b60405180910390f35b6101f661052a565b6040516102039190611a5e565b60405180910390f35b610214610533565b60405161022191906119d4565b60405180910390f35b610244600480360381019061023f919061194f565b6105b2565b60405161025191906119aa565b60405180910390f35b6102626105e9565b005b61027e60048036038101906102799190611a79565b61064a565b005b6102886106ad565b60405161029591906119aa565b60405180910390f35b6102b860048036038101906102b39190611aa6565b6106c4565b6040516102c591906119d4565b60405180910390f35b6102d661070c565b005b6102f260048036038101906102ed919061194f565b610720565b005b6102fc61078f565b005b6103186004803603810190610313919061194f565b6107f0565b005b6103226108d1565b60405161032f9190611ae2565b60405180910390f35b6103406108fb565b60405161034d9190611894565b60405180910390f35b610370600480360381019061036b9190611a79565b61098d565b005b61038c6004803603810190610387919061194f565b610b42565b60405161039991906119aa565b60405180910390f35b6103bc60048036038101906103b7919061194f565b610bb9565b6040516103c991906119aa565b60405180910390f35b6103da610bdc565b6040516103e79190611b74565b60405180910390f35b61040a60048036038101906104059190611b8f565b610bef565b60405161041791906119d4565b60405180910390f35b61043a60048036038101906104359190611aa6565b610c76565b005b60606003805461044b90611bfe565b80601f016020809104026020016040519081016040528092919081815260200182805461047790611bfe565b80156104c45780601f10610499576101008083540402835291602001916104c4565b820191906000526020600020905b8154815290600101906020018083116104a757829003601f168201915b5050505050905090565b6000806104d9610cfe565b90506104e6818585610d06565b600191505092915050565b6000600254905090565b600080610506610cfe565b9050610513858285610ecf565b61051e858585610f5b565b60019150509392505050565b60006012905090565b600080600281111561054857610547611afd565b5b600560159054906101000a900460ff16600281111561056a57610569611afd565b5b146105aa576040517f08c379a00000000000000000000000000000000000000000000000000000000081526004016105a190611c7b565b60405180910390fd5b600654905090565b6000806105bd610cfe565b90506105de8185856105cf8589610bef565b6105d99190611cca565b610d06565b600191505092915050565b6105f16111d1565b600560169054906101000a900460ff16610640576040517f08c379a000000000000000000000000000000000000000000000000000000000815260040161063790611d4a565b60405180910390fd5b61064861124f565b565b600560179054906101000a900460ff16610699576040517f08c379a000000000000000000000000000000000000000000000000000000000815260040161069090611db6565b60405180910390fd5b6106aa6106a4610cfe565b826112b2565b50565b6000600560149054906101000a900460ff16905090565b60008060008373ffffffffffffffffffffffffffffffffffffffff1673ffffffffffffffffffffffffffffffffffffffff168152602001908152602001600020549050919050565b6107146111d1565b61071e600061147f565b565b600560179054906101000a900460ff1661076f576040517f08c379a000000000000000000000000000000000000000000000000000000000815260040161076690611db6565b60405180910390fd5b6107818261077b610cfe565b83610ecf565b61078b82826112b2565b5050565b6107976111d1565b600560169054906101000a900460ff166107e6576040517f08c379a00000000000000000000000000000000000000000000000000000000081526004016107dd90611d4a565b60405180910390fd5b6107ee611545565b565b6107f86111d1565b600560199054906101000a900460ff16610847576040517f08c379a000000000000000000000000000000000000000000000000000000000815260040161083e90611e48565b60405180910390fd5b8173ffffffffffffffffffffffffffffffffffffffff1663a9059cbb61086b6108d1565b836040518363ffffffff1660e01b8152600401610889929190611e68565b6020604051808303816000875af11580156108a8573d6000803e3d6000fd5b505050506040513d601f19601f820116820180604052508101906108cc9190611ebd565b505050565b6000600560009054906101000a900473ffffffffffffffffffffffffffffffffffffffff16905090565b60606004805461090a90611bfe565b80601f016020809104026020016040519081016040528092919081815260200182805461093690611bfe565b80156109835780601f1061095857610100808354040283529160200191610983565b820191906000526020600020905b81548152906001019060200180831161096657829003601f168201915b5050505050905090565b6109956111d1565b600160028111156109a9576109a8611afd565b5b600560159054906101000a900460ff1660028111156109cb576109ca611afd565b5b03610a0b576040517f08c379a0000000000000000000000000000000000000000000000000000000008152600401610a0290611f36565b60405180910390fd5b600560169054906101000a900460ff1615610a6957610a286106ad565b15610a68576040517f08c379a0000000000000000000000000000000000000000000000000000000008152600401610a5f90611fc8565b60405180910390fd5b5b60006002811115610a7d57610a7c611afd565b5b600560159054906101000a900460ff166002811115610a9f57610a9e611afd565b5b03610b0157610aac610533565b81610ab56104f1565b610abf9190611cca565b1115610b00576040517f08c379a0000000000000000000000000000000000000000000000000000000008152600401610af790612034565b60405180910390fd5b5b610b12610b0c6108d1565b826115a8565b610b3e600760009054906101000a900473ffffffffffffffffffffffffffffffffffffffff16826105b2565b5050565b600080610b4d610cfe565b90506000610b5b8286610bef565b905083811015610ba0576040517f08c379a0000000000000000000000000000000000000000000000000000000008152600401610b97906120c6565b60405180910390fd5b610bad8286868403610d06565b60019250505092915050565b600080610bc4610cfe565b9050610bd1818585610f5b565b600191505092915050565b600560159054906101000a900460ff1681565b6000600160008473ffffffffffffffffffffffffffffffffffffffff1673ffffffffffffffffffffffffffffffffffffffff16815260200190815260200160002060008373ffffffffffffffffffffffffffffffffffffffff1673ffffffffffffffffffffffffffffffffffffffff16815260200190815260200160002054905092915050565b610c7e6111d1565b600073ffffffffffffffffffffffffffffffffffffffff168173ffffffffffffffffffffffffffffffffffffffff1603610ced576040517f08c379a0000000000000000000000000000000000000000000000000000000008152600401610ce490612158565b60405180910390fd5b610cf68161147f565b50565b505050565b600033905090565b600073ffffffffffffffffffffffffffffffffffffffff168373ffffffffffffffffffffffffffffffffffffffff1603610d75576040517f08c379a0000000000000000000000000000000000000000000000000000000008152600401610d6c906121ea565b60405180910390fd5b600073ffffffffffffffffffffffffffffffffffffffff168273ffffffffffffffffffffffffffffffffffffffff1603610de4576040517f08c379a0000000000000000000000000000000000000000000000000000000008152600401610ddb9061227c565b60405180910390fd5b80600160008573ffffffffffffffffffffffffffffffffffffffff1673ffffffffffffffffffffffffffffffffffffffff16815260200190815260200160002060008473ffffffffffffffffffffffffffffffffffffffff1673ffffffffffffffffffffffffffffffffffffffff168152602001908152602001600020819055508173ffffffffffffffffffffffffffffffffffffffff168373ffffffffffffffffffffffffffffffffffffffff167f8c5be1e5ebec7d5bd14f71427d1e84f3dd0314c0f7b2291e5b200ac8c7c3b92583604051610ec291906119d4565b60405180910390a3505050565b6000610edb8484610bef565b90507fffffffffffffffffffffffffffffffffffffffffffffffffffffffffffffffff8114610f555781811015610f47576040517f08c379a0000000000000000000000000000000000000000000000000000000008152600401610f3e906122e8565b60405180910390fd5b610f548484848403610d06565b5b50505050565b600073ffffffffffffffffffffffffffffffffffffffff168373ffffffffffffffffffffffffffffffffffffffff1603610fca576040517f08c379a0000000000000000000000000000000000000000000000000000000008152600401610fc19061237a565b60405180910390fd5b600073ffffffffffffffffffffffffffffffffffffffff168273ffffffffffffffffffffffffffffffffffffffff1603611039576040517f08c379a00000000000000000000000000000000000000000000000000000000081526004016110309061240c565b60405180910390fd5b6110448383836116fe565b60008060008573ffffffffffffffffffffffffffffffffffffffff1673ffffffffffffffffffffffffffffffffffffffff168152602001908152602001600020549050818110156110ca576040517f08c379a00000000000000000000000000000000000000000000000000000000081526004016110c19061249e565b60405180910390fd5b8181036000808673ffffffffffffffffffffffffffffffffffffffff1673ffffffffffffffffffffffffffffffffffffffff16815260200190815260200160002081905550816000808573ffffffffffffffffffffffffffffffffffffffff1673ffffffffffffffffffffffffffffffffffffffff168152602001908152602001600020600082825401925050819055508273ffffffffffffffffffffffffffffffffffffffff168473ffffffffffffffffffffffffffffffffffffffff167fddf252ad1be2c89b69c2b068fc378daa952ba7f163c4a11628f55a4df523b3ef846040516111b891906119d4565b60405180910390a36111cb84848461176c565b50505050565b6111d9610cfe565b73ffffffffffffffffffffffffffffffffffffffff166111f76108d1565b73ffffffffffffffffffffffffffffffffffffffff161461124d576040517f08c379a00000000000000000000000000000000000000000000000000000000081526004016112449061250a565b60405180910390fd5b565b611257611771565b6000600560146101000a81548160ff0219169083151502179055507f5db9ee0a495bf2e6ff9c91a7834c1ba4fdd244a5e8aa4e537bd38aeae4b073aa61129b610cfe565b6040516112a89190611ae2565b60405180910390a1565b600073ffffffffffffffffffffffffffffffffffffffff168273ffffffffffffffffffffffffffffffffffffffff1603611321576040517f08c379a00000000000000000000000000000000000000000000000000000000081526004016113189061259c565b60405180910390fd5b61132d826000836116fe565b60008060008473ffffffffffffffffffffffffffffffffffffffff1673ffffffffffffffffffffffffffffffffffffffff168152602001908152602001600020549050818110156113b3576040517f08c379a00000000000000000000000000000000000000000000000000000000081526004016113aa9061262e565b60405180910390fd5b8181036000808573ffffffffffffffffffffffffffffffffffffffff1673ffffffffffffffffffffffffffffffffffffffff1681526020019081526020016000208190555081600260008282540392505081905550600073ffffffffffffffffffffffffffffffffffffffff168373ffffffffffffffffffffffffffffffffffffffff167fddf252ad1be2c89b69c2b068fc378daa952ba7f163c4a11628f55a4df523b3ef8460405161146691906119d4565b60405180910390a361147a8360008461176c565b505050565b6000600560009054906101000a900473ffffffffffffffffffffffffffffffffffffffff16905081600560006101000a81548173ffffffffffffffffffffffffffffffffffffffff021916908373ffffffffffffffffffffffffffffffffffffffff1602179055508173ffffffffffffffffffffffffffffffffffffffff168173ffffffffffffffffffffffffffffffffffffffff167f8be0079c531659141344cd1fd0a4f28419497f9722a3daafe3b4186f6b6457e060405160405180910390a35050565b61154d6117ba565b6001600560146101000a81548160ff0219169083151502179055507f62e78cea01bee320cd4e420270b5ea74000d11b0c9f74754ebdbfc544b05a258611591610cfe565b60405161159e9190611ae2565b60405180910390a1565b600073ffffffffffffffffffffffffffffffffffffffff168273ffffffffffffffffffffffffffffffffffffffff1603611617576040517f08c379a000000000000000000000000000000000000000000000000000000000815260040161160e9061269a565b60405180910390fd5b611623600083836116fe565b80600260008282546116359190611cca565b92505081905550806000808473ffffffffffffffffffffffffffffffffffffffff1673ffffffffffffffffffffffffffffffffffffffff168152602001908152602001600020600082825401925050819055508173ffffffffffffffffffffffffffffffffffffffff16600073ffffffffffffffffffffffffffffffffffffffff167fddf252ad1be2c89b69c2b068fc378daa952ba7f163c4a11628f55a4df523b3ef836040516116e691906119d4565b60405180910390a36116fa6000838361176c565b5050565b611709838383610cf9565b600560169054906101000a900460ff1615611767576117266106ad565b15611766576040517f08c379a000000000000000000000000000000000000000000000000000000000815260040161175d90611fc8565b60405180910390fd5b5b505050565b505050565b6117796106ad565b6117b8576040517f08c379a00000000000000000000000000000000000000000000000000000000081526004016117af90612706565b60405180910390fd5b565b6117c26106ad565b15611802576040517f08c379a00000000000000000000000000000000000000000000000000000000081526004016117f990612772565b60405180910390fd5b565b600081519050919050565b600082825260208201905092915050565b60005b8381101561183e578082015181840152602081019050611823565b60008484015250505050565b6000601f19601f8301169050919050565b600061186682611804565b611870818561180f565b9350611880818560208601611820565b6118898161184a565b840191505092915050565b600060208201905081810360008301526118ae818461185b565b905092915050565b600080fd5b600073ffffffffffffffffffffffffffffffffffffffff82169050919050565b60006118e6826118bb565b9050919050565b6118f6816118db565b811461190157600080fd5b50565b600081359050611913816118ed565b92915050565b6000819050919050565b61192c81611919565b811461193757600080fd5b50565b60008135905061194981611923565b92915050565b60008060408385031215611966576119656118b6565b5b600061197485828601611904565b92505060206119858582860161193a565b9150509250929050565b60008115159050919050565b6119a48161198f565b82525050565b60006020820190506119bf600083018461199b565b92915050565b6119ce81611919565b82525050565b60006020820190506119e960008301846119c5565b92915050565b600080600060608486031215611a0857611a076118b6565b5b6000611a1686828701611904565b9350506020611a2786828701611904565b9250506040611a388682870161193a565b9150509250925092565b600060ff82169050919050565b611a5881611a42565b82525050565b6000602082019050611a736000830184611a4f565b92915050565b600060208284031215611a8f57611a8e6118b6565b5b6000611a9d8482850161193a565b91505092915050565b600060208284031215611abc57611abb6118b6565b5b6000611aca84828501611904565b91505092915050565b611adc816118db565b82525050565b6000602082019050611af76000830184611ad3565b92915050565b7f4e487b7100000000000000000000000000000000000000000000000000000000600052602160045260246000fd5b60038110611b3d57611b3c611afd565b5b50565b6000819050611b4e82611b2c565b919050565b6000611b5e82611b40565b9050919050565b611b6e81611b53565b82525050565b6000602082019050611b896000830184611b65565b92915050565b60008060408385031215611ba657611ba56118b6565b5b6000611bb485828601611904565b9250506020611bc585828601611904565b9150509250929050565b7f4e487b7100000000000000000000000000000000000000000000000000000000600052602260045260246000fd5b60006002820490506001821680611c1657607f821691505b602082108103611c2957611c28611bcf565b5b50919050565b7f45524332303a204e6f742063617070656420636f6e7472616374000000000000600082015250565b6000611c65601a8361180f565b9150611c7082611c2f565b602082019050919050565b60006020820190508181036000830152611c9481611c58565b9050919050565b7f4e487b7100000000000000000000000000000000000000000000000000000000600052601160045260246000fd5b6000611cd582611919565b9150611ce083611919565b9250828201905080821115611cf857611cf7611c9b565b5b92915050565b7f45524332303a204e6f74207061757361626c6500000000000000000000000000600082015250565b6000611d3460138361180f565b9150611d3f82611cfe565b602082019050919050565b60006020820190508181036000830152611d6381611d27565b9050919050565b7f45524332303a204e6f7420616c6c6f77656420746f206275726e000000000000600082015250565b6000611da0601a8361180f565b9150611dab82611d6a565b602082019050919050565b60006020820190508181036000830152611dcf81611d93565b9050919050565b7f45524332303a20436f6e7472616374206973206e6f74207265636f766572616260008201527f6c65000000000000000000000000000000000000000000000000000000000000602082015250565b6000611e3260228361180f565b9150611e3d82611dd6565b604082019050919050565b60006020820190508181036000830152611e6181611e25565b9050919050565b6000604082019050611e7d6000830185611ad3565b611e8a60208301846119c5565b9392505050565b611e9a8161198f565b8114611ea557600080fd5b50565b600081519050611eb781611e91565b92915050565b600060208284031215611ed357611ed26118b6565b5b6000611ee184828501611ea8565b91505092915050565b7f45524332303a204e6f7420616c6c6f77656420746f206d696e74000000000000600082015250565b6000611f20601a8361180f565b9150611f2b82611eea565b602082019050919050565b60006020820190508181036000830152611f4f81611f13565b9050919050565b7f45524332303a20546f6b656e207472616e73666572207768696c65207061757360008201527f6564000000000000000000000000000000000000000000000000000000000000602082015250565b6000611fb260228361180f565b9150611fbd82611f56565b604082019050919050565b60006020820190508181036000830152611fe181611fa5565b9050919050565b7f45524332303a2043617020657863656564656400000000000000000000000000600082015250565b600061201e60138361180f565b915061202982611fe8565b602082019050919050565b6000602082019050818103600083015261204d81612011565b9050919050565b7f45524332303a2064656372656173656420616c6c6f77616e63652062656c6f7760008201527f207a65726f000000000000000000000000000000000000000000000000000000602082015250565b60006120b060258361180f565b91506120bb82612054565b604082019050919050565b600060208201905081810360008301526120df816120a3565b9050919050565b7f4f776e61626c653a206e6577206f776e657220697320746865207a65726f206160008201527f6464726573730000000000000000000000000000000000000000000000000000602082015250565b600061214260268361180f565b915061214d826120e6565b604082019050919050565b6000602082019050818103600083015261217181612135565b9050919050565b7f45524332303a20617070726f76652066726f6d20746865207a65726f2061646460008201527f7265737300000000000000000000000000000000000000000000000000000000602082015250565b60006121d460248361180f565b91506121df82612178565b604082019050919050565b60006020820190508181036000830152612203816121c7565b9050919050565b7f45524332303a20617070726f766520746f20746865207a65726f20616464726560008201527f7373000000000000000000000000000000000000000000000000000000000000602082015250565b600061226660228361180f565b91506122718261220a565b604082019050919050565b6000602082019050818103600083015261229581612259565b9050919050565b7f45524332303a20696e73756666696369656e7420616c6c6f77616e6365000000600082015250565b60006122d2601d8361180f565b91506122dd8261229c565b602082019050919050565b60006020820190508181036000830152612301816122c5565b9050919050565b7f45524332303a207472616e736665722066726f6d20746865207a65726f20616460008201527f6472657373000000000000000000000000000000000000000000000000000000602082015250565b600061236460258361180f565b915061236f82612308565b604082019050919050565b6000602082019050818103600083015261239381612357565b9050919050565b7f45524332303a207472616e7366657220746f20746865207a65726f206164647260008201527f6573730000000000000000000000000000000000000000000000000000000000602082015250565b60006123f660238361180f565b91506124018261239a565b604082019050919050565b60006020820190508181036000830152612425816123e9565b9050919050565b7f45524332303a207472616e7366657220616d6f756e742065786365656473206260008201527f616c616e63650000000000000000000000000000000000000000000000000000602082015250565b600061248860268361180f565b91506124938261242c565b604082019050919050565b600060208201905081810360008301526124b78161247b565b9050919050565b7f4f776e61626c653a2063616c6c6572206973206e6f7420746865206f776e6572600082015250565b60006124f460208361180f565b91506124ff826124be565b602082019050919050565b60006020820190508181036000830152612523816124e7565b9050919050565b7f45524332303a206275726e2066726f6d20746865207a65726f2061646472657360008201527f7300000000000000000000000000000000000000000000000000000000000000602082015250565b600061258660218361180f565b91506125918261252a565b604082019050919050565b600060208201905081810360008301526125b581612579565b9050919050565b7f45524332303a206275726e20616d6f756e7420657863656564732062616c616e60008201527f6365000000000000000000000000000000000000000000000000000000000000602082015250565b600061261860228361180f565b9150612623826125bc565b604082019050919050565b600060208201905081810360008301526126478161260b565b9050919050565b7f45524332303a206d696e7420746f20746865207a65726f206164647265737300600082015250565b6000612684601f8361180f565b915061268f8261264e565b602082019050919050565b600060208201905081810360008301526126b381612677565b9050919050565b7f5061757361626c653a206e6f7420706175736564000000000000000000000000600082015250565b60006126f060148361180f565b91506126fb826126ba565b602082019050919050565b6000602082019050818103600083015261271f816126e3565b9050919050565b7f5061757361626c653a2070617573656400000000000000000000000000000000600082015250565b600061275c60108361180f565b915061276782612726565b602082019050919050565b6000602082019050818103600083015261278b8161274f565b905091905056fea26469706673582212202c3d2b2b5e3cf94b3baf7ff06919c113dc4ea0c51df1e0041be8849be955bf5d64736f6c63430008110033",
  "linkReferences": {},
  "deployedLinkReferences": {}
}