{
  "_format": "hh-sol-artifact-1",
  "contractName": "ERC20Universal",
  "sourceName": "contracts/erc20/ERC20Universal.sol",
  "abi": [
    {
      "inputs": [
        {
          "internalType": "string",
          "name": "_name",
          "type": "string"
        },
        {
          "internalType": "string",
          "name": "_symbol",
          "type": "string"
        },
        {
          "internalType": "enum ERC20Universal.Type",
          "name": "_supplyType",
          "type": "uint8"
        },
        {
          "internalType": "uint256",
          "name": "cap_",
          "type": "uint256"
        },
        {
          "internalType": "uint256",
          "name": "_initialSupply",
          "type": "uint256"
        },
        {
          "internalType": "bool",
          "name": "_isPausable",
          "type": "bool"
        },
        {
          "internalType": "bool",
          "name": "_isBurnable",
          "type": "bool"
        },
        {
          "internalType": "bool",
          "name": "_isBlacklist",
          "type": "bool"
        },
        {
          "internalType": "bool",
          "name": "_isRecoverable",
          "type": "bool"
        },
        {
          "internalType": "address",
          "name": "_fairProtocolManager",
          "type": "address"
        }
      ],
      "stateMutability": "nonpayable",
      "type": "constructor"
    },
    {
      "anonymous": false,
      "inputs": [
        {
          "indexed": true,
          "internalType": "address",
          "name": "owner",
          "type": "address"
        },
        {
          "indexed": true,
          "internalType": "address",
          "name": "spender",
          "type": "address"
        },
        {
          "indexed": false,
          "internalType": "uint256",
          "name": "value",
          "type": "uint256"
        }
      ],
      "name": "Approval",
      "type": "event"
    },
    {
      "anonymous": false,
      "inputs": [
        {
          "indexed": true,
          "internalType": "address",
          "name": "previousOwner",
          "type": "address"
        },
        {
          "indexed": true,
          "internalType": "address",
          "name": "newOwner",
          "type": "address"
        }
      ],
      "name": "OwnershipTransferred",
      "type": "event"
    },
    {
      "anonymous": false,
      "inputs": [
        {
          "indexed": false,
          "internalType": "address",
          "name": "account",
          "type": "address"
        }
      ],
      "name": "Paused",
      "type": "event"
    },
    {
      "anonymous": false,
      "inputs": [
        {
          "indexed": true,
          "internalType": "address",
          "name": "from",
          "type": "address"
        },
        {
          "indexed": true,
          "internalType": "address",
          "name": "to",
          "type": "address"
        },
        {
          "indexed": false,
          "internalType": "uint256",
          "name": "value",
          "type": "uint256"
        }
      ],
      "name": "Transfer",
      "type": "event"
    },
    {
      "anonymous": false,
      "inputs": [
        {
          "indexed": false,
          "internalType": "address",
          "name": "account",
          "type": "address"
        }
      ],
      "name": "Unpaused",
      "type": "event"
    },
    {
      "inputs": [
        {
          "internalType": "address",
          "name": "owner",
          "type": "address"
        },
        {
          "internalType": "address",
          "name": "spender",
          "type": "address"
        }
      ],
      "name": "allowance",
      "outputs": [
        {
          "internalType": "uint256",
          "name": "",
          "type": "uint256"
        }
      ],
      "stateMutability": "view",
      "type": "function"
    },
    {
      "inputs": [
        {
          "internalType": "address",
          "name": "",
          "type": "address"
        }
      ],
      "name": "allowedUsers",
      "outputs": [
        {
          "internalType": "bool",
          "name": "",
          "type": "bool"
        }
      ],
      "stateMutability": "view",
      "type": "function"
    },
    {
      "inputs": [
        {
          "internalType": "uint256",
          "name": "",
          "type": "uint256"
        }
      ],
      "name": "allowedUsersList",
      "outputs": [
        {
          "internalType": "address",
          "name": "userAddress",
          "type": "address"
        },
        {
          "internalType": "bool",
          "name": "allowed",
          "type": "bool"
        }
      ],
      "stateMutability": "view",
      "type": "function"
    },
    {
      "inputs": [
        {
          "internalType": "address",
          "name": "spender",
          "type": "address"
        },
        {
          "internalType": "uint256",
          "name": "amount",
          "type": "uint256"
        }
      ],
      "name": "approve",
      "outputs": [
        {
          "internalType": "bool",
          "name": "",
          "type": "bool"
        }
      ],
      "stateMutability": "nonpayable",
      "type": "function"
    },
    {
      "inputs": [
        {
          "internalType": "address",
          "name": "account",
          "type": "address"
        }
      ],
      "name": "balanceOf",
      "outputs": [
        {
          "internalType": "uint256",
          "name": "",
          "type": "uint256"
        }
      ],
      "stateMutability": "view",
      "type": "function"
    },
    {
      "inputs": [
        {
          "internalType": "address",
          "name": "",
          "type": "address"
        }
      ],
      "name": "blacklist",
      "outputs": [
        {
          "internalType": "bool",
          "name": "",
          "type": "bool"
        }
      ],
      "stateMutability": "view",
      "type": "function"
    },
    {
      "inputs": [],
      "name": "blacklistLastID",
      "outputs": [
        {
          "internalType": "uint256",
          "name": "",
          "type": "uint256"
        }
      ],
      "stateMutability": "view",
      "type": "function"
    },
    {
      "inputs": [
        {
          "internalType": "address",
          "name": "",
          "type": "address"
        }
      ],
      "name": "blacklistTime",
      "outputs": [
        {
          "internalType": "uint256",
          "name": "",
          "type": "uint256"
        }
      ],
      "stateMutability": "view",
      "type": "function"
    },
    {
      "inputs": [
        {
          "internalType": "uint256",
          "name": "",
          "type": "uint256"
        }
      ],
      "name": "blacklistUsers",
      "outputs": [
        {
          "internalType": "address",
          "name": "",
          "type": "address"
        }
      ],
      "stateMutability": "view",
      "type": "function"
    },
    {
      "inputs": [
        {
          "internalType": "uint256",
          "name": "amount",
          "type": "uint256"
        }
      ],
      "name": "burn",
      "outputs": [],
      "stateMutability": "nonpayable",
      "type": "function"
    },
    {
      "inputs": [
        {
          "internalType": "address",
          "name": "account",
          "type": "address"
        },
        {
          "internalType": "uint256",
          "name": "amount",
          "type": "uint256"
        }
      ],
      "name": "burnFrom",
      "outputs": [],
      "stateMutability": "nonpayable",
      "type": "function"
    },
    {
      "inputs": [],
      "name": "cap",
      "outputs": [
        {
          "internalType": "uint256",
          "name": "",
          "type": "uint256"
        }
      ],
      "stateMutability": "view",
      "type": "function"
    },
    {
      "inputs": [],
      "name": "decimals",
      "outputs": [
        {
          "internalType": "uint8",
          "name": "",
          "type": "uint8"
        }
      ],
      "stateMutability": "view",
      "type": "function"
    },
    {
      "inputs": [
        {
          "internalType": "address",
          "name": "spender",
          "type": "address"
        },
        {
          "internalType": "uint256",
          "name": "subtractedValue",
          "type": "uint256"
        }
      ],
      "name": "decreaseAllowance",
      "outputs": [
        {
          "internalType": "bool",
          "name": "",
          "type": "bool"
        }
      ],
      "stateMutability": "nonpayable",
      "type": "function"
    },
    {
      "inputs": [
        {
          "internalType": "address",
          "name": "user",
          "type": "address"
        }
      ],
      "name": "deleteAllowedUser",
      "outputs": [],
      "stateMutability": "nonpayable",
      "type": "function"
    },
    {
      "inputs": [
        {
          "internalType": "address[]",
          "name": "users",
          "type": "address[]"
        }
      ],
      "name": "deleteBlacklistUsers",
      "outputs": [],
      "stateMutability": "nonpayable",
      "type": "function"
    },
    {
      "inputs": [
        {
          "internalType": "address",
          "name": "spender",
          "type": "address"
        },
        {
          "internalType": "uint256",
          "name": "addedValue",
          "type": "uint256"
        }
      ],
      "name": "increaseAllowance",
      "outputs": [
        {
          "internalType": "bool",
          "name": "",
          "type": "bool"
        }
      ],
      "stateMutability": "nonpayable",
      "type": "function"
    },
    {
      "inputs": [],
      "name": "lastAllowedUserID",
      "outputs": [
        {
          "internalType": "uint256",
          "name": "",
          "type": "uint256"
        }
      ],
      "stateMutability": "view",
      "type": "function"
    },
    {
      "inputs": [
        {
          "internalType": "uint256",
          "name": "amount",
          "type": "uint256"
        }
      ],
      "name": "mint",
      "outputs": [],
      "stateMutability": "nonpayable",
      "type": "function"
    },
    {
      "inputs": [],
      "name": "name",
      "outputs": [
        {
          "internalType": "string",
          "name": "",
          "type": "string"
        }
      ],
      "stateMutability": "view",
      "type": "function"
    },
    {
      "inputs": [],
      "name": "owner",
      "outputs": [
        {
          "internalType": "address",
          "name": "",
          "type": "address"
        }
      ],
      "stateMutability": "view",
      "type": "function"
    },
    {
      "inputs": [],
      "name": "pause",
      "outputs": [],
      "stateMutability": "nonpayable",
      "type": "function"
    },
    {
      "inputs": [],
      "name": "paused",
      "outputs": [
        {
          "internalType": "bool",
          "name": "",
          "type": "bool"
        }
      ],
      "stateMutability": "view",
      "type": "function"
    },
    {
      "inputs": [
        {
          "internalType": "address",
          "name": "tokenAddress",
          "type": "address"
        },
        {
          "internalType": "uint256",
          "name": "tokenAmount",
          "type": "uint256"
        }
      ],
      "name": "recoverERC20",
      "outputs": [],
      "stateMutability": "nonpayable",
      "type": "function"
    },
    {
      "inputs": [],
      "name": "renounceOwnership",
      "outputs": [],
      "stateMutability": "nonpayable",
      "type": "function"
    },
    {
      "inputs": [
        {
          "internalType": "address",
          "name": "user",
          "type": "address"
        }
      ],
      "name": "setAllowedUser",
      "outputs": [],
      "stateMutability": "nonpayable",
      "type": "function"
    },
    {
      "inputs": [
        {
          "internalType": "address[]",
          "name": "users",
          "type": "address[]"
        }
      ],
      "name": "setBlacklistUsers",
      "outputs": [],
      "stateMutability": "nonpayable",
      "type": "function"
    },
    {
      "inputs": [],
      "name": "supplyType",
      "outputs": [
        {
          "internalType": "enum ERC20Universal.Type",
          "name": "",
          "type": "uint8"
        }
      ],
      "stateMutability": "view",
      "type": "function"
    },
    {
      "inputs": [],
      "name": "symbol",
      "outputs": [
        {
          "internalType": "string",
          "name": "",
          "type": "string"
        }
      ],
      "stateMutability": "view",
      "type": "function"
    },
    {
      "inputs": [],
      "name": "totalSupply",
      "outputs": [
        {
          "internalType": "uint256",
          "name": "",
          "type": "uint256"
        }
      ],
      "stateMutability": "view",
      "type": "function"
    },
    {
      "inputs": [
        {
          "internalType": "address",
          "name": "to",
          "type": "address"
        },
        {
          "internalType": "uint256",
          "name": "amount",
          "type": "uint256"
        }
      ],
      "name": "transfer",
      "outputs": [
        {
          "internalType": "bool",
          "name": "",
          "type": "bool"
        }
      ],
      "stateMutability": "nonpayable",
      "type": "function"
    },
    {
      "inputs": [
        {
          "internalType": "address",
          "name": "from",
          "type": "address"
        },
        {
          "internalType": "address",
          "name": "to",
          "type": "address"
        },
        {
          "internalType": "uint256",
          "name": "amount",
          "type": "uint256"
        }
      ],
      "name": "transferFrom",
      "outputs": [
        {
          "internalType": "bool",
          "name": "",
          "type": "bool"
        }
      ],
      "stateMutability": "nonpayable",
      "type": "function"
    },
    {
      "inputs": [
        {
          "internalType": "address",
          "name": "newOwner",
          "type": "address"
        }
      ],
      "name": "transferOwnership",
      "outputs": [],
      "stateMutability": "nonpayable",
      "type": "function"
    },
    {
      "inputs": [],
      "name": "unpause",
      "outputs": [],
      "stateMutability": "nonpayable",
      "type": "function"
    }
  ],
  "bytecode": "0x60806040523480156200001157600080fd5b50604051620055dd380380620055dd833981810160405281019062000037919062000db0565b898981600390816200004a919062001125565b5080600490816200005c919062001125565b5050506200007f620000736200043e60201b60201c565b6200044660201b60201c565b6000600560146101000a81548160ff02191690831515021790555060006002811115620000b157620000b06200120c565b5b886002811115620000c757620000c66200120c565b5b036200011b576000871162000113576040517f08c379a00000000000000000000000000000000000000000000000000000000081526004016200010a906200129c565b60405180910390fd5b866006819055505b600160028111156200013257620001316200120c565b5b8860028111156200014857620001476200120c565b5b0362000195576000860362000194576040517f08c379a00000000000000000000000000000000000000000000000000000000081526004016200018b906200130e565b60405180910390fd5b5b80600760006101000a81548173ffffffffffffffffffffffffffffffffffffffff021916908373ffffffffffffffffffffffffffffffffffffffff16021790555087600560156101000a81548160ff02191690836002811115620001fe57620001fd6200120c565b5b021790555084600560166101000a81548160ff02191690831515021790555083600560176101000a81548160ff02191690831515021790555082600560186101000a81548160ff02191690831515021790555081600560196101000a81548160ff021916908315150217905550600086141580620002a65750600160028111156200028e576200028d6200120c565b5b886002811115620002a457620002a36200120c565b5b145b156200030357620002cd620002c06200050c60201b60201c565b876200053660201b60201c565b62000301600760009054906101000a900473ffffffffffffffffffffffffffffffffffffffff1687620006a360201b60201c565b505b600f60009080600181540180825580915050600190039060005260206000200160009091909190916101000a81548173ffffffffffffffffffffffffffffffffffffffff021916908373ffffffffffffffffffffffffffffffffffffffff1602179055506000601081905550600b6040518060400160405280600073ffffffffffffffffffffffffffffffffffffffff168152602001600015158152509080600181540180825580915050600190039060005260206000200160009091909190915060008201518160000160006101000a81548173ffffffffffffffffffffffffffffffffffffffff021916908373ffffffffffffffffffffffffffffffffffffffff16021790555060208201518160000160146101000a81548160ff02191690831515021790555050505050505050505050505062001674565b600033905090565b6000600560009054906101000a900473ffffffffffffffffffffffffffffffffffffffff16905081600560006101000a81548173ffffffffffffffffffffffffffffffffffffffff021916908373ffffffffffffffffffffffffffffffffffffffff1602179055508173ffffffffffffffffffffffffffffffffffffffff168173ffffffffffffffffffffffffffffffffffffffff167f8be0079c531659141344cd1fd0a4f28419497f9722a3daafe3b4186f6b6457e060405160405180910390a35050565b6000600560009054906101000a900473ffffffffffffffffffffffffffffffffffffffff16905090565b600073ffffffffffffffffffffffffffffffffffffffff168273ffffffffffffffffffffffffffffffffffffffff1603620005a8576040517f08c379a00000000000000000000000000000000000000000000000000000000081526004016200059f9062001380565b60405180910390fd5b620005bc60008383620006f460201b60201c565b8060026000828254620005d09190620013d1565b92505081905550806000808473ffffffffffffffffffffffffffffffffffffffff1673ffffffffffffffffffffffffffffffffffffffff168152602001908152602001600020600082825401925050819055508173ffffffffffffffffffffffffffffffffffffffff16600073ffffffffffffffffffffffffffffffffffffffff167fddf252ad1be2c89b69c2b068fc378daa952ba7f163c4a11628f55a4df523b3ef836040516200068391906200141d565b60405180910390a36200069f600083836200089f60201b60201c565b5050565b600080620006b66200043e60201b60201c565b9050620006e9818585620006d18589620008a460201b60201c565b620006dd9190620013d1565b6200092b60201b60201c565b600191505092915050565b82600c60008273ffffffffffffffffffffffffffffffffffffffff1673ffffffffffffffffffffffffffffffffffffffff16815260200190815260200160002060009054906101000a900460ff161562000785576040517f08c379a00000000000000000000000000000000000000000000000000000000081526004016200077c906200148a565b60405180910390fd5b82600c60008273ffffffffffffffffffffffffffffffffffffffff1673ffffffffffffffffffffffffffffffffffffffff16815260200190815260200160002060009054906101000a900460ff161562000816576040517f08c379a00000000000000000000000000000000000000000000000000000000081526004016200080d906200148a565b60405180910390fd5b6200082e85858562000afc60201b62001f851760201c565b600560169054906101000a900460ff161562000898576200085462000b0160201b60201c565b1562000897576040517f08c379a00000000000000000000000000000000000000000000000000000000081526004016200088e9062001522565b60405180910390fd5b5b5050505050565b505050565b6000600160008473ffffffffffffffffffffffffffffffffffffffff1673ffffffffffffffffffffffffffffffffffffffff16815260200190815260200160002060008373ffffffffffffffffffffffffffffffffffffffff1673ffffffffffffffffffffffffffffffffffffffff16815260200190815260200160002054905092915050565b600073ffffffffffffffffffffffffffffffffffffffff168373ffffffffffffffffffffffffffffffffffffffff16036200099d576040517f08c379a00000000000000000000000000000000000000000000000000000000081526004016200099490620015ba565b60405180910390fd5b600073ffffffffffffffffffffffffffffffffffffffff168273ffffffffffffffffffffffffffffffffffffffff160362000a0f576040517f08c379a000000000000000000000000000000000000000000000000000000000815260040162000a069062001652565b60405180910390fd5b80600160008573ffffffffffffffffffffffffffffffffffffffff1673ffffffffffffffffffffffffffffffffffffffff16815260200190815260200160002060008473ffffffffffffffffffffffffffffffffffffffff1673ffffffffffffffffffffffffffffffffffffffff168152602001908152602001600020819055508173ffffffffffffffffffffffffffffffffffffffff168373ffffffffffffffffffffffffffffffffffffffff167f8c5be1e5ebec7d5bd14f71427d1e84f3dd0314c0f7b2291e5b200ac8c7c3b9258360405162000aef91906200141d565b60405180910390a3505050565b505050565b6000600560149054906101000a900460ff16905090565b6000604051905090565b600080fd5b600080fd5b600080fd5b600080fd5b6000601f19601f8301169050919050565b7f4e487b7100000000000000000000000000000000000000000000000000000000600052604160045260246000fd5b62000b818262000b36565b810181811067ffffffffffffffff8211171562000ba35762000ba262000b47565b5b80604052505050565b600062000bb862000b18565b905062000bc6828262000b76565b919050565b600067ffffffffffffffff82111562000be95762000be862000b47565b5b62000bf48262000b36565b9050602081019050919050565b60005b8381101562000c2157808201518184015260208101905062000c04565b60008484015250505050565b600062000c4462000c3e8462000bcb565b62000bac565b90508281526020810184848401111562000c635762000c6262000b31565b5b62000c7084828562000c01565b509392505050565b600082601f83011262000c905762000c8f62000b2c565b5b815162000ca284826020860162000c2d565b91505092915050565b6003811062000cb957600080fd5b50565b60008151905062000ccd8162000cab565b92915050565b6000819050919050565b62000ce88162000cd3565b811462000cf457600080fd5b50565b60008151905062000d088162000cdd565b92915050565b60008115159050919050565b62000d258162000d0e565b811462000d3157600080fd5b50565b60008151905062000d458162000d1a565b92915050565b600073ffffffffffffffffffffffffffffffffffffffff82169050919050565b600062000d788262000d4b565b9050919050565b62000d8a8162000d6b565b811462000d9657600080fd5b50565b60008151905062000daa8162000d7f565b92915050565b6000806000806000806000806000806101408b8d03121562000dd75762000dd662000b22565b5b60008b015167ffffffffffffffff81111562000df85762000df762000b27565b5b62000e068d828e0162000c78565b9a505060208b015167ffffffffffffffff81111562000e2a5762000e2962000b27565b5b62000e388d828e0162000c78565b995050604062000e4b8d828e0162000cbc565b985050606062000e5e8d828e0162000cf7565b975050608062000e718d828e0162000cf7565b96505060a062000e848d828e0162000d34565b95505060c062000e978d828e0162000d34565b94505060e062000eaa8d828e0162000d34565b93505061010062000ebe8d828e0162000d34565b92505061012062000ed28d828e0162000d99565b9150509295989b9194979a5092959850565b600081519050919050565b7f4e487b7100000000000000000000000000000000000000000000000000000000600052602260045260246000fd5b6000600282049050600182168062000f3757607f821691505b60208210810362000f4d5762000f4c62000eef565b5b50919050565b60008190508160005260206000209050919050565b60006020601f8301049050919050565b600082821b905092915050565b60006008830262000fb77fffffffffffffffffffffffffffffffffffffffffffffffffffffffffffffffff8262000f78565b62000fc3868362000f78565b95508019841693508086168417925050509392505050565b6000819050919050565b6000620010066200100062000ffa8462000cd3565b62000fdb565b62000cd3565b9050919050565b6000819050919050565b620010228362000fe5565b6200103a62001031826200100d565b84845462000f85565b825550505050565b600090565b6200105162001042565b6200105e81848462001017565b505050565b5b8181101562001086576200107a60008262001047565b60018101905062001064565b5050565b601f821115620010d5576200109f8162000f53565b620010aa8462000f68565b81016020851015620010ba578190505b620010d2620010c98562000f68565b83018262001063565b50505b505050565b600082821c905092915050565b6000620010fa60001984600802620010da565b1980831691505092915050565b6000620011158383620010e7565b9150826002028217905092915050565b620011308262000ee4565b67ffffffffffffffff8111156200114c576200114b62000b47565b5b62001158825462000f1e565b620011658282856200108a565b600060209050601f8311600181146200119d576000841562001188578287015190505b62001194858262001107565b86555062001204565b601f198416620011ad8662000f53565b60005b82811015620011d757848901518255600182019150602085019450602081019050620011b0565b86831015620011f75784890151620011f3601f891682620010e7565b8355505b6001600288020188555050505b505050505050565b7f4e487b7100000000000000000000000000000000000000000000000000000000600052602160045260246000fd5b600082825260208201905092915050565b7f45524332303a2043617020697320300000000000000000000000000000000000600082015250565b600062001284600f836200123b565b915062001291826200124c565b602082019050919050565b60006020820190508181036000830152620012b78162001275565b9050919050565b7f45524332303a20496e697469616c20737570706c792069732030000000000000600082015250565b6000620012f6601a836200123b565b91506200130382620012be565b602082019050919050565b600060208201905081810360008301526200132981620012e7565b9050919050565b7f45524332303a206d696e7420746f20746865207a65726f206164647265737300600082015250565b600062001368601f836200123b565b9150620013758262001330565b602082019050919050565b600060208201905081810360008301526200139b8162001359565b9050919050565b7f4e487b7100000000000000000000000000000000000000000000000000000000600052601160045260246000fd5b6000620013de8262000cd3565b9150620013eb8362000cd3565b9250828201905080821115620014065762001405620013a2565b5b92915050565b620014178162000cd3565b82525050565b60006020820190506200143460008301846200140c565b92915050565b7f45524332303a205573657220696e20626c61636b6c6973740000000000000000600082015250565b6000620014726018836200123b565b91506200147f826200143a565b602082019050919050565b60006020820190508181036000830152620014a58162001463565b9050919050565b7f45524332303a20546f6b656e207472616e73666572207768696c65207061757360008201527f6564000000000000000000000000000000000000000000000000000000000000602082015250565b60006200150a6022836200123b565b91506200151782620014ac565b604082019050919050565b600060208201905081810360008301526200153d81620014fb565b9050919050565b7f45524332303a20617070726f76652066726f6d20746865207a65726f2061646460008201527f7265737300000000000000000000000000000000000000000000000000000000602082015250565b6000620015a26024836200123b565b9150620015af8262001544565b604082019050919050565b60006020820190508181036000830152620015d58162001593565b9050919050565b7f45524332303a20617070726f766520746f20746865207a65726f20616464726560008201527f7373000000000000000000000000000000000000000000000000000000000000602082015250565b60006200163a6022836200123b565b91506200164782620015dc565b604082019050919050565b600060208201905081810360008301526200166d816200162b565b9050919050565b613f5980620016846000396000f3fe608060405234801561001057600080fd5b50600436106102065760003560e01c80638456cb591161011a578063ab3c5674116100ad578063ea4afa3b1161007c578063ea4afa3b146105c7578063ea4ea4fd146105e5578063f2fde38b14610616578063f3d1306d14610632578063f9f92be41461066257610206565b8063ab3c56741461051b578063adea80a81461054b578063dd62ed3e1461057b578063dfca2cd7146105ab57610206565b806395d89b41116100e957806395d89b4114610481578063a0712d681461049f578063a457c2d7146104bb578063a9059cbb146104eb57610206565b80638456cb59146104215780638980f11f1461042b5780638da5cb5b1461044757806394abcfe91461046557610206565b8063395093511161019d5780635c975abb1161016c5780635c975abb1461038f57806370a08231146103ad578063715018a6146103dd578063753d61f8146103e757806379cc67901461040557610206565b8063395093511461031d5780633f4ba83a1461034d57806342966c681461035757806352166d311461037357610206565b806318160ddd116101d957806318160ddd1461029357806323b872dd146102b1578063313ce567146102e1578063355274ea146102ff57610206565b806306fdde031461020b578063095ea7b3146102295780630f70578c146102595780631431791814610277575b600080fd5b610213610692565b6040516102209190612c3e565b60405180910390f35b610243600480360381019061023e9190612d08565b610724565b6040516102509190612d63565b60405180910390f35b610261610747565b60405161026e9190612df5565b60405180910390f35b610291600480360381019061028c9190612f58565b61075a565b005b61029b610ab4565b6040516102a89190612fb0565b60405180910390f35b6102cb60048036038101906102c69190612fcb565b610abe565b6040516102d89190612d63565b60405180910390f35b6102e9610aed565b6040516102f6919061303a565b60405180910390f35b610307610af6565b6040516103149190612fb0565b60405180910390f35b61033760048036038101906103329190612d08565b610b75565b6040516103449190612d63565b60405180910390f35b610355610bac565b005b610371600480360381019061036c9190613055565b610cce565b005b61038d60048036038101906103889190612f58565b610dc0565b005b6103976111ff565b6040516103a49190612d63565b60405180910390f35b6103c760048036038101906103c29190613082565b611216565b6040516103d49190612fb0565b60405180910390f35b6103e561125e565b005b6103ef611272565b6040516103fc9190612fb0565b60405180910390f35b61041f600480360381019061041a9190612d08565b611278565b005b610429611405565b005b61044560048036038101906104409190612d08565b611527565b005b61044f6116c9565b60405161045c91906130be565b60405180910390f35b61047f600480360381019061047a9190613082565b6116f3565b005b6104896117cf565b6040516104969190612c3e565b60405180910390f35b6104b960048036038101906104b49190613055565b611861565b005b6104d560048036038101906104d09190612d08565b611ad7565b6040516104e29190612d63565b60405180910390f35b61050560048036038101906105009190612d08565b611b4e565b6040516105129190612d63565b60405180910390f35b61053560048036038101906105309190613055565b611b71565b60405161054291906130be565b60405180910390f35b61056560048036038101906105609190613082565b611bb0565b6040516105729190612fb0565b60405180910390f35b610595600480360381019061059091906130d9565b611bc8565b6040516105a29190612fb0565b60405180910390f35b6105c560048036038101906105c09190613082565b611c4f565b005b6105cf611e5f565b6040516105dc9190612fb0565b60405180910390f35b6105ff60048036038101906105fa9190613055565b611e65565b60405161060d929190613119565b60405180910390f35b610630600480360381019061062b9190613082565b611ec2565b005b61064c60048036038101906106479190613082565b611f45565b6040516106599190612d63565b60405180910390f35b61067c60048036038101906106779190613082565b611f65565b6040516106899190612d63565b60405180910390f35b6060600380546106a190613171565b80601f01602080910402602001604051908101604052809291908181526020018280546106cd90613171565b801561071a5780601f106106ef5761010080835404028352916020019161071a565b820191906000526020600020905b8154815290600101906020018083116106fd57829003601f168201915b5050505050905090565b60008061072f611f8a565b905061073c818585611f92565b600191505092915050565b600560159054906101000a900460ff1681565b6107626116c9565b73ffffffffffffffffffffffffffffffffffffffff163373ffffffffffffffffffffffffffffffffffffffff1614806107e45750600860003373ffffffffffffffffffffffffffffffffffffffff1673ffffffffffffffffffffffffffffffffffffffff16815260200190815260200160002060009054906101000a900460ff165b610823576040517f08c379a000000000000000000000000000000000000000000000000000000000815260040161081a906131ee565b60405180910390fd5b600560189054906101000a900460ff16610872576040517f08c379a00000000000000000000000000000000000000000000000000000000081526004016108699061325a565b60405180910390fd5b60005b8151811015610ab0576001600c60008484815181106108975761089661327a565b5b602002602001015173ffffffffffffffffffffffffffffffffffffffff1673ffffffffffffffffffffffffffffffffffffffff16815260200190815260200160002060006101000a81548160ff0219169083151502179055506000600d60008484815181106109095761090861327a565b5b602002602001015173ffffffffffffffffffffffffffffffffffffffff1673ffffffffffffffffffffffffffffffffffffffff1681526020019081526020016000205403610a3f576000600f805490509050600f8383815181106109705761096f61327a565b5b60200260200101519080600181540180825580915050600190039060005260206000200160009091909190916101000a81548173ffffffffffffffffffffffffffffffffffffffff021916908373ffffffffffffffffffffffffffffffffffffffff16021790555080600d60008585815181106109f0576109ef61327a565b5b602002602001015173ffffffffffffffffffffffffffffffffffffffff1673ffffffffffffffffffffffffffffffffffffffff1681526020019081526020016000208190555080601081905550505b42600e6000848481518110610a5757610a5661327a565b5b602002602001015173ffffffffffffffffffffffffffffffffffffffff1673ffffffffffffffffffffffffffffffffffffffff168152602001908152602001600020819055508080610aa8906132d8565b915050610875565b5050565b6000600254905090565b600080610ac9611f8a565b9050610ad685828561215b565b610ae18585856121e7565b60019150509392505050565b60006012905090565b6000806002811115610b0b57610b0a612d7e565b5b600560159054906101000a900460ff166002811115610b2d57610b2c612d7e565b5b14610b6d576040517f08c379a0000000000000000000000000000000000000000000000000000000008152600401610b649061336c565b60405180910390fd5b600654905090565b600080610b80611f8a565b9050610ba1818585610b928589611bc8565b610b9c919061338c565b611f92565b600191505092915050565b610bb46116c9565b73ffffffffffffffffffffffffffffffffffffffff163373ffffffffffffffffffffffffffffffffffffffff161480610c365750600860003373ffffffffffffffffffffffffffffffffffffffff1673ffffffffffffffffffffffffffffffffffffffff16815260200190815260200160002060009054906101000a900460ff165b610c75576040517f08c379a0000000000000000000000000000000000000000000000000000000008152600401610c6c906131ee565b60405180910390fd5b600560169054906101000a900460ff16610cc4576040517f08c379a0000000000000000000000000000000000000000000000000000000008152600401610cbb9061340c565b60405180910390fd5b610ccc61245d565b565b33600c60008273ffffffffffffffffffffffffffffffffffffffff1673ffffffffffffffffffffffffffffffffffffffff16815260200190815260200160002060009054906101000a900460ff1615610d5c576040517f08c379a0000000000000000000000000000000000000000000000000000000008152600401610d5390613478565b60405180910390fd5b600560179054906101000a900460ff16610dab576040517f08c379a0000000000000000000000000000000000000000000000000000000008152600401610da2906134e4565b60405180910390fd5b610dbc610db6611f8a565b836124c0565b5050565b610dc86116c9565b73ffffffffffffffffffffffffffffffffffffffff163373ffffffffffffffffffffffffffffffffffffffff161480610e4a5750600860003373ffffffffffffffffffffffffffffffffffffffff1673ffffffffffffffffffffffffffffffffffffffff16815260200190815260200160002060009054906101000a900460ff165b610e89576040517f08c379a0000000000000000000000000000000000000000000000000000000008152600401610e80906131ee565b60405180910390fd5b600560189054906101000a900460ff16610ed8576040517f08c379a0000000000000000000000000000000000000000000000000000000008152600401610ecf9061325a565b60405180910390fd5b60005b81518110156111fb576000600c6000848481518110610efd57610efc61327a565b5b602002602001015173ffffffffffffffffffffffffffffffffffffffff1673ffffffffffffffffffffffffffffffffffffffff16815260200190815260200160002060006101000a81548160ff0219169083151502179055506000600f8054905090506000600d6000858581518110610f7957610f7861327a565b5b602002602001015173ffffffffffffffffffffffffffffffffffffffff1673ffffffffffffffffffffffffffffffffffffffff168152602001908152602001600020549050600182610fcb9190613504565b8103611034576000600f8281548110610fe757610fe661327a565b5b9060005260206000200160006101000a81548173ffffffffffffffffffffffffffffffffffffffff021916908373ffffffffffffffffffffffffffffffffffffffff16021790555061116d565b6000600f6001846110459190613504565b815481106110565761105561327a565b5b9060005260206000200160009054906101000a900473ffffffffffffffffffffffffffffffffffffffff16905080600f83815481106110985761109761327a565b5b9060005260206000200160006101000a81548173ffffffffffffffffffffffffffffffffffffffff021916908373ffffffffffffffffffffffffffffffffffffffff16021790555081600d60008373ffffffffffffffffffffffffffffffffffffffff1673ffffffffffffffffffffffffffffffffffffffff16815260200190815260200160002081905550600f80548061113657611135613538565b5b6001900381819060005260206000200160006101000a81549073ffffffffffffffffffffffffffffffffffffffff02191690559055505b6000600d60008686815181106111865761118561327a565b5b602002602001015173ffffffffffffffffffffffffffffffffffffffff1673ffffffffffffffffffffffffffffffffffffffff168152602001908152602001600020819055506001601060008282546111df9190613504565b92505081905550505080806111f3906132d8565b915050610edb565b5050565b6000600560149054906101000a900460ff16905090565b60008060008373ffffffffffffffffffffffffffffffffffffffff1673ffffffffffffffffffffffffffffffffffffffff168152602001908152602001600020549050919050565b61126661268d565b611270600061270b565b565b600a5481565b33600c60008273ffffffffffffffffffffffffffffffffffffffff1673ffffffffffffffffffffffffffffffffffffffff16815260200190815260200160002060009054906101000a900460ff1615611306576040517f08c379a00000000000000000000000000000000000000000000000000000000081526004016112fd90613478565b60405180910390fd5b82600c60008273ffffffffffffffffffffffffffffffffffffffff1673ffffffffffffffffffffffffffffffffffffffff16815260200190815260200160002060009054906101000a900460ff1615611394576040517f08c379a000000000000000000000000000000000000000000000000000000000815260040161138b90613478565b60405180910390fd5b600560179054906101000a900460ff166113e3576040517f08c379a00000000000000000000000000000000000000000000000000000000081526004016113da906134e4565b60405180910390fd5b6113f5846113ef611f8a565b8561215b565b6113ff84846124c0565b50505050565b61140d6116c9565b73ffffffffffffffffffffffffffffffffffffffff163373ffffffffffffffffffffffffffffffffffffffff16148061148f5750600860003373ffffffffffffffffffffffffffffffffffffffff1673ffffffffffffffffffffffffffffffffffffffff16815260200190815260200160002060009054906101000a900460ff165b6114ce576040517f08c379a00000000000000000000000000000000000000000000000000000000081526004016114c5906131ee565b60405180910390fd5b600560169054906101000a900460ff1661151d576040517f08c379a00000000000000000000000000000000000000000000000000000000081526004016115149061340c565b60405180910390fd5b6115256127d1565b565b61152f6116c9565b73ffffffffffffffffffffffffffffffffffffffff163373ffffffffffffffffffffffffffffffffffffffff1614806115b15750600860003373ffffffffffffffffffffffffffffffffffffffff1673ffffffffffffffffffffffffffffffffffffffff16815260200190815260200160002060009054906101000a900460ff165b6115f0576040517f08c379a00000000000000000000000000000000000000000000000000000000081526004016115e7906131ee565b60405180910390fd5b600560199054906101000a900460ff1661163f576040517f08c379a0000000000000000000000000000000000000000000000000000000008152600401611636906135d9565b60405180910390fd5b8173ffffffffffffffffffffffffffffffffffffffff1663a9059cbb6116636116c9565b836040518363ffffffff1660e01b81526004016116819291906135f9565b6020604051808303816000875af11580156116a0573d6000803e3d6000fd5b505050506040513d601f19601f820116820180604052508101906116c4919061364e565b505050565b6000600560009054906101000a900473ffffffffffffffffffffffffffffffffffffffff16905090565b6116fb61268d565b6000600860008373ffffffffffffffffffffffffffffffffffffffff1673ffffffffffffffffffffffffffffffffffffffff16815260200190815260200160002060006101000a81548160ff0219169083151502179055506000600b600960008473ffffffffffffffffffffffffffffffffffffffff1673ffffffffffffffffffffffffffffffffffffffff16815260200190815260200160002054815481106117a8576117a761327a565b5b9060005260206000200160000160146101000a81548160ff02191690831515021790555050565b6060600480546117de90613171565b80601f016020809104026020016040519081016040528092919081815260200182805461180a90613171565b80156118575780601f1061182c57610100808354040283529160200191611857565b820191906000526020600020905b81548152906001019060200180831161183a57829003601f168201915b5050505050905090565b6118696116c9565b73ffffffffffffffffffffffffffffffffffffffff163373ffffffffffffffffffffffffffffffffffffffff1614806118eb5750600860003373ffffffffffffffffffffffffffffffffffffffff1673ffffffffffffffffffffffffffffffffffffffff16815260200190815260200160002060009054906101000a900460ff165b61192a576040517f08c379a0000000000000000000000000000000000000000000000000000000008152600401611921906131ee565b60405180910390fd5b6001600281111561193e5761193d612d7e565b5b600560159054906101000a900460ff1660028111156119605761195f612d7e565b5b036119a0576040517f08c379a0000000000000000000000000000000000000000000000000000000008152600401611997906136c7565b60405180910390fd5b600560169054906101000a900460ff16156119fe576119bd6111ff565b156119fd576040517f08c379a00000000000000000000000000000000000000000000000000000000081526004016119f490613759565b60405180910390fd5b5b60006002811115611a1257611a11612d7e565b5b600560159054906101000a900460ff166002811115611a3457611a33612d7e565b5b03611a9657611a41610af6565b81611a4a610ab4565b611a54919061338c565b1115611a95576040517f08c379a0000000000000000000000000000000000000000000000000000000008152600401611a8c906137c5565b60405180910390fd5b5b611aa7611aa16116c9565b82612834565b611ad3600760009054906101000a900473ffffffffffffffffffffffffffffffffffffffff1682610b75565b5050565b600080611ae2611f8a565b90506000611af08286611bc8565b905083811015611b35576040517f08c379a0000000000000000000000000000000000000000000000000000000008152600401611b2c90613857565b60405180910390fd5b611b428286868403611f92565b60019250505092915050565b600080611b59611f8a565b9050611b668185856121e7565b600191505092915050565b600f8181548110611b8157600080fd5b906000526020600020016000915054906101000a900473ffffffffffffffffffffffffffffffffffffffff1681565b600e6020528060005260406000206000915090505481565b6000600160008473ffffffffffffffffffffffffffffffffffffffff1673ffffffffffffffffffffffffffffffffffffffff16815260200190815260200160002060008373ffffffffffffffffffffffffffffffffffffffff1673ffffffffffffffffffffffffffffffffffffffff16815260200190815260200160002054905092915050565b611c5761268d565b6001600860008373ffffffffffffffffffffffffffffffffffffffff1673ffffffffffffffffffffffffffffffffffffffff16815260200190815260200160002060006101000a81548160ff0219169083151502179055506000600960008373ffffffffffffffffffffffffffffffffffffffff1673ffffffffffffffffffffffffffffffffffffffff16815260200190815260200160002054905060008103611e2057600b60405180604001604052808473ffffffffffffffffffffffffffffffffffffffff168152602001600115158152509080600181540180825580915050600190039060005260206000200160009091909190915060008201518160000160006101000a81548173ffffffffffffffffffffffffffffffffffffffff021916908373ffffffffffffffffffffffffffffffffffffffff16021790555060208201518160000160146101000a81548160ff021916908315150217905550505060006001600b80549050611dcd9190613504565b905080600a8190555080600960008573ffffffffffffffffffffffffffffffffffffffff1673ffffffffffffffffffffffffffffffffffffffff1681526020019081526020016000208190555050611e5b565b6001600b8281548110611e3657611e3561327a565b5b9060005260206000200160000160146101000a81548160ff0219169083151502179055505b5050565b60105481565b600b8181548110611e7557600080fd5b906000526020600020016000915090508060000160009054906101000a900473ffffffffffffffffffffffffffffffffffffffff16908060000160149054906101000a900460ff16905082565b611eca61268d565b600073ffffffffffffffffffffffffffffffffffffffff168173ffffffffffffffffffffffffffffffffffffffff1603611f39576040517f08c379a0000000000000000000000000000000000000000000000000000000008152600401611f30906138e9565b60405180910390fd5b611f428161270b565b50565b60086020528060005260406000206000915054906101000a900460ff1681565b600c6020528060005260406000206000915054906101000a900460ff1681565b505050565b600033905090565b600073ffffffffffffffffffffffffffffffffffffffff168373ffffffffffffffffffffffffffffffffffffffff1603612001576040517f08c379a0000000000000000000000000000000000000000000000000000000008152600401611ff89061397b565b60405180910390fd5b600073ffffffffffffffffffffffffffffffffffffffff168273ffffffffffffffffffffffffffffffffffffffff1603612070576040517f08c379a000000000000000000000000000000000000000000000000000000000815260040161206790613a0d565b60405180910390fd5b80600160008573ffffffffffffffffffffffffffffffffffffffff1673ffffffffffffffffffffffffffffffffffffffff16815260200190815260200160002060008473ffffffffffffffffffffffffffffffffffffffff1673ffffffffffffffffffffffffffffffffffffffff168152602001908152602001600020819055508173ffffffffffffffffffffffffffffffffffffffff168373ffffffffffffffffffffffffffffffffffffffff167f8c5be1e5ebec7d5bd14f71427d1e84f3dd0314c0f7b2291e5b200ac8c7c3b9258360405161214e9190612fb0565b60405180910390a3505050565b60006121678484611bc8565b90507fffffffffffffffffffffffffffffffffffffffffffffffffffffffffffffffff81146121e157818110156121d3576040517f08c379a00000000000000000000000000000000000000000000000000000000081526004016121ca90613a79565b60405180910390fd5b6121e08484848403611f92565b5b50505050565b600073ffffffffffffffffffffffffffffffffffffffff168373ffffffffffffffffffffffffffffffffffffffff1603612256576040517f08c379a000000000000000000000000000000000000000000000000000000000815260040161224d90613b0b565b60405180910390fd5b600073ffffffffffffffffffffffffffffffffffffffff168273ffffffffffffffffffffffffffffffffffffffff16036122c5576040517f08c379a00000000000000000000000000000000000000000000000000000000081526004016122bc90613b9d565b60405180910390fd5b6122d083838361298a565b60008060008573ffffffffffffffffffffffffffffffffffffffff1673ffffffffffffffffffffffffffffffffffffffff16815260200190815260200160002054905081811015612356576040517f08c379a000000000000000000000000000000000000000000000000000000000815260040161234d90613c2f565b60405180910390fd5b8181036000808673ffffffffffffffffffffffffffffffffffffffff1673ffffffffffffffffffffffffffffffffffffffff16815260200190815260200160002081905550816000808573ffffffffffffffffffffffffffffffffffffffff1673ffffffffffffffffffffffffffffffffffffffff168152602001908152602001600020600082825401925050819055508273ffffffffffffffffffffffffffffffffffffffff168473ffffffffffffffffffffffffffffffffffffffff167fddf252ad1be2c89b69c2b068fc378daa952ba7f163c4a11628f55a4df523b3ef846040516124449190612fb0565b60405180910390a3612457848484612b16565b50505050565b612465612b1b565b6000600560146101000a81548160ff0219169083151502179055507f5db9ee0a495bf2e6ff9c91a7834c1ba4fdd244a5e8aa4e537bd38aeae4b073aa6124a9611f8a565b6040516124b691906130be565b60405180910390a1565b600073ffffffffffffffffffffffffffffffffffffffff168273ffffffffffffffffffffffffffffffffffffffff160361252f576040517f08c379a000000000000000000000000000000000000000000000000000000000815260040161252690613cc1565b60405180910390fd5b61253b8260008361298a565b60008060008473ffffffffffffffffffffffffffffffffffffffff1673ffffffffffffffffffffffffffffffffffffffff168152602001908152602001600020549050818110156125c1576040517f08c379a00000000000000000000000000000000000000000000000000000000081526004016125b890613d53565b60405180910390fd5b8181036000808573ffffffffffffffffffffffffffffffffffffffff1673ffffffffffffffffffffffffffffffffffffffff1681526020019081526020016000208190555081600260008282540392505081905550600073ffffffffffffffffffffffffffffffffffffffff168373ffffffffffffffffffffffffffffffffffffffff167fddf252ad1be2c89b69c2b068fc378daa952ba7f163c4a11628f55a4df523b3ef846040516126749190612fb0565b60405180910390a361268883600084612b16565b505050565b612695611f8a565b73ffffffffffffffffffffffffffffffffffffffff166126b36116c9565b73ffffffffffffffffffffffffffffffffffffffff1614612709576040517f08c379a000000000000000000000000000000000000000000000000000000000815260040161270090613dbf565b60405180910390fd5b565b6000600560009054906101000a900473ffffffffffffffffffffffffffffffffffffffff16905081600560006101000a81548173ffffffffffffffffffffffffffffffffffffffff021916908373ffffffffffffffffffffffffffffffffffffffff1602179055508173ffffffffffffffffffffffffffffffffffffffff168173ffffffffffffffffffffffffffffffffffffffff167f8be0079c531659141344cd1fd0a4f28419497f9722a3daafe3b4186f6b6457e060405160405180910390a35050565b6127d9612b64565b6001600560146101000a81548160ff0219169083151502179055507f62e78cea01bee320cd4e420270b5ea74000d11b0c9f74754ebdbfc544b05a25861281d611f8a565b60405161282a91906130be565b60405180910390a1565b600073ffffffffffffffffffffffffffffffffffffffff168273ffffffffffffffffffffffffffffffffffffffff16036128a3576040517f08c379a000000000000000000000000000000000000000000000000000000000815260040161289a90613e2b565b60405180910390fd5b6128af6000838361298a565b80600260008282546128c1919061338c565b92505081905550806000808473ffffffffffffffffffffffffffffffffffffffff1673ffffffffffffffffffffffffffffffffffffffff168152602001908152602001600020600082825401925050819055508173ffffffffffffffffffffffffffffffffffffffff16600073ffffffffffffffffffffffffffffffffffffffff167fddf252ad1be2c89b69c2b068fc378daa952ba7f163c4a11628f55a4df523b3ef836040516129729190612fb0565b60405180910390a361298660008383612b16565b5050565b82600c60008273ffffffffffffffffffffffffffffffffffffffff1673ffffffffffffffffffffffffffffffffffffffff16815260200190815260200160002060009054906101000a900460ff1615612a18576040517f08c379a0000000000000000000000000000000000000000000000000000000008152600401612a0f90613478565b60405180910390fd5b82600c60008273ffffffffffffffffffffffffffffffffffffffff1673ffffffffffffffffffffffffffffffffffffffff16815260200190815260200160002060009054906101000a900460ff1615612aa6576040517f08c379a0000000000000000000000000000000000000000000000000000000008152600401612a9d90613478565b60405180910390fd5b612ab1858585611f85565b600560169054906101000a900460ff1615612b0f57612ace6111ff565b15612b0e576040517f08c379a0000000000000000000000000000000000000000000000000000000008152600401612b0590613759565b60405180910390fd5b5b5050505050565b505050565b612b236111ff565b612b62576040517f08c379a0000000000000000000000000000000000000000000000000000000008152600401612b5990613e97565b60405180910390fd5b565b612b6c6111ff565b15612bac576040517f08c379a0000000000000000000000000000000000000000000000000000000008152600401612ba390613f03565b60405180910390fd5b565b600081519050919050565b600082825260208201905092915050565b60005b83811015612be8578082015181840152602081019050612bcd565b60008484015250505050565b6000601f19601f8301169050919050565b6000612c1082612bae565b612c1a8185612bb9565b9350612c2a818560208601612bca565b612c3381612bf4565b840191505092915050565b60006020820190508181036000830152612c588184612c05565b905092915050565b6000604051905090565b600080fd5b600080fd5b600073ffffffffffffffffffffffffffffffffffffffff82169050919050565b6000612c9f82612c74565b9050919050565b612caf81612c94565b8114612cba57600080fd5b50565b600081359050612ccc81612ca6565b92915050565b6000819050919050565b612ce581612cd2565b8114612cf057600080fd5b50565b600081359050612d0281612cdc565b92915050565b60008060408385031215612d1f57612d1e612c6a565b5b6000612d2d85828601612cbd565b9250506020612d3e85828601612cf3565b9150509250929050565b60008115159050919050565b612d5d81612d48565b82525050565b6000602082019050612d786000830184612d54565b92915050565b7f4e487b7100000000000000000000000000000000000000000000000000000000600052602160045260246000fd5b60038110612dbe57612dbd612d7e565b5b50565b6000819050612dcf82612dad565b919050565b6000612ddf82612dc1565b9050919050565b612def81612dd4565b82525050565b6000602082019050612e0a6000830184612de6565b92915050565b600080fd5b7f4e487b7100000000000000000000000000000000000000000000000000000000600052604160045260246000fd5b612e4d82612bf4565b810181811067ffffffffffffffff82111715612e6c57612e6b612e15565b5b80604052505050565b6000612e7f612c60565b9050612e8b8282612e44565b919050565b600067ffffffffffffffff821115612eab57612eaa612e15565b5b602082029050602081019050919050565b600080fd5b6000612ed4612ecf84612e90565b612e75565b90508083825260208201905060208402830185811115612ef757612ef6612ebc565b5b835b81811015612f205780612f0c8882612cbd565b845260208401935050602081019050612ef9565b5050509392505050565b600082601f830112612f3f57612f3e612e10565b5b8135612f4f848260208601612ec1565b91505092915050565b600060208284031215612f6e57612f6d612c6a565b5b600082013567ffffffffffffffff811115612f8c57612f8b612c6f565b5b612f9884828501612f2a565b91505092915050565b612faa81612cd2565b82525050565b6000602082019050612fc56000830184612fa1565b92915050565b600080600060608486031215612fe457612fe3612c6a565b5b6000612ff286828701612cbd565b935050602061300386828701612cbd565b925050604061301486828701612cf3565b9150509250925092565b600060ff82169050919050565b6130348161301e565b82525050565b600060208201905061304f600083018461302b565b92915050565b60006020828403121561306b5761306a612c6a565b5b600061307984828501612cf3565b91505092915050565b60006020828403121561309857613097612c6a565b5b60006130a684828501612cbd565b91505092915050565b6130b881612c94565b82525050565b60006020820190506130d360008301846130af565b92915050565b600080604083850312156130f0576130ef612c6a565b5b60006130fe85828601612cbd565b925050602061310f85828601612cbd565b9150509250929050565b600060408201905061312e60008301856130af565b61313b6020830184612d54565b9392505050565b7f4e487b7100000000000000000000000000000000000000000000000000000000600052602260045260246000fd5b6000600282049050600182168061318957607f821691505b60208210810361319c5761319b613142565b5b50919050565b7f45524332303a204e6f7420616c6c6f7765642077616c6c657400000000000000600082015250565b60006131d8601983612bb9565b91506131e3826131a2565b602082019050919050565b60006020820190508181036000830152613207816131cb565b9050919050565b7f45524332303a204e6f7420626c61636b6c697374000000000000000000000000600082015250565b6000613244601483612bb9565b915061324f8261320e565b602082019050919050565b6000602082019050818103600083015261327381613237565b9050919050565b7f4e487b7100000000000000000000000000000000000000000000000000000000600052603260045260246000fd5b7f4e487b7100000000000000000000000000000000000000000000000000000000600052601160045260246000fd5b60006132e382612cd2565b91507fffffffffffffffffffffffffffffffffffffffffffffffffffffffffffffffff8203613315576133146132a9565b5b600182019050919050565b7f45524332303a204e6f742063617070656420636f6e7472616374000000000000600082015250565b6000613356601a83612bb9565b915061336182613320565b602082019050919050565b6000602082019050818103600083015261338581613349565b9050919050565b600061339782612cd2565b91506133a283612cd2565b92508282019050808211156133ba576133b96132a9565b5b92915050565b7f45524332303a204e6f74207061757361626c6500000000000000000000000000600082015250565b60006133f6601383612bb9565b9150613401826133c0565b602082019050919050565b60006020820190508181036000830152613425816133e9565b9050919050565b7f45524332303a205573657220696e20626c61636b6c6973740000000000000000600082015250565b6000613462601883612bb9565b915061346d8261342c565b602082019050919050565b6000602082019050818103600083015261349181613455565b9050919050565b7f45524332303a204e6f7420616c6c6f77656420746f206275726e000000000000600082015250565b60006134ce601a83612bb9565b91506134d982613498565b602082019050919050565b600060208201905081810360008301526134fd816134c1565b9050919050565b600061350f82612cd2565b915061351a83612cd2565b9250828203905081811115613532576135316132a9565b5b92915050565b7f4e487b7100000000000000000000000000000000000000000000000000000000600052603160045260246000fd5b7f45524332303a20436f6e7472616374206973206e6f74207265636f766572616260008201527f6c65000000000000000000000000000000000000000000000000000000000000602082015250565b60006135c3602283612bb9565b91506135ce82613567565b604082019050919050565b600060208201905081810360008301526135f2816135b6565b9050919050565b600060408201905061360e60008301856130af565b61361b6020830184612fa1565b9392505050565b61362b81612d48565b811461363657600080fd5b50565b60008151905061364881613622565b92915050565b60006020828403121561366457613663612c6a565b5b600061367284828501613639565b91505092915050565b7f45524332303a204e6f7420616c6c6f77656420746f206d696e74000000000000600082015250565b60006136b1601a83612bb9565b91506136bc8261367b565b602082019050919050565b600060208201905081810360008301526136e0816136a4565b9050919050565b7f45524332303a20546f6b656e207472616e73666572207768696c65207061757360008201527f6564000000000000000000000000000000000000000000000000000000000000602082015250565b6000613743602283612bb9565b915061374e826136e7565b604082019050919050565b6000602082019050818103600083015261377281613736565b9050919050565b7f45524332303a2043617020657863656564656400000000000000000000000000600082015250565b60006137af601383612bb9565b91506137ba82613779565b602082019050919050565b600060208201905081810360008301526137de816137a2565b9050919050565b7f45524332303a2064656372656173656420616c6c6f77616e63652062656c6f7760008201527f207a65726f000000000000000000000000000000000000000000000000000000602082015250565b6000613841602583612bb9565b915061384c826137e5565b604082019050919050565b6000602082019050818103600083015261387081613834565b9050919050565b7f4f776e61626c653a206e6577206f776e657220697320746865207a65726f206160008201527f6464726573730000000000000000000000000000000000000000000000000000602082015250565b60006138d3602683612bb9565b91506138de82613877565b604082019050919050565b60006020820190508181036000830152613902816138c6565b9050919050565b7f45524332303a20617070726f76652066726f6d20746865207a65726f2061646460008201527f7265737300000000000000000000000000000000000000000000000000000000602082015250565b6000613965602483612bb9565b915061397082613909565b604082019050919050565b6000602082019050818103600083015261399481613958565b9050919050565b7f45524332303a20617070726f766520746f20746865207a65726f20616464726560008201527f7373000000000000000000000000000000000000000000000000000000000000602082015250565b60006139f7602283612bb9565b9150613a028261399b565b604082019050919050565b60006020820190508181036000830152613a26816139ea565b9050919050565b7f45524332303a20696e73756666696369656e7420616c6c6f77616e6365000000600082015250565b6000613a63601d83612bb9565b9150613a6e82613a2d565b602082019050919050565b60006020820190508181036000830152613a9281613a56565b9050919050565b7f45524332303a207472616e736665722066726f6d20746865207a65726f20616460008201527f6472657373000000000000000000000000000000000000000000000000000000602082015250565b6000613af5602583612bb9565b9150613b0082613a99565b604082019050919050565b60006020820190508181036000830152613b2481613ae8565b9050919050565b7f45524332303a207472616e7366657220746f20746865207a65726f206164647260008201527f6573730000000000000000000000000000000000000000000000000000000000602082015250565b6000613b87602383612bb9565b9150613b9282613b2b565b604082019050919050565b60006020820190508181036000830152613bb681613b7a565b9050919050565b7f45524332303a207472616e7366657220616d6f756e742065786365656473206260008201527f616c616e63650000000000000000000000000000000000000000000000000000602082015250565b6000613c19602683612bb9565b9150613c2482613bbd565b604082019050919050565b60006020820190508181036000830152613c4881613c0c565b9050919050565b7f45524332303a206275726e2066726f6d20746865207a65726f2061646472657360008201527f7300000000000000000000000000000000000000000000000000000000000000602082015250565b6000613cab602183612bb9565b9150613cb682613c4f565b604082019050919050565b60006020820190508181036000830152613cda81613c9e565b9050919050565b7f45524332303a206275726e20616d6f756e7420657863656564732062616c616e60008201527f6365000000000000000000000000000000000000000000000000000000000000602082015250565b6000613d3d602283612bb9565b9150613d4882613ce1565b604082019050919050565b60006020820190508181036000830152613d6c81613d30565b9050919050565b7f4f776e61626c653a2063616c6c6572206973206e6f7420746865206f776e6572600082015250565b6000613da9602083612bb9565b9150613db482613d73565b602082019050919050565b60006020820190508181036000830152613dd881613d9c565b9050919050565b7f45524332303a206d696e7420746f20746865207a65726f206164647265737300600082015250565b6000613e15601f83612bb9565b9150613e2082613ddf565b602082019050919050565b60006020820190508181036000830152613e4481613e08565b9050919050565b7f5061757361626c653a206e6f7420706175736564000000000000000000000000600082015250565b6000613e81601483612bb9565b9150613e8c82613e4b565b602082019050919050565b60006020820190508181036000830152613eb081613e74565b9050919050565b7f5061757361626c653a2070617573656400000000000000000000000000000000600082015250565b6000613eed601083612bb9565b9150613ef882613eb7565b602082019050919050565b60006020820190508181036000830152613f1c81613ee0565b905091905056fea2646970667358221220f3c7c2febf9e15d079b180f9cb05010bd48a6fe7193c434c9a586eda57a2b20664736f6c63430008110033",
  "linkReferences": {},
  "deployedLinkReferences": {}
}