{
  "_format": "hh-sol-artifact-1",
  "contractName": "ERC20Universal",
  "sourceName": "contracts/erc20/ERC20Universal.sol",
  "abi": [
    {
      "inputs": [
        {
          "internalType": "string",
          "name": "_name",
          "type": "string"
        },
        {
          "internalType": "string",
          "name": "_symbol",
          "type": "string"
        },
        {
          "internalType": "enum ERC20Universal.Type",
          "name": "_contractType",
          "type": "uint8"
        },
        {
          "internalType": "uint256",
          "name": "cap_",
          "type": "uint256"
        },
        {
          "internalType": "uint256",
          "name": "_initialSupply",
          "type": "uint256"
        },
        {
          "internalType": "bool",
          "name": "_isPausable",
          "type": "bool"
        },
        {
          "internalType": "bool",
          "name": "_isBurnable",
          "type": "bool"
        },
        {
          "internalType": "bool",
          "name": "_isBlacklist",
          "type": "bool"
        },
        {
          "internalType": "bool",
          "name": "_isRecoverable",
          "type": "bool"
        },
        {
          "internalType": "address",
          "name": "_fairProtocolManager",
          "type": "address"
        }
      ],
      "stateMutability": "nonpayable",
      "type": "constructor"
    },
    {
      "anonymous": false,
      "inputs": [
        {
          "indexed": true,
          "internalType": "address",
          "name": "owner",
          "type": "address"
        },
        {
          "indexed": true,
          "internalType": "address",
          "name": "spender",
          "type": "address"
        },
        {
          "indexed": false,
          "internalType": "uint256",
          "name": "value",
          "type": "uint256"
        }
      ],
      "name": "Approval",
      "type": "event"
    },
    {
      "anonymous": false,
      "inputs": [
        {
          "indexed": true,
          "internalType": "address",
          "name": "previousOwner",
          "type": "address"
        },
        {
          "indexed": true,
          "internalType": "address",
          "name": "newOwner",
          "type": "address"
        }
      ],
      "name": "OwnershipTransferred",
      "type": "event"
    },
    {
      "anonymous": false,
      "inputs": [
        {
          "indexed": false,
          "internalType": "address",
          "name": "account",
          "type": "address"
        }
      ],
      "name": "Paused",
      "type": "event"
    },
    {
      "anonymous": false,
      "inputs": [
        {
          "indexed": true,
          "internalType": "address",
          "name": "from",
          "type": "address"
        },
        {
          "indexed": true,
          "internalType": "address",
          "name": "to",
          "type": "address"
        },
        {
          "indexed": false,
          "internalType": "uint256",
          "name": "value",
          "type": "uint256"
        }
      ],
      "name": "Transfer",
      "type": "event"
    },
    {
      "anonymous": false,
      "inputs": [
        {
          "indexed": false,
          "internalType": "address",
          "name": "account",
          "type": "address"
        }
      ],
      "name": "Unpaused",
      "type": "event"
    },
    {
      "inputs": [
        {
          "internalType": "address",
          "name": "owner",
          "type": "address"
        },
        {
          "internalType": "address",
          "name": "spender",
          "type": "address"
        }
      ],
      "name": "allowance",
      "outputs": [
        {
          "internalType": "uint256",
          "name": "",
          "type": "uint256"
        }
      ],
      "stateMutability": "view",
      "type": "function"
    },
    {
      "inputs": [
        {
          "internalType": "address",
          "name": "spender",
          "type": "address"
        },
        {
          "internalType": "uint256",
          "name": "amount",
          "type": "uint256"
        }
      ],
      "name": "approve",
      "outputs": [
        {
          "internalType": "bool",
          "name": "",
          "type": "bool"
        }
      ],
      "stateMutability": "nonpayable",
      "type": "function"
    },
    {
      "inputs": [
        {
          "internalType": "address",
          "name": "account",
          "type": "address"
        }
      ],
      "name": "balanceOf",
      "outputs": [
        {
          "internalType": "uint256",
          "name": "",
          "type": "uint256"
        }
      ],
      "stateMutability": "view",
      "type": "function"
    },
    {
      "inputs": [
        {
          "internalType": "uint256",
          "name": "amount",
          "type": "uint256"
        }
      ],
      "name": "burn",
      "outputs": [],
      "stateMutability": "nonpayable",
      "type": "function"
    },
    {
      "inputs": [
        {
          "internalType": "address",
          "name": "account",
          "type": "address"
        },
        {
          "internalType": "uint256",
          "name": "amount",
          "type": "uint256"
        }
      ],
      "name": "burnFrom",
      "outputs": [],
      "stateMutability": "nonpayable",
      "type": "function"
    },
    {
      "inputs": [],
      "name": "cap",
      "outputs": [
        {
          "internalType": "uint256",
          "name": "",
          "type": "uint256"
        }
      ],
      "stateMutability": "view",
      "type": "function"
    },
    {
      "inputs": [],
      "name": "decimals",
      "outputs": [
        {
          "internalType": "uint8",
          "name": "",
          "type": "uint8"
        }
      ],
      "stateMutability": "view",
      "type": "function"
    },
    {
      "inputs": [
        {
          "internalType": "address",
          "name": "spender",
          "type": "address"
        },
        {
          "internalType": "uint256",
          "name": "subtractedValue",
          "type": "uint256"
        }
      ],
      "name": "decreaseAllowance",
      "outputs": [
        {
          "internalType": "bool",
          "name": "",
          "type": "bool"
        }
      ],
      "stateMutability": "nonpayable",
      "type": "function"
    },
    {
      "inputs": [
        {
          "internalType": "address",
          "name": "spender",
          "type": "address"
        },
        {
          "internalType": "uint256",
          "name": "addedValue",
          "type": "uint256"
        }
      ],
      "name": "increaseAllowance",
      "outputs": [
        {
          "internalType": "bool",
          "name": "",
          "type": "bool"
        }
      ],
      "stateMutability": "nonpayable",
      "type": "function"
    },
    {
      "inputs": [
        {
          "internalType": "uint256",
          "name": "amount",
          "type": "uint256"
        }
      ],
      "name": "mint",
      "outputs": [],
      "stateMutability": "nonpayable",
      "type": "function"
    },
    {
      "inputs": [],
      "name": "name",
      "outputs": [
        {
          "internalType": "string",
          "name": "",
          "type": "string"
        }
      ],
      "stateMutability": "view",
      "type": "function"
    },
    {
      "inputs": [],
      "name": "owner",
      "outputs": [
        {
          "internalType": "address",
          "name": "",
          "type": "address"
        }
      ],
      "stateMutability": "view",
      "type": "function"
    },
    {
      "inputs": [],
      "name": "paused",
      "outputs": [
        {
          "internalType": "bool",
          "name": "",
          "type": "bool"
        }
      ],
      "stateMutability": "view",
      "type": "function"
    },
    {
      "inputs": [
        {
          "internalType": "address",
          "name": "tokenAddress",
          "type": "address"
        },
        {
          "internalType": "uint256",
          "name": "tokenAmount",
          "type": "uint256"
        }
      ],
      "name": "recoverERC20",
      "outputs": [],
      "stateMutability": "nonpayable",
      "type": "function"
    },
    {
      "inputs": [],
      "name": "renounceOwnership",
      "outputs": [],
      "stateMutability": "nonpayable",
      "type": "function"
    },
    {
      "inputs": [],
      "name": "symbol",
      "outputs": [
        {
          "internalType": "string",
          "name": "",
          "type": "string"
        }
      ],
      "stateMutability": "view",
      "type": "function"
    },
    {
      "inputs": [],
      "name": "totalSupply",
      "outputs": [
        {
          "internalType": "uint256",
          "name": "",
          "type": "uint256"
        }
      ],
      "stateMutability": "view",
      "type": "function"
    },
    {
      "inputs": [
        {
          "internalType": "address",
          "name": "to",
          "type": "address"
        },
        {
          "internalType": "uint256",
          "name": "amount",
          "type": "uint256"
        }
      ],
      "name": "transfer",
      "outputs": [
        {
          "internalType": "bool",
          "name": "",
          "type": "bool"
        }
      ],
      "stateMutability": "nonpayable",
      "type": "function"
    },
    {
      "inputs": [
        {
          "internalType": "address",
          "name": "from",
          "type": "address"
        },
        {
          "internalType": "address",
          "name": "to",
          "type": "address"
        },
        {
          "internalType": "uint256",
          "name": "amount",
          "type": "uint256"
        }
      ],
      "name": "transferFrom",
      "outputs": [
        {
          "internalType": "bool",
          "name": "",
          "type": "bool"
        }
      ],
      "stateMutability": "nonpayable",
      "type": "function"
    },
    {
      "inputs": [
        {
          "internalType": "address",
          "name": "newOwner",
          "type": "address"
        }
      ],
      "name": "transferOwnership",
      "outputs": [],
      "stateMutability": "nonpayable",
      "type": "function"
    }
  ],
  "bytecode": "0x60806040523480156200001157600080fd5b5060405162003b2838038062003b28833981810160405281019062000037919062000dd0565b898981600390816200004a919062001145565b5080600490816200005c919062001145565b5050506200007f620000736200025460201b60201c565b6200025c60201b60201c565b6000600560146101000a81548160ff02191690831515021790555060006002811115620000b157620000b06200122c565b5b886002811115620000c757620000c66200122c565b5b036200011b576000871162000113576040517f08c379a00000000000000000000000000000000000000000000000000000000081526004016200010a90620012bc565b60405180910390fd5b866006819055505b80600760006101000a81548173ffffffffffffffffffffffffffffffffffffffff021916908373ffffffffffffffffffffffffffffffffffffffff160217905550600086141580620001975750600160028111156200017f576200017e6200122c565b5b8860028111156200019557620001946200122c565b5b145b15620001af57620001ae866200032260201b60201c565b5b87600560156101000a81548160ff02191690836002811115620001d757620001d66200122c565b5b021790555084600560166101000a81548160ff02191690831515021790555083600560176101000a81548160ff02191690831515021790555082600560186101000a81548160ff02191690831515021790555081600560196101000a81548160ff0219169083151502179055505050505050505050505062001778565b600033905090565b6000600560009054906101000a900473ffffffffffffffffffffffffffffffffffffffff16905081600560006101000a81548173ffffffffffffffffffffffffffffffffffffffff021916908373ffffffffffffffffffffffffffffffffffffffff1602179055508173ffffffffffffffffffffffffffffffffffffffff168173ffffffffffffffffffffffffffffffffffffffff167f8be0079c531659141344cd1fd0a4f28419497f9722a3daafe3b4186f6b6457e060405160405180910390a35050565b620003326200052d60201b60201c565b600160028111156200034957620003486200122c565b5b600560159054906101000a900460ff1660028111156200036e576200036d6200122c565b5b03620003b1576040517f08c379a0000000000000000000000000000000000000000000000000000000008152600401620003a8906200132e565b60405180910390fd5b600560169054906101000a900460ff16156200041b57620003d7620005be60201b60201c565b156200041a576040517f08c379a00000000000000000000000000000000000000000000000000000000081526004016200041190620013c6565b60405180910390fd5b5b600060028111156200043257620004316200122c565b5b600560159054906101000a900460ff1660028111156200045757620004566200122c565b5b03620004d4576200046d620005d560201b60201c565b81620004836200065d60201b6200049e1760201c565b6200048f919062001417565b1115620004d3576040517f08c379a0000000000000000000000000000000000000000000000000000000008152600401620004ca90620014a2565b60405180910390fd5b5b620004f5620004e86200066760201b60201c565b826200069160201b60201c565b62000529600760009054906101000a900473ffffffffffffffffffffffffffffffffffffffff1682620007fe60201b60201c565b5050565b6200053d6200025460201b60201c565b73ffffffffffffffffffffffffffffffffffffffff16620005636200066760201b60201c565b73ffffffffffffffffffffffffffffffffffffffff1614620005bc576040517f08c379a0000000000000000000000000000000000000000000000000000000008152600401620005b39062001514565b60405180910390fd5b565b6000600560149054906101000a900460ff16905090565b6000806002811115620005ed57620005ec6200122c565b5b600560159054906101000a900460ff1660028111156200061257620006116200122c565b5b1462000655576040517f08c379a00000000000000000000000000000000000000000000000000000000081526004016200064c9062001586565b60405180910390fd5b600654905090565b6000600254905090565b6000600560009054906101000a900473ffffffffffffffffffffffffffffffffffffffff16905090565b600073ffffffffffffffffffffffffffffffffffffffff168273ffffffffffffffffffffffffffffffffffffffff160362000703576040517f08c379a0000000000000000000000000000000000000000000000000000000008152600401620006fa90620015f8565b60405180910390fd5b62000717600083836200084f60201b60201c565b80600260008282546200072b919062001417565b92505081905550806000808473ffffffffffffffffffffffffffffffffffffffff1673ffffffffffffffffffffffffffffffffffffffff168152602001908152602001600020600082825401925050819055508173ffffffffffffffffffffffffffffffffffffffff16600073ffffffffffffffffffffffffffffffffffffffff167fddf252ad1be2c89b69c2b068fc378daa952ba7f163c4a11628f55a4df523b3ef83604051620007de91906200162b565b60405180910390a3620007fa60008383620008d660201b60201c565b5050565b600080620008116200025460201b60201c565b9050620008448185856200082c8589620008db60201b60201c565b62000838919062001417565b6200096260201b60201c565b600191505092915050565b6200086783838362000b3360201b62000bd11760201c565b600560169054906101000a900460ff1615620008d1576200088d620005be60201b60201c565b15620008d0576040517f08c379a0000000000000000000000000000000000000000000000000000000008152600401620008c790620013c6565b60405180910390fd5b5b505050565b505050565b6000600160008473ffffffffffffffffffffffffffffffffffffffff1673ffffffffffffffffffffffffffffffffffffffff16815260200190815260200160002060008373ffffffffffffffffffffffffffffffffffffffff1673ffffffffffffffffffffffffffffffffffffffff16815260200190815260200160002054905092915050565b600073ffffffffffffffffffffffffffffffffffffffff168373ffffffffffffffffffffffffffffffffffffffff1603620009d4576040517f08c379a0000000000000000000000000000000000000000000000000000000008152600401620009cb90620016be565b60405180910390fd5b600073ffffffffffffffffffffffffffffffffffffffff168273ffffffffffffffffffffffffffffffffffffffff160362000a46576040517f08c379a000000000000000000000000000000000000000000000000000000000815260040162000a3d9062001756565b60405180910390fd5b80600160008573ffffffffffffffffffffffffffffffffffffffff1673ffffffffffffffffffffffffffffffffffffffff16815260200190815260200160002060008473ffffffffffffffffffffffffffffffffffffffff1673ffffffffffffffffffffffffffffffffffffffff168152602001908152602001600020819055508173ffffffffffffffffffffffffffffffffffffffff168373ffffffffffffffffffffffffffffffffffffffff167f8c5be1e5ebec7d5bd14f71427d1e84f3dd0314c0f7b2291e5b200ac8c7c3b9258360405162000b2691906200162b565b60405180910390a3505050565b505050565b6000604051905090565b600080fd5b600080fd5b600080fd5b600080fd5b6000601f19601f8301169050919050565b7f4e487b7100000000000000000000000000000000000000000000000000000000600052604160045260246000fd5b62000ba18262000b56565b810181811067ffffffffffffffff8211171562000bc35762000bc262000b67565b5b80604052505050565b600062000bd862000b38565b905062000be6828262000b96565b919050565b600067ffffffffffffffff82111562000c095762000c0862000b67565b5b62000c148262000b56565b9050602081019050919050565b60005b8381101562000c4157808201518184015260208101905062000c24565b60008484015250505050565b600062000c6462000c5e8462000beb565b62000bcc565b90508281526020810184848401111562000c835762000c8262000b51565b5b62000c9084828562000c21565b509392505050565b600082601f83011262000cb05762000caf62000b4c565b5b815162000cc284826020860162000c4d565b91505092915050565b6003811062000cd957600080fd5b50565b60008151905062000ced8162000ccb565b92915050565b6000819050919050565b62000d088162000cf3565b811462000d1457600080fd5b50565b60008151905062000d288162000cfd565b92915050565b60008115159050919050565b62000d458162000d2e565b811462000d5157600080fd5b50565b60008151905062000d658162000d3a565b92915050565b600073ffffffffffffffffffffffffffffffffffffffff82169050919050565b600062000d988262000d6b565b9050919050565b62000daa8162000d8b565b811462000db657600080fd5b50565b60008151905062000dca8162000d9f565b92915050565b6000806000806000806000806000806101408b8d03121562000df75762000df662000b42565b5b60008b015167ffffffffffffffff81111562000e185762000e1762000b47565b5b62000e268d828e0162000c98565b9a505060208b015167ffffffffffffffff81111562000e4a5762000e4962000b47565b5b62000e588d828e0162000c98565b995050604062000e6b8d828e0162000cdc565b985050606062000e7e8d828e0162000d17565b975050608062000e918d828e0162000d17565b96505060a062000ea48d828e0162000d54565b95505060c062000eb78d828e0162000d54565b94505060e062000eca8d828e0162000d54565b93505061010062000ede8d828e0162000d54565b92505061012062000ef28d828e0162000db9565b9150509295989b9194979a5092959850565b600081519050919050565b7f4e487b7100000000000000000000000000000000000000000000000000000000600052602260045260246000fd5b6000600282049050600182168062000f5757607f821691505b60208210810362000f6d5762000f6c62000f0f565b5b50919050565b60008190508160005260206000209050919050565b60006020601f8301049050919050565b600082821b905092915050565b60006008830262000fd77fffffffffffffffffffffffffffffffffffffffffffffffffffffffffffffffff8262000f98565b62000fe3868362000f98565b95508019841693508086168417925050509392505050565b6000819050919050565b600062001026620010206200101a8462000cf3565b62000ffb565b62000cf3565b9050919050565b6000819050919050565b620010428362001005565b6200105a62001051826200102d565b84845462000fa5565b825550505050565b600090565b6200107162001062565b6200107e81848462001037565b505050565b5b81811015620010a6576200109a60008262001067565b60018101905062001084565b5050565b601f821115620010f557620010bf8162000f73565b620010ca8462000f88565b81016020851015620010da578190505b620010f2620010e98562000f88565b83018262001083565b50505b505050565b600082821c905092915050565b60006200111a60001984600802620010fa565b1980831691505092915050565b600062001135838362001107565b9150826002028217905092915050565b620011508262000f04565b67ffffffffffffffff8111156200116c576200116b62000b67565b5b62001178825462000f3e565b62001185828285620010aa565b600060209050601f831160018114620011bd5760008415620011a8578287015190505b620011b4858262001127565b86555062001224565b601f198416620011cd8662000f73565b60005b82811015620011f757848901518255600182019150602085019450602081019050620011d0565b8683101562001217578489015162001213601f89168262001107565b8355505b6001600288020188555050505b505050505050565b7f4e487b7100000000000000000000000000000000000000000000000000000000600052602160045260246000fd5b600082825260208201905092915050565b7f45524332303a2043617020697320300000000000000000000000000000000000600082015250565b6000620012a4600f836200125b565b9150620012b1826200126c565b602082019050919050565b60006020820190508181036000830152620012d78162001295565b9050919050565b7f45524332303a204e6f7420616c6c6f77656420746f206d696e74000000000000600082015250565b600062001316601a836200125b565b91506200132382620012de565b602082019050919050565b60006020820190508181036000830152620013498162001307565b9050919050565b7f45524332303a20546f6b656e207472616e73666572207768696c65207061757360008201527f6564000000000000000000000000000000000000000000000000000000000000602082015250565b6000620013ae6022836200125b565b9150620013bb8262001350565b604082019050919050565b60006020820190508181036000830152620013e1816200139f565b9050919050565b7f4e487b7100000000000000000000000000000000000000000000000000000000600052601160045260246000fd5b6000620014248262000cf3565b9150620014318362000cf3565b92508282019050808211156200144c576200144b620013e8565b5b92915050565b7f45524332303a2043617020657863656564656400000000000000000000000000600082015250565b60006200148a6013836200125b565b9150620014978262001452565b602082019050919050565b60006020820190508181036000830152620014bd816200147b565b9050919050565b7f4f776e61626c653a2063616c6c6572206973206e6f7420746865206f776e6572600082015250565b6000620014fc6020836200125b565b91506200150982620014c4565b602082019050919050565b600060208201905081810360008301526200152f81620014ed565b9050919050565b7f45524332303a204e6f742063617070656420636f6e7472616374000000000000600082015250565b60006200156e601a836200125b565b91506200157b8262001536565b602082019050919050565b60006020820190508181036000830152620015a1816200155f565b9050919050565b7f45524332303a206d696e7420746f20746865207a65726f206164647265737300600082015250565b6000620015e0601f836200125b565b9150620015ed82620015a8565b602082019050919050565b600060208201905081810360008301526200161381620015d1565b9050919050565b620016258162000cf3565b82525050565b60006020820190506200164260008301846200161a565b92915050565b7f45524332303a20617070726f76652066726f6d20746865207a65726f2061646460008201527f7265737300000000000000000000000000000000000000000000000000000000602082015250565b6000620016a66024836200125b565b9150620016b38262001648565b604082019050919050565b60006020820190508181036000830152620016d98162001697565b9050919050565b7f45524332303a20617070726f766520746f20746865207a65726f20616464726560008201527f7373000000000000000000000000000000000000000000000000000000000000602082015250565b60006200173e6022836200125b565b91506200174b82620016e0565b604082019050919050565b6000602082019050818103600083015262001771816200172f565b9050919050565b6123a080620017886000396000f3fe608060405234801561001057600080fd5b506004361061012c5760003560e01c8063715018a6116100ad578063a0712d6811610071578063a0712d6814610321578063a457c2d71461033d578063a9059cbb1461036d578063dd62ed3e1461039d578063f2fde38b146103cd5761012c565b8063715018a6146102a357806379cc6790146102ad5780638980f11f146102c95780638da5cb5b146102e557806395d89b41146103035761012c565b8063355274ea116100f4578063355274ea146101eb578063395093511461020957806342966c68146102395780635c975abb1461025557806370a08231146102735761012c565b806306fdde0314610131578063095ea7b31461014f57806318160ddd1461017f57806323b872dd1461019d578063313ce567146101cd575b600080fd5b6101396103e9565b6040516101469190611613565b60405180910390f35b610169600480360381019061016491906116ce565b61047b565b6040516101769190611729565b60405180910390f35b61018761049e565b6040516101949190611753565b60405180910390f35b6101b760048036038101906101b2919061176e565b6104a8565b6040516101c49190611729565b60405180910390f35b6101d56104d7565b6040516101e291906117dd565b60405180910390f35b6101f36104e0565b6040516102009190611753565b60405180910390f35b610223600480360381019061021e91906116ce565b61055f565b6040516102309190611729565b60405180910390f35b610253600480360381019061024e91906117f8565b610596565b005b61025d6105f9565b60405161026a9190611729565b60405180910390f35b61028d60048036038101906102889190611825565b610610565b60405161029a9190611753565b60405180910390f35b6102ab610658565b005b6102c760048036038101906102c291906116ce565b61066c565b005b6102e360048036038101906102de91906116ce565b6106db565b005b6102ed6107bc565b6040516102fa9190611861565b60405180910390f35b61030b6107e6565b6040516103189190611613565b60405180910390f35b61033b600480360381019061033691906117f8565b610878565b005b610357600480360381019061035291906116ce565b610a2d565b6040516103649190611729565b60405180910390f35b610387600480360381019061038291906116ce565b610aa4565b6040516103949190611729565b60405180910390f35b6103b760048036038101906103b2919061187c565b610ac7565b6040516103c49190611753565b60405180910390f35b6103e760048036038101906103e29190611825565b610b4e565b005b6060600380546103f8906118eb565b80601f0160208091040260200160405190810160405280929190818152602001828054610424906118eb565b80156104715780601f1061044657610100808354040283529160200191610471565b820191906000526020600020905b81548152906001019060200180831161045457829003601f168201915b5050505050905090565b600080610486610bd6565b9050610493818585610bde565b600191505092915050565b6000600254905090565b6000806104b3610bd6565b90506104c0858285610da7565b6104cb858585610e33565b60019150509392505050565b60006012905090565b60008060028111156104f5576104f461191c565b5b600560159054906101000a900460ff1660028111156105175761051661191c565b5b14610557576040517f08c379a000000000000000000000000000000000000000000000000000000000815260040161054e90611997565b60405180910390fd5b600654905090565b60008061056a610bd6565b905061058b81858561057c8589610ac7565b61058691906119e6565b610bde565b600191505092915050565b600560179054906101000a900460ff166105e5576040517f08c379a00000000000000000000000000000000000000000000000000000000081526004016105dc90611a66565b60405180910390fd5b6105f66105f0610bd6565b826110a9565b50565b6000600560149054906101000a900460ff16905090565b60008060008373ffffffffffffffffffffffffffffffffffffffff1673ffffffffffffffffffffffffffffffffffffffff168152602001908152602001600020549050919050565b610660611276565b61066a60006112f4565b565b600560179054906101000a900460ff166106bb576040517f08c379a00000000000000000000000000000000000000000000000000000000081526004016106b290611a66565b60405180910390fd5b6106cd826106c7610bd6565b83610da7565b6106d782826110a9565b5050565b6106e3611276565b600560199054906101000a900460ff16610732576040517f08c379a000000000000000000000000000000000000000000000000000000000815260040161072990611af8565b60405180910390fd5b8173ffffffffffffffffffffffffffffffffffffffff1663a9059cbb6107566107bc565b836040518363ffffffff1660e01b8152600401610774929190611b18565b6020604051808303816000875af1158015610793573d6000803e3d6000fd5b505050506040513d601f19601f820116820180604052508101906107b79190611b6d565b505050565b6000600560009054906101000a900473ffffffffffffffffffffffffffffffffffffffff16905090565b6060600480546107f5906118eb565b80601f0160208091040260200160405190810160405280929190818152602001828054610821906118eb565b801561086e5780601f106108435761010080835404028352916020019161086e565b820191906000526020600020905b81548152906001019060200180831161085157829003601f168201915b5050505050905090565b610880611276565b600160028111156108945761089361191c565b5b600560159054906101000a900460ff1660028111156108b6576108b561191c565b5b036108f6576040517f08c379a00000000000000000000000000000000000000000000000000000000081526004016108ed90611be6565b60405180910390fd5b600560169054906101000a900460ff1615610954576109136105f9565b15610953576040517f08c379a000000000000000000000000000000000000000000000000000000000815260040161094a90611c78565b60405180910390fd5b5b600060028111156109685761096761191c565b5b600560159054906101000a900460ff16600281111561098a5761098961191c565b5b036109ec576109976104e0565b816109a061049e565b6109aa91906119e6565b11156109eb576040517f08c379a00000000000000000000000000000000000000000000000000000000081526004016109e290611ce4565b60405180910390fd5b5b6109fd6109f76107bc565b826113ba565b610a29600760009054906101000a900473ffffffffffffffffffffffffffffffffffffffff168261055f565b5050565b600080610a38610bd6565b90506000610a468286610ac7565b905083811015610a8b576040517f08c379a0000000000000000000000000000000000000000000000000000000008152600401610a8290611d76565b60405180910390fd5b610a988286868403610bde565b60019250505092915050565b600080610aaf610bd6565b9050610abc818585610e33565b600191505092915050565b6000600160008473ffffffffffffffffffffffffffffffffffffffff1673ffffffffffffffffffffffffffffffffffffffff16815260200190815260200160002060008373ffffffffffffffffffffffffffffffffffffffff1673ffffffffffffffffffffffffffffffffffffffff16815260200190815260200160002054905092915050565b610b56611276565b600073ffffffffffffffffffffffffffffffffffffffff168173ffffffffffffffffffffffffffffffffffffffff1603610bc5576040517f08c379a0000000000000000000000000000000000000000000000000000000008152600401610bbc90611e08565b60405180910390fd5b610bce816112f4565b50565b505050565b600033905090565b600073ffffffffffffffffffffffffffffffffffffffff168373ffffffffffffffffffffffffffffffffffffffff1603610c4d576040517f08c379a0000000000000000000000000000000000000000000000000000000008152600401610c4490611e9a565b60405180910390fd5b600073ffffffffffffffffffffffffffffffffffffffff168273ffffffffffffffffffffffffffffffffffffffff1603610cbc576040517f08c379a0000000000000000000000000000000000000000000000000000000008152600401610cb390611f2c565b60405180910390fd5b80600160008573ffffffffffffffffffffffffffffffffffffffff1673ffffffffffffffffffffffffffffffffffffffff16815260200190815260200160002060008473ffffffffffffffffffffffffffffffffffffffff1673ffffffffffffffffffffffffffffffffffffffff168152602001908152602001600020819055508173ffffffffffffffffffffffffffffffffffffffff168373ffffffffffffffffffffffffffffffffffffffff167f8c5be1e5ebec7d5bd14f71427d1e84f3dd0314c0f7b2291e5b200ac8c7c3b92583604051610d9a9190611753565b60405180910390a3505050565b6000610db38484610ac7565b90507fffffffffffffffffffffffffffffffffffffffffffffffffffffffffffffffff8114610e2d5781811015610e1f576040517f08c379a0000000000000000000000000000000000000000000000000000000008152600401610e1690611f98565b60405180910390fd5b610e2c8484848403610bde565b5b50505050565b600073ffffffffffffffffffffffffffffffffffffffff168373ffffffffffffffffffffffffffffffffffffffff1603610ea2576040517f08c379a0000000000000000000000000000000000000000000000000000000008152600401610e999061202a565b60405180910390fd5b600073ffffffffffffffffffffffffffffffffffffffff168273ffffffffffffffffffffffffffffffffffffffff1603610f11576040517f08c379a0000000000000000000000000000000000000000000000000000000008152600401610f08906120bc565b60405180910390fd5b610f1c838383611510565b60008060008573ffffffffffffffffffffffffffffffffffffffff1673ffffffffffffffffffffffffffffffffffffffff16815260200190815260200160002054905081811015610fa2576040517f08c379a0000000000000000000000000000000000000000000000000000000008152600401610f999061214e565b60405180910390fd5b8181036000808673ffffffffffffffffffffffffffffffffffffffff1673ffffffffffffffffffffffffffffffffffffffff16815260200190815260200160002081905550816000808573ffffffffffffffffffffffffffffffffffffffff1673ffffffffffffffffffffffffffffffffffffffff168152602001908152602001600020600082825401925050819055508273ffffffffffffffffffffffffffffffffffffffff168473ffffffffffffffffffffffffffffffffffffffff167fddf252ad1be2c89b69c2b068fc378daa952ba7f163c4a11628f55a4df523b3ef846040516110909190611753565b60405180910390a36110a384848461157e565b50505050565b600073ffffffffffffffffffffffffffffffffffffffff168273ffffffffffffffffffffffffffffffffffffffff1603611118576040517f08c379a000000000000000000000000000000000000000000000000000000000815260040161110f906121e0565b60405180910390fd5b61112482600083611510565b60008060008473ffffffffffffffffffffffffffffffffffffffff1673ffffffffffffffffffffffffffffffffffffffff168152602001908152602001600020549050818110156111aa576040517f08c379a00000000000000000000000000000000000000000000000000000000081526004016111a190612272565b60405180910390fd5b8181036000808573ffffffffffffffffffffffffffffffffffffffff1673ffffffffffffffffffffffffffffffffffffffff1681526020019081526020016000208190555081600260008282540392505081905550600073ffffffffffffffffffffffffffffffffffffffff168373ffffffffffffffffffffffffffffffffffffffff167fddf252ad1be2c89b69c2b068fc378daa952ba7f163c4a11628f55a4df523b3ef8460405161125d9190611753565b60405180910390a36112718360008461157e565b505050565b61127e610bd6565b73ffffffffffffffffffffffffffffffffffffffff1661129c6107bc565b73ffffffffffffffffffffffffffffffffffffffff16146112f2576040517f08c379a00000000000000000000000000000000000000000000000000000000081526004016112e9906122de565b60405180910390fd5b565b6000600560009054906101000a900473ffffffffffffffffffffffffffffffffffffffff16905081600560006101000a81548173ffffffffffffffffffffffffffffffffffffffff021916908373ffffffffffffffffffffffffffffffffffffffff1602179055508173ffffffffffffffffffffffffffffffffffffffff168173ffffffffffffffffffffffffffffffffffffffff167f8be0079c531659141344cd1fd0a4f28419497f9722a3daafe3b4186f6b6457e060405160405180910390a35050565b600073ffffffffffffffffffffffffffffffffffffffff168273ffffffffffffffffffffffffffffffffffffffff1603611429576040517f08c379a00000000000000000000000000000000000000000000000000000000081526004016114209061234a565b60405180910390fd5b61143560008383611510565b806002600082825461144791906119e6565b92505081905550806000808473ffffffffffffffffffffffffffffffffffffffff1673ffffffffffffffffffffffffffffffffffffffff168152602001908152602001600020600082825401925050819055508173ffffffffffffffffffffffffffffffffffffffff16600073ffffffffffffffffffffffffffffffffffffffff167fddf252ad1be2c89b69c2b068fc378daa952ba7f163c4a11628f55a4df523b3ef836040516114f89190611753565b60405180910390a361150c6000838361157e565b5050565b61151b838383610bd1565b600560169054906101000a900460ff1615611579576115386105f9565b15611578576040517f08c379a000000000000000000000000000000000000000000000000000000000815260040161156f90611c78565b60405180910390fd5b5b505050565b505050565b600081519050919050565b600082825260208201905092915050565b60005b838110156115bd5780820151818401526020810190506115a2565b60008484015250505050565b6000601f19601f8301169050919050565b60006115e582611583565b6115ef818561158e565b93506115ff81856020860161159f565b611608816115c9565b840191505092915050565b6000602082019050818103600083015261162d81846115da565b905092915050565b600080fd5b600073ffffffffffffffffffffffffffffffffffffffff82169050919050565b60006116658261163a565b9050919050565b6116758161165a565b811461168057600080fd5b50565b6000813590506116928161166c565b92915050565b6000819050919050565b6116ab81611698565b81146116b657600080fd5b50565b6000813590506116c8816116a2565b92915050565b600080604083850312156116e5576116e4611635565b5b60006116f385828601611683565b9250506020611704858286016116b9565b9150509250929050565b60008115159050919050565b6117238161170e565b82525050565b600060208201905061173e600083018461171a565b92915050565b61174d81611698565b82525050565b60006020820190506117686000830184611744565b92915050565b60008060006060848603121561178757611786611635565b5b600061179586828701611683565b93505060206117a686828701611683565b92505060406117b7868287016116b9565b9150509250925092565b600060ff82169050919050565b6117d7816117c1565b82525050565b60006020820190506117f260008301846117ce565b92915050565b60006020828403121561180e5761180d611635565b5b600061181c848285016116b9565b91505092915050565b60006020828403121561183b5761183a611635565b5b600061184984828501611683565b91505092915050565b61185b8161165a565b82525050565b60006020820190506118766000830184611852565b92915050565b6000806040838503121561189357611892611635565b5b60006118a185828601611683565b92505060206118b285828601611683565b9150509250929050565b7f4e487b7100000000000000000000000000000000000000000000000000000000600052602260045260246000fd5b6000600282049050600182168061190357607f821691505b602082108103611916576119156118bc565b5b50919050565b7f4e487b7100000000000000000000000000000000000000000000000000000000600052602160045260246000fd5b7f45524332303a204e6f742063617070656420636f6e7472616374000000000000600082015250565b6000611981601a8361158e565b915061198c8261194b565b602082019050919050565b600060208201905081810360008301526119b081611974565b9050919050565b7f4e487b7100000000000000000000000000000000000000000000000000000000600052601160045260246000fd5b60006119f182611698565b91506119fc83611698565b9250828201905080821115611a1457611a136119b7565b5b92915050565b7f45524332303a204e6f7420616c6c6f77656420746f206275726e000000000000600082015250565b6000611a50601a8361158e565b9150611a5b82611a1a565b602082019050919050565b60006020820190508181036000830152611a7f81611a43565b9050919050565b7f45524332303a20436f6e7472616374206973206e6f74207265636f766572616260008201527f6c65000000000000000000000000000000000000000000000000000000000000602082015250565b6000611ae260228361158e565b9150611aed82611a86565b604082019050919050565b60006020820190508181036000830152611b1181611ad5565b9050919050565b6000604082019050611b2d6000830185611852565b611b3a6020830184611744565b9392505050565b611b4a8161170e565b8114611b5557600080fd5b50565b600081519050611b6781611b41565b92915050565b600060208284031215611b8357611b82611635565b5b6000611b9184828501611b58565b91505092915050565b7f45524332303a204e6f7420616c6c6f77656420746f206d696e74000000000000600082015250565b6000611bd0601a8361158e565b9150611bdb82611b9a565b602082019050919050565b60006020820190508181036000830152611bff81611bc3565b9050919050565b7f45524332303a20546f6b656e207472616e73666572207768696c65207061757360008201527f6564000000000000000000000000000000000000000000000000000000000000602082015250565b6000611c6260228361158e565b9150611c6d82611c06565b604082019050919050565b60006020820190508181036000830152611c9181611c55565b9050919050565b7f45524332303a2043617020657863656564656400000000000000000000000000600082015250565b6000611cce60138361158e565b9150611cd982611c98565b602082019050919050565b60006020820190508181036000830152611cfd81611cc1565b9050919050565b7f45524332303a2064656372656173656420616c6c6f77616e63652062656c6f7760008201527f207a65726f000000000000000000000000000000000000000000000000000000602082015250565b6000611d6060258361158e565b9150611d6b82611d04565b604082019050919050565b60006020820190508181036000830152611d8f81611d53565b9050919050565b7f4f776e61626c653a206e6577206f776e657220697320746865207a65726f206160008201527f6464726573730000000000000000000000000000000000000000000000000000602082015250565b6000611df260268361158e565b9150611dfd82611d96565b604082019050919050565b60006020820190508181036000830152611e2181611de5565b9050919050565b7f45524332303a20617070726f76652066726f6d20746865207a65726f2061646460008201527f7265737300000000000000000000000000000000000000000000000000000000602082015250565b6000611e8460248361158e565b9150611e8f82611e28565b604082019050919050565b60006020820190508181036000830152611eb381611e77565b9050919050565b7f45524332303a20617070726f766520746f20746865207a65726f20616464726560008201527f7373000000000000000000000000000000000000000000000000000000000000602082015250565b6000611f1660228361158e565b9150611f2182611eba565b604082019050919050565b60006020820190508181036000830152611f4581611f09565b9050919050565b7f45524332303a20696e73756666696369656e7420616c6c6f77616e6365000000600082015250565b6000611f82601d8361158e565b9150611f8d82611f4c565b602082019050919050565b60006020820190508181036000830152611fb181611f75565b9050919050565b7f45524332303a207472616e736665722066726f6d20746865207a65726f20616460008201527f6472657373000000000000000000000000000000000000000000000000000000602082015250565b600061201460258361158e565b915061201f82611fb8565b604082019050919050565b6000602082019050818103600083015261204381612007565b9050919050565b7f45524332303a207472616e7366657220746f20746865207a65726f206164647260008201527f6573730000000000000000000000000000000000000000000000000000000000602082015250565b60006120a660238361158e565b91506120b18261204a565b604082019050919050565b600060208201905081810360008301526120d581612099565b9050919050565b7f45524332303a207472616e7366657220616d6f756e742065786365656473206260008201527f616c616e63650000000000000000000000000000000000000000000000000000602082015250565b600061213860268361158e565b9150612143826120dc565b604082019050919050565b600060208201905081810360008301526121678161212b565b9050919050565b7f45524332303a206275726e2066726f6d20746865207a65726f2061646472657360008201527f7300000000000000000000000000000000000000000000000000000000000000602082015250565b60006121ca60218361158e565b91506121d58261216e565b604082019050919050565b600060208201905081810360008301526121f9816121bd565b9050919050565b7f45524332303a206275726e20616d6f756e7420657863656564732062616c616e60008201527f6365000000000000000000000000000000000000000000000000000000000000602082015250565b600061225c60228361158e565b915061226782612200565b604082019050919050565b6000602082019050818103600083015261228b8161224f565b9050919050565b7f4f776e61626c653a2063616c6c6572206973206e6f7420746865206f776e6572600082015250565b60006122c860208361158e565b91506122d382612292565b602082019050919050565b600060208201905081810360008301526122f7816122bb565b9050919050565b7f45524332303a206d696e7420746f20746865207a65726f206164647265737300600082015250565b6000612334601f8361158e565b915061233f826122fe565b602082019050919050565b6000602082019050818103600083015261236381612327565b905091905056fea26469706673582212203c7cc77b61776e6e8234da2cb2b6835f715065068ae90e73b9836bb48df9b0d964736f6c63430008110033",
  "linkReferences": {},
  "deployedLinkReferences": {}
}