{
  "_format": "hh-sol-artifact-1",
  "contractName": "FairProtocolERC20Manager",
  "sourceName": "contracts/erc20/FairProtocolERC20Manager.sol",
  "abi": [
    {
      "inputs": [
        {
          "internalType": "address",
          "name": "_signer",
          "type": "address"
        }
      ],
      "stateMutability": "nonpayable",
      "type": "constructor"
    },
    {
      "anonymous": false,
      "inputs": [
        {
          "indexed": true,
          "internalType": "address",
          "name": "previousOwner",
          "type": "address"
        },
        {
          "indexed": true,
          "internalType": "address",
          "name": "newOwner",
          "type": "address"
        }
      ],
      "name": "OwnershipTransferred",
      "type": "event"
    },
    {
      "inputs": [
        {
          "internalType": "bytes32",
          "name": "r",
          "type": "bytes32"
        },
        {
          "internalType": "uint8",
          "name": "v",
          "type": "uint8"
        },
        {
          "internalType": "bytes32",
          "name": "s",
          "type": "bytes32"
        },
        {
          "internalType": "contract ERC20Universal",
          "name": "token",
          "type": "address"
        },
        {
          "internalType": "uint256",
          "name": "amount",
          "type": "uint256"
        }
      ],
      "name": "mintSigner",
      "outputs": [],
      "stateMutability": "nonpayable",
      "type": "function"
    },
    {
      "inputs": [],
      "name": "owner",
      "outputs": [
        {
          "internalType": "address",
          "name": "",
          "type": "address"
        }
      ],
      "stateMutability": "view",
      "type": "function"
    },
    {
      "inputs": [],
      "name": "renounceOwnership",
      "outputs": [],
      "stateMutability": "nonpayable",
      "type": "function"
    },
    {
      "inputs": [
        {
          "internalType": "address",
          "name": "newOwner",
          "type": "address"
        }
      ],
      "name": "transferOwnership",
      "outputs": [],
      "stateMutability": "nonpayable",
      "type": "function"
    }
  ],
  "bytecode": "0x608060405234801561001057600080fd5b50604051610d94380380610d94833981810160405281019061003291906101c4565b61004e61004361009560201b60201c565b61009d60201b60201c565b80600160006101000a81548173ffffffffffffffffffffffffffffffffffffffff021916908373ffffffffffffffffffffffffffffffffffffffff160217905550506101f1565b600033905090565b60008060009054906101000a900473ffffffffffffffffffffffffffffffffffffffff169050816000806101000a81548173ffffffffffffffffffffffffffffffffffffffff021916908373ffffffffffffffffffffffffffffffffffffffff1602179055508173ffffffffffffffffffffffffffffffffffffffff168173ffffffffffffffffffffffffffffffffffffffff167f8be0079c531659141344cd1fd0a4f28419497f9722a3daafe3b4186f6b6457e060405160405180910390a35050565b600080fd5b600073ffffffffffffffffffffffffffffffffffffffff82169050919050565b600061019182610166565b9050919050565b6101a181610186565b81146101ac57600080fd5b50565b6000815190506101be81610198565b92915050565b6000602082840312156101da576101d9610161565b5b60006101e8848285016101af565b91505092915050565b610b94806102006000396000f3fe608060405234801561001057600080fd5b506004361061004c5760003560e01c8063715018a6146100515780638da5cb5b1461005b578063cc09222114610079578063f2fde38b14610095575b600080fd5b6100596100b1565b005b6100636100c5565b6040516100709190610541565b60405180910390f35b610093600480360381019061008e9190610644565b6100ee565b005b6100af60048036038101906100aa91906106eb565b610230565b005b6100b96102b3565b6100c36000610331565b565b60008060009054906101000a900473ffffffffffffffffffffffffffffffffffffffff16905090565b6100fb85858585856103f5565b61013a576040517f08c379a00000000000000000000000000000000000000000000000000000000081526004016101319061079b565b60405180910390fd5b8173ffffffffffffffffffffffffffffffffffffffff166323b872dd8373ffffffffffffffffffffffffffffffffffffffff16638da5cb5b6040518163ffffffff1660e01b8152600401602060405180830381865afa1580156101a1573d6000803e3d6000fd5b505050506040513d601f19601f820116820180604052508101906101c591906107d0565b33846040518463ffffffff1660e01b81526004016101e59392919061080c565b6020604051808303816000875af1158015610204573d6000803e3d6000fd5b505050506040513d601f19601f82011682018060405250810190610228919061087b565b505050505050565b6102386102b3565b600073ffffffffffffffffffffffffffffffffffffffff168173ffffffffffffffffffffffffffffffffffffffff16036102a7576040517f08c379a000000000000000000000000000000000000000000000000000000000815260040161029e9061091a565b60405180910390fd5b6102b081610331565b50565b6102bb6104f8565b73ffffffffffffffffffffffffffffffffffffffff166102d96100c5565b73ffffffffffffffffffffffffffffffffffffffff161461032f576040517f08c379a000000000000000000000000000000000000000000000000000000000815260040161032690610986565b60405180910390fd5b565b60008060009054906101000a900473ffffffffffffffffffffffffffffffffffffffff169050816000806101000a81548173ffffffffffffffffffffffffffffffffffffffff021916908373ffffffffffffffffffffffffffffffffffffffff1602179055508173ffffffffffffffffffffffffffffffffffffffff168173ffffffffffffffffffffffffffffffffffffffff167f8be0079c531659141344cd1fd0a4f28419497f9722a3daafe3b4186f6b6457e060405160405180910390a35050565b6000808233853060405160200161040f9493929190610a0f565b60405160208183030381529060405280519060200120905060018160405160200161043a9190610ad5565b60405160208183030381529060405280519060200120878988604051600081526020016040526040516104709493929190610b19565b6020604051602081039080840390855afa158015610492573d6000803e3d6000fd5b5050506020604051035173ffffffffffffffffffffffffffffffffffffffff16600160009054906101000a900473ffffffffffffffffffffffffffffffffffffffff1673ffffffffffffffffffffffffffffffffffffffff161491505095945050505050565b600033905090565b600073ffffffffffffffffffffffffffffffffffffffff82169050919050565b600061052b82610500565b9050919050565b61053b81610520565b82525050565b60006020820190506105566000830184610532565b92915050565b600080fd5b6000819050919050565b61057481610561565b811461057f57600080fd5b50565b6000813590506105918161056b565b92915050565b600060ff82169050919050565b6105ad81610597565b81146105b857600080fd5b50565b6000813590506105ca816105a4565b92915050565b60006105db82610520565b9050919050565b6105eb816105d0565b81146105f657600080fd5b50565b600081359050610608816105e2565b92915050565b6000819050919050565b6106218161060e565b811461062c57600080fd5b50565b60008135905061063e81610618565b92915050565b600080600080600060a086880312156106605761065f61055c565b5b600061066e88828901610582565b955050602061067f888289016105bb565b945050604061069088828901610582565b93505060606106a1888289016105f9565b92505060806106b28882890161062f565b9150509295509295909350565b6106c881610520565b81146106d357600080fd5b50565b6000813590506106e5816106bf565b92915050565b6000602082840312156107015761070061055c565b5b600061070f848285016106d6565b91505092915050565b600082825260208201905092915050565b7f4661697250726f746f636f6c45524332304d616e616765723a2057726f6e672060008201527f7369676e61747572650000000000000000000000000000000000000000000000602082015250565b6000610785602983610718565b915061079082610729565b604082019050919050565b600060208201905081810360008301526107b481610778565b9050919050565b6000815190506107ca816106bf565b92915050565b6000602082840312156107e6576107e561055c565b5b60006107f4848285016107bb565b91505092915050565b6108068161060e565b82525050565b60006060820190506108216000830186610532565b61082e6020830185610532565b61083b60408301846107fd565b949350505050565b60008115159050919050565b61085881610843565b811461086357600080fd5b50565b6000815190506108758161084f565b92915050565b6000602082840312156108915761089061055c565b5b600061089f84828501610866565b91505092915050565b7f4f776e61626c653a206e6577206f776e657220697320746865207a65726f206160008201527f6464726573730000000000000000000000000000000000000000000000000000602082015250565b6000610904602683610718565b915061090f826108a8565b604082019050919050565b60006020820190508181036000830152610933816108f7565b9050919050565b7f4f776e61626c653a2063616c6c6572206973206e6f7420746865206f776e6572600082015250565b6000610970602083610718565b915061097b8261093a565b602082019050919050565b6000602082019050818103600083015261099f81610963565b9050919050565b6000819050919050565b6109c16109bc8261060e565b6109a6565b82525050565b60008160601b9050919050565b60006109df826109c7565b9050919050565b60006109f1826109d4565b9050919050565b610a09610a0482610520565b6109e6565b82525050565b6000610a1b82876109b0565b602082019150610a2b82866109f8565b601482019150610a3b82856109f8565b601482019150610a4b82846109f8565b60148201915081905095945050505050565b600081905092915050565b7f19457468657265756d205369676e6564204d6573736167653a0a333200000000600082015250565b6000610a9e601c83610a5d565b9150610aa982610a68565b601c82019050919050565b6000819050919050565b610acf610aca82610561565b610ab4565b82525050565b6000610ae082610a91565b9150610aec8284610abe565b60208201915081905092915050565b610b0481610561565b82525050565b610b1381610597565b82525050565b6000608082019050610b2e6000830187610afb565b610b3b6020830186610b0a565b610b486040830185610afb565b610b556060830184610afb565b9594505050505056fea26469706673582212202b60bc2223a5111723bcc0865b2761c4247d1c54c006e54c76e780d8cabbcb9064736f6c63430008110033",
  "linkReferences": {},
  "deployedLinkReferences": {}
}